{
  "address": "0x1a71aE5dd62D1a5B8cB2cd9669F939F035601c5C",
  "abi": [
    {
      "inputs": [
        {
          "internalType": "contract IAuthorityHistoryPairFactory",
          "name": "_authorityHistoryPairFactory",
          "type": "address"
        },
        {
          "internalType": "contract CartesiDAppFactory",
          "name": "_applicationFactory",
          "type": "address"
        }
      ],
      "stateMutability": "nonpayable",
      "type": "constructor"
    },
    {
      "inputs": [
        {
          "internalType": "address",
          "name": "_authorityOwner",
          "type": "address"
        },
        {
          "internalType": "address",
          "name": "_dappOwner",
          "type": "address"
        },
        {
          "internalType": "bytes32",
          "name": "_templateHash",
          "type": "bytes32"
        },
        {
          "internalType": "bytes32",
          "name": "_salt",
          "type": "bytes32"
        }
      ],
      "name": "calculateApplicationAddress",
      "outputs": [
        {
          "internalType": "address",
          "name": "",
          "type": "address"
        },
        {
          "internalType": "address",
          "name": "",
          "type": "address"
        },
        {
          "internalType": "address",
          "name": "",
          "type": "address"
        }
      ],
      "stateMutability": "view",
      "type": "function"
    },
    {
      "inputs": [
        {
          "internalType": "address",
          "name": "_authorityOwner",
          "type": "address"
        },
        {
          "internalType": "address",
          "name": "_dappOwner",
          "type": "address"
        },
        {
          "internalType": "bytes32",
          "name": "_templateHash",
          "type": "bytes32"
        },
        {
          "internalType": "bytes32",
          "name": "_salt",
          "type": "bytes32"
        }
      ],
      "name": "newApplication",
      "outputs": [
        {
          "internalType": "contract CartesiDApp",
          "name": "",
          "type": "address"
        }
      ],
      "stateMutability": "nonpayable",
      "type": "function"
    }
  ],
  "transactionHash": "0x867e8d078136ed610b33793aed680a4a2814fa302e9e13d6e70875a3a4f76270",
  "args": [
    "0x3890A047Cf9Af60731E80B2105362BbDCD70142D",
    "0x7122cd1221C20892234186facfE8615e6743Ab02"
  ],
  "numDeployments": 2,
  "solcInputHash": "36bfb33fa72b3fd85f0116f3abe8139f",
  "bytecode": "0x60c060405234801561001057600080fd5b506040516109db3803806109db83398181016040528101906100329190610154565b8173ffffffffffffffffffffffffffffffffffffffff1660808173ffffffffffffffffffffffffffffffffffffffff16815250508073ffffffffffffffffffffffffffffffffffffffff1660a08173ffffffffffffffffffffffffffffffffffffffff16815250505050610194565b600080fd5b600073ffffffffffffffffffffffffffffffffffffffff82169050919050565b60006100d1826100a6565b9050919050565b60006100e3826100c6565b9050919050565b6100f3816100d8565b81146100fe57600080fd5b50565b600081519050610110816100ea565b92915050565b6000610121826100c6565b9050919050565b61013181610116565b811461013c57600080fd5b50565b60008151905061014e81610128565b92915050565b6000806040838503121561016b5761016a6100a1565b5b600061017985828601610101565b925050602061018a8582860161013f565b9150509250929050565b60805160a0516108156101c660003960008181610142015261029801526000818160a201526101f701526108156000f3fe608060405234801561001057600080fd5b50600436106100365760003560e01c80630e1a07f51461003b578063bd4f12191461006b575b600080fd5b610055600480360381019061005091906103e7565b61009d565b60405161006291906104ad565b60405180910390f35b610085600480360381019061008091906103e7565b6101ed565b604051610094939291906104d7565b60405180910390f35b6000807f000000000000000000000000000000000000000000000000000000000000000073ffffffffffffffffffffffffffffffffffffffff1663d73f347a87856040518363ffffffff1660e01b81526004016100fb92919061051d565b60408051808303816000875af1158015610119573d6000803e3d6000fd5b505050506040513d601f19601f8201168201806040525081019061013d91906105c2565b5090507f000000000000000000000000000000000000000000000000000000000000000073ffffffffffffffffffffffffffffffffffffffff16630e1a07f5828787876040518563ffffffff1660e01b815260040161019f9493929190610635565b6020604051808303816000875af11580156101be573d6000803e3d6000fd5b505050506040513d601f19601f820116820180604052508101906101e291906106ca565b915050949350505050565b60008060008060007f000000000000000000000000000000000000000000000000000000000000000073ffffffffffffffffffffffffffffffffffffffff166339dcd4578a886040518363ffffffff1660e01b815260040161025092919061051d565b6040805180830381865afa15801561026c573d6000803e3d6000fd5b505050506040513d601f19601f82011682018060405250810190610290919061070c565b9150915060007f000000000000000000000000000000000000000000000000000000000000000073ffffffffffffffffffffffffffffffffffffffff1663bd4f1219848b8b8b6040518563ffffffff1660e01b81526004016102f5949392919061076d565b602060405180830381865afa158015610312573d6000803e3d6000fd5b505050506040513d601f19601f8201168201806040525081019061033691906107b2565b90508282829550955095505050509450945094915050565b600080fd5b600073ffffffffffffffffffffffffffffffffffffffff82169050919050565b600061037e82610353565b9050919050565b61038e81610373565b811461039957600080fd5b50565b6000813590506103ab81610385565b92915050565b6000819050919050565b6103c4816103b1565b81146103cf57600080fd5b50565b6000813590506103e1816103bb565b92915050565b600080600080608085870312156104015761040061034e565b5b600061040f8782880161039c565b94505060206104208782880161039c565b9350506040610431878288016103d2565b9250506060610442878288016103d2565b91505092959194509250565b6000819050919050565b600061047361046e61046984610353565b61044e565b610353565b9050919050565b600061048582610458565b9050919050565b60006104978261047a565b9050919050565b6104a78161048c565b82525050565b60006020820190506104c2600083018461049e565b92915050565b6104d181610373565b82525050565b60006060820190506104ec60008301866104c8565b6104f960208301856104c8565b61050660408301846104c8565b949350505050565b610517816103b1565b82525050565b600060408201905061053260008301856104c8565b61053f602083018461050e565b9392505050565b600061055182610373565b9050919050565b61056181610546565b811461056c57600080fd5b50565b60008151905061057e81610558565b92915050565b600061058f82610373565b9050919050565b61059f81610584565b81146105aa57600080fd5b50565b6000815190506105bc81610596565b92915050565b600080604083850312156105d9576105d861034e565b5b60006105e78582860161056f565b92505060206105f8858286016105ad565b9150509250929050565b600061060d82610458565b9050919050565b600061061f82610602565b9050919050565b61062f81610614565b82525050565b600060808201905061064a6000830187610626565b61065760208301866104c8565b610664604083018561050e565b610671606083018461050e565b95945050505050565b600061068582610353565b9050919050565b60006106978261067a565b9050919050565b6106a78161068c565b81146106b257600080fd5b50565b6000815190506106c48161069e565b92915050565b6000602082840312156106e0576106df61034e565b5b60006106ee848285016106b5565b91505092915050565b60008151905061070681610385565b92915050565b600080604083850312156107235761072261034e565b5b6000610731858286016106f7565b9250506020610742858286016106f7565b9150509250929050565b600061075782610602565b9050919050565b6107678161074c565b82525050565b6000608082019050610782600083018761075e565b61078f60208301866104c8565b61079c604083018561050e565b6107a9606083018461050e565b95945050505050565b6000602082840312156107c8576107c761034e565b5b60006107d6848285016106f7565b9150509291505056fea26469706673582212202c30f4cb94b8d11fba7b37749d22211397b62afb22dc90c69f88c814a4a62e6064736f6c63430008140033",
  "devdoc": {
    "kind": "dev",
    "methods": {
      "calculateApplicationAddress(address,address,bytes32,bytes32)": {
        "params": {
          "_authorityOwner": "The initial authority owner",
          "_dappOwner": "The initial DApp owner",
          "_salt": "The salt used to deterministically generate the DApp address",
          "_templateHash": "The initial machine state hash"
        },
        "returns": {
          "_0": "The deterministic authority address, history address and application address"
        }
      },
      "constructor": {
        "params": {
          "_applicationFactory": "The application factory",
          "_authorityHistoryPairFactory": "The authority and history factory"
        }
      },
      "newApplication(address,address,bytes32,bytes32)": {
        "params": {
          "_authorityOwner": "The initial authority owner",
          "_dappOwner": "The initial DApp owner",
          "_salt": "The salt used to deterministically generate the authority, history and application addresses",
          "_templateHash": "The initial machine state hash"
        },
        "returns": {
          "_0": "The application"
        }
      }
    },
    "version": 1
  },
  "userdoc": {
    "kind": "user",
    "methods": {
      "calculateApplicationAddress(address,address,bytes32,bytes32)": {
        "notice": "Calculate the address of an application to be deployed deterministically."
      },
      "constructor": {
        "notice": "Construct a new SelfHostedApplicationFactory"
      },
      "newApplication(address,address,bytes32,bytes32)": {
        "notice": "Deploy a new authority, history and application deterministically."
      }
    },
    "notice": "This contract implements an ISelfHostedApplicationFactory.",
    "version": 1
  },
  "storageLayout": {
    "storage": [],
    "types": null
  }
}