{
  "address": "0x519421Bd7843e0D1E2F280490962850e31c86087",
  "abi": [
    {
      "anonymous": false,
      "inputs": [
        {
          "indexed": false,
          "internalType": "contract Authority",
          "name": "authority",
          "type": "address"
        }
      ],
      "name": "AuthorityCreated",
      "type": "event"
    },
    {
      "inputs": [
        {
          "internalType": "address",
          "name": "_authorityOwner",
          "type": "address"
        },
        {
          "internalType": "bytes32",
          "name": "_salt",
          "type": "bytes32"
        }
      ],
      "name": "calculateAuthorityAddress",
      "outputs": [
        {
          "internalType": "address",
          "name": "",
          "type": "address"
        }
      ],
      "stateMutability": "view",
      "type": "function"
    },
    {
      "inputs": [],
      "name": "newAuthority",
      "outputs": [
        {
          "internalType": "contract Authority",
          "name": "",
          "type": "address"
        }
      ],
      "stateMutability": "nonpayable",
      "type": "function"
    },
    {
      "inputs": [
        {
          "internalType": "bytes32",
          "name": "_salt",
          "type": "bytes32"
        }
      ],
      "name": "newAuthority",
      "outputs": [
        {
          "internalType": "contract Authority",
          "name": "",
          "type": "address"
        }
      ],
      "stateMutability": "nonpayable",
      "type": "function"
    },
    {
      "inputs": [
        {
          "internalType": "address",
          "name": "_authorityOwner",
          "type": "address"
        },
        {
          "internalType": "bytes32",
          "name": "_salt",
          "type": "bytes32"
        }
      ],
      "name": "newAuthority",
      "outputs": [
        {
          "internalType": "contract Authority",
          "name": "",
          "type": "address"
        }
      ],
      "stateMutability": "nonpayable",
      "type": "function"
    },
    {
      "inputs": [
        {
          "internalType": "address",
          "name": "_authorityOwner",
          "type": "address"
        }
      ],
      "name": "newAuthority",
      "outputs": [
        {
          "internalType": "contract Authority",
          "name": "",
          "type": "address"
        }
      ],
      "stateMutability": "nonpayable",
      "type": "function"
    }
  ],
  "transactionHash": "0x2e8a982a0715312ad9bdd6eb90488afb9441082fbeccfc03f25e310a18bab235",
  "args": [],
  "numDeployments": 3,
  "solcInputHash": "b88412d72bfae65ee63b1882aa12299b",
  "bytecode": "0x608060405234801561001057600080fd5b50613083806100206000396000f3fe60806040523480156200001157600080fd5b50600436106200005d5760003560e01c80629c578414620000625780631361ab5e14620000985780634ba7c12014620000ba5780635a3f27d314620000f0578063b3a51b841462000126575b600080fd5b6200008060048036038101906200007a9190620006a1565b6200015c565b6040516200008f9190620006f9565b60405180910390f35b620000a2620001f0565b604051620000b1919062000781565b60405180910390f35b620000d86004803603810190620000d291906200079e565b62000202565b604051620000e7919062000781565b60405180910390f35b6200010e6004803603810190620001089190620006a1565b62000217565b6040516200011d919062000781565b60405180910390f35b6200014460048036038101906200013e9190620007d0565b620003cd565b60405162000153919062000781565b60405180910390f35b60006200016a838362000569565b9150620001e882604051806020016200018390620005e0565b6020820181038252601f19601f8201166040525085604051602001620001aa9190620006f9565b604051602081830303815290604052604051602001620001cc9291906200087b565b604051602081830303815290604052805190602001206200059e565b905092915050565b6000620001fd33620003cd565b905090565b600062000210338362000217565b9050919050565b600062000225838362000569565b9150600082306040516200023990620005e0565b620002459190620006f9565b8190604051809103906000f590508015801562000266573d6000803e3d6000fd5b509050600083826040516200027b90620005ee565b620002879190620006f9565b8190604051809103906000f5905080158015620002a8573d6000803e3d6000fd5b5090508173ffffffffffffffffffffffffffffffffffffffff1663159c5ea1826040518263ffffffff1660e01b8152600401620002e69190620008c8565b600060405180830381600087803b1580156200030157600080fd5b505af115801562000316573d6000803e3d6000fd5b505050508173ffffffffffffffffffffffffffffffffffffffff1663f2fde38b866040518263ffffffff1660e01b8152600401620003559190620006f9565b600060405180830381600087803b1580156200037057600080fd5b505af115801562000385573d6000803e3d6000fd5b505050507fdca1fad70bee4ba7a4e17a1c6e99e657d2251af7a279124758bc01588abe2d2f82604051620003ba919062000781565b60405180910390a1819250505092915050565b60008030604051620003df90620005e0565b620003eb9190620006f9565b604051809103906000f08015801562000408573d6000803e3d6000fd5b5090506000816040516200041c90620005ee565b620004289190620006f9565b604051809103906000f08015801562000445573d6000803e3d6000fd5b5090508173ffffffffffffffffffffffffffffffffffffffff1663159c5ea1826040518263ffffffff1660e01b8152600401620004839190620008c8565b600060405180830381600087803b1580156200049e57600080fd5b505af1158015620004b3573d6000803e3d6000fd5b505050508173ffffffffffffffffffffffffffffffffffffffff1663f2fde38b856040518263ffffffff1660e01b8152600401620004f29190620006f9565b600060405180830381600087803b1580156200050d57600080fd5b505af115801562000522573d6000803e3d6000fd5b505050507fdca1fad70bee4ba7a4e17a1c6e99e657d2251af7a279124758bc01588abe2d2f8260405162000557919062000781565b60405180910390a18192505050919050565b60008282604051602001620005809291906200095a565b60405160208183030381529060405280519060200120905092915050565b6000620005ad838330620005b5565b905092915050565b6000604051836040820152846020820152828152600b810160ff815360558120925050509392505050565b6112cd806200098b83390190565b6113f68062001c5883390190565b600080fd5b600073ffffffffffffffffffffffffffffffffffffffff82169050919050565b60006200062e8262000601565b9050919050565b620006408162000621565b81146200064c57600080fd5b50565b600081359050620006608162000635565b92915050565b6000819050919050565b6200067b8162000666565b81146200068757600080fd5b50565b6000813590506200069b8162000670565b92915050565b60008060408385031215620006bb57620006ba620005fc565b5b6000620006cb858286016200064f565b9250506020620006de858286016200068a565b9150509250929050565b620006f38162000621565b82525050565b6000602082019050620007106000830184620006e8565b92915050565b6000819050919050565b6000620007416200073b620007358462000601565b62000716565b62000601565b9050919050565b6000620007558262000720565b9050919050565b6000620007698262000748565b9050919050565b6200077b816200075c565b82525050565b600060208201905062000798600083018462000770565b92915050565b600060208284031215620007b757620007b6620005fc565b5b6000620007c7848285016200068a565b91505092915050565b600060208284031215620007e957620007e8620005fc565b5b6000620007f9848285016200064f565b91505092915050565b600081519050919050565b600081905092915050565b60005b83811015620008385780820151818401526020810190506200081b565b60008484015250505050565b6000620008518262000802565b6200085d81856200080d565b93506200086f81856020860162000818565b80840191505092915050565b600062000889828562000844565b915062000897828462000844565b91508190509392505050565b6000620008b08262000748565b9050919050565b620008c281620008a3565b82525050565b6000602082019050620008df6000830184620008b7565b92915050565b60008160601b9050919050565b6000620008ff82620008e5565b9050919050565b60006200091382620008f2565b9050919050565b6200092f620009298262000621565b62000906565b82525050565b6000819050919050565b620009546200094e8262000666565b62000935565b82525050565b60006200096882856200091a565b6014820191506200097a82846200093f565b602082019150819050939250505056fe60806040523480156200001157600080fd5b50604051620012cd380380620012cd83398181016040528101906200003791906200032a565b620000576200004b620000a460201b60201c565b620000ac60201b60201c565b8073ffffffffffffffffffffffffffffffffffffffff163373ffffffffffffffffffffffffffffffffffffffff16146200009d576200009c816200017060201b60201c565b5b5062000477565b600033905090565b60008060009054906101000a900473ffffffffffffffffffffffffffffffffffffffff169050816000806101000a81548173ffffffffffffffffffffffffffffffffffffffff021916908373ffffffffffffffffffffffffffffffffffffffff1602179055508173ffffffffffffffffffffffffffffffffffffffff168173ffffffffffffffffffffffffffffffffffffffff167f8be0079c531659141344cd1fd0a4f28419497f9722a3daafe3b4186f6b6457e060405160405180910390a35050565b620001806200020660201b60201c565b600073ffffffffffffffffffffffffffffffffffffffff168173ffffffffffffffffffffffffffffffffffffffff1603620001f2576040517f08c379a0000000000000000000000000000000000000000000000000000000008152600401620001e990620003e3565b60405180910390fd5b6200020381620000ac60201b60201c565b50565b62000216620000a460201b60201c565b73ffffffffffffffffffffffffffffffffffffffff166200023c6200029760201b60201c565b73ffffffffffffffffffffffffffffffffffffffff161462000295576040517f08c379a00000000000000000000000000000000000000000000000000000000081526004016200028c9062000455565b60405180910390fd5b565b60008060009054906101000a900473ffffffffffffffffffffffffffffffffffffffff16905090565b600080fd5b600073ffffffffffffffffffffffffffffffffffffffff82169050919050565b6000620002f282620002c5565b9050919050565b6200030481620002e5565b81146200031057600080fd5b50565b6000815190506200032481620002f9565b92915050565b600060208284031215620003435762000342620002c0565b5b6000620003538482850162000313565b91505092915050565b600082825260208201905092915050565b7f4f776e61626c653a206e6577206f776e657220697320746865207a65726f206160008201527f6464726573730000000000000000000000000000000000000000000000000000602082015250565b6000620003cb6026836200035c565b9150620003d8826200036d565b604082019050919050565b60006020820190508181036000830152620003fe81620003bc565b9050919050565b7f4f776e61626c653a2063616c6c6572206973206e6f7420746865206f776e6572600082015250565b60006200043d6020836200035c565b91506200044a8262000405565b602082019050919050565b6000602082019050818103600083015262000470816200042e565b9050919050565b610e4680620004876000396000f3fe608060405234801561001057600080fd5b506004361061009e5760003560e01c8063b688a36311610066578063b688a36314610121578063bcdd1e131461012b578063d79a824014610147578063ddfdfbb014610179578063f2fde38b146101955761009e565b8063159c5ea1146100a3578063715018a6146100bf5780638da5cb5b146100c95780639368a3d3146100e7578063aa15efc814610103575b600080fd5b6100bd60048036038101906100b891906107c9565b6101b1565b005b6100c7610234565b005b6100d1610248565b6040516100de9190610805565b60405180910390f35b61010160048036038101906100fc919061084c565b610271565b005b61010b610309565b60405161011891906108d8565b60405180910390f35b610129610333565b005b61014560048036038101906101409190610967565b61036c565b005b610161600480360381019061015c9190610a1f565b610433565b60405161017093929190610aa7565b60405180910390f35b610193600480360381019061018e9190610ade565b6104e7565b005b6101af60048036038101906101aa919061084c565b610582565b005b6101b9610605565b80600160006101000a81548173ffffffffffffffffffffffffffffffffffffffff021916908373ffffffffffffffffffffffffffffffffffffffff1602179055507f2bcd43869347a1d42f97ac6042f3d129817abd05a6125f9750fe3724e321d23e8160405161022991906108d8565b60405180910390a150565b61023c610605565b6102466000610683565b565b60008060009054906101000a900473ffffffffffffffffffffffffffffffffffffffff16905090565b610279610605565b600160009054906101000a900473ffffffffffffffffffffffffffffffffffffffff1673ffffffffffffffffffffffffffffffffffffffff1663fc411683826040518263ffffffff1660e01b81526004016102d49190610805565b600060405180830381600087803b1580156102ee57600080fd5b505af1158015610302573d6000803e3d6000fd5b5050505050565b6000600160009054906101000a900473ffffffffffffffffffffffffffffffffffffffff16905090565b7f27c2b702d3bff195a18baca2daf00b20a986177c5f1449af4e2d46a3c3e02ce5336040516103629190610805565b60405180910390a1565b610374610605565b60008373ffffffffffffffffffffffffffffffffffffffff1663a9059cbb84846040518363ffffffff1660e01b81526004016103b1929190610b2b565b6020604051808303816000875af11580156103d0573d6000803e3d6000fd5b505050506040513d601f19601f820116820180604052508101906103f49190610b8c565b90508061042d576040517f133c394e00000000000000000000000000000000000000000000000000000000815260040160405180910390fd5b50505050565b6000806000600160009054906101000a900473ffffffffffffffffffffffffffffffffffffffff1673ffffffffffffffffffffffffffffffffffffffff1663d79a82408787876040518463ffffffff1660e01b815260040161049793929190610c17565b606060405180830381865afa1580156104b4573d6000803e3d6000fd5b505050506040513d601f19601f820116820180604052508101906104d89190610c8a565b92509250925093509350939050565b6104ef610605565b600160009054906101000a900473ffffffffffffffffffffffffffffffffffffffff1673ffffffffffffffffffffffffffffffffffffffff1663ddfdfbb083836040518363ffffffff1660e01b815260040161054c929190610cdd565b600060405180830381600087803b15801561056657600080fd5b505af115801561057a573d6000803e3d6000fd5b505050505050565b61058a610605565b600073ffffffffffffffffffffffffffffffffffffffff168173ffffffffffffffffffffffffffffffffffffffff16036105f9576040517f08c379a00000000000000000000000000000000000000000000000000000000081526004016105f090610d84565b60405180910390fd5b61060281610683565b50565b61060d610747565b73ffffffffffffffffffffffffffffffffffffffff1661062b610248565b73ffffffffffffffffffffffffffffffffffffffff1614610681576040517f08c379a000000000000000000000000000000000000000000000000000000000815260040161067890610df0565b60405180910390fd5b565b60008060009054906101000a900473ffffffffffffffffffffffffffffffffffffffff169050816000806101000a81548173ffffffffffffffffffffffffffffffffffffffff021916908373ffffffffffffffffffffffffffffffffffffffff1602179055508173ffffffffffffffffffffffffffffffffffffffff168173ffffffffffffffffffffffffffffffffffffffff167f8be0079c531659141344cd1fd0a4f28419497f9722a3daafe3b4186f6b6457e060405160405180910390a35050565b600033905090565b600080fd5b600080fd5b600073ffffffffffffffffffffffffffffffffffffffff82169050919050565b600061078482610759565b9050919050565b600061079682610779565b9050919050565b6107a68161078b565b81146107b157600080fd5b50565b6000813590506107c38161079d565b92915050565b6000602082840312156107df576107de61074f565b5b60006107ed848285016107b4565b91505092915050565b6107ff81610779565b82525050565b600060208201905061081a60008301846107f6565b92915050565b61082981610779565b811461083457600080fd5b50565b60008135905061084681610820565b92915050565b6000602082840312156108625761086161074f565b5b600061087084828501610837565b91505092915050565b6000819050919050565b600061089e61089961089484610759565b610879565b610759565b9050919050565b60006108b082610883565b9050919050565b60006108c2826108a5565b9050919050565b6108d2816108b7565b82525050565b60006020820190506108ed60008301846108c9565b92915050565b60006108fe82610779565b9050919050565b61090e816108f3565b811461091957600080fd5b50565b60008135905061092b81610905565b92915050565b6000819050919050565b61094481610931565b811461094f57600080fd5b50565b6000813590506109618161093b565b92915050565b6000806000606084860312156109805761097f61074f565b5b600061098e8682870161091c565b935050602061099f86828701610837565b92505060406109b086828701610952565b9150509250925092565b600080fd5b600080fd5b600080fd5b60008083601f8401126109df576109de6109ba565b5b8235905067ffffffffffffffff8111156109fc576109fb6109bf565b5b602083019150836001820283011115610a1857610a176109c4565b5b9250929050565b600080600060408486031215610a3857610a3761074f565b5b6000610a4686828701610837565b935050602084013567ffffffffffffffff811115610a6757610a66610754565b5b610a73868287016109c9565b92509250509250925092565b6000819050919050565b610a9281610a7f565b82525050565b610aa181610931565b82525050565b6000606082019050610abc6000830186610a89565b610ac96020830185610a98565b610ad66040830184610a98565b949350505050565b60008060208385031215610af557610af461074f565b5b600083013567ffffffffffffffff811115610b1357610b12610754565b5b610b1f858286016109c9565b92509250509250929050565b6000604082019050610b4060008301856107f6565b610b4d6020830184610a98565b9392505050565b60008115159050919050565b610b6981610b54565b8114610b7457600080fd5b50565b600081519050610b8681610b60565b92915050565b600060208284031215610ba257610ba161074f565b5b6000610bb084828501610b77565b91505092915050565b600082825260208201905092915050565b82818337600083830152505050565b6000601f19601f8301169050919050565b6000610bf68385610bb9565b9350610c03838584610bca565b610c0c83610bd9565b840190509392505050565b6000604082019050610c2c60008301866107f6565b8181036020830152610c3f818486610bea565b9050949350505050565b610c5281610a7f565b8114610c5d57600080fd5b50565b600081519050610c6f81610c49565b92915050565b600081519050610c848161093b565b92915050565b600080600060608486031215610ca357610ca261074f565b5b6000610cb186828701610c60565b9350506020610cc286828701610c75565b9250506040610cd386828701610c75565b9150509250925092565b60006020820190508181036000830152610cf8818486610bea565b90509392505050565b600082825260208201905092915050565b7f4f776e61626c653a206e6577206f776e657220697320746865207a65726f206160008201527f6464726573730000000000000000000000000000000000000000000000000000602082015250565b6000610d6e602683610d01565b9150610d7982610d12565b604082019050919050565b60006020820190508181036000830152610d9d81610d61565b9050919050565b7f4f776e61626c653a2063616c6c6572206973206e6f7420746865206f776e6572600082015250565b6000610dda602083610d01565b9150610de582610da4565b602082019050919050565b60006020820190508181036000830152610e0981610dcd565b905091905056fea264697066735822122095c7ee4fe2ae0dfe34ed7b33ad72bdfa698f2e0522e01466f06d974910f2fa3d64736f6c6343000814003360806040523480156200001157600080fd5b50604051620013f6380380620013f683398181016040528101906200003791906200032a565b620000576200004b620000a460201b60201c565b620000ac60201b60201c565b3373ffffffffffffffffffffffffffffffffffffffff168173ffffffffffffffffffffffffffffffffffffffff16146200009d576200009c816200017060201b60201c565b5b5062000477565b600033905090565b60008060009054906101000a900473ffffffffffffffffffffffffffffffffffffffff169050816000806101000a81548173ffffffffffffffffffffffffffffffffffffffff021916908373ffffffffffffffffffffffffffffffffffffffff1602179055508173ffffffffffffffffffffffffffffffffffffffff168173ffffffffffffffffffffffffffffffffffffffff167f8be0079c531659141344cd1fd0a4f28419497f9722a3daafe3b4186f6b6457e060405160405180910390a35050565b620001806200020660201b60201c565b600073ffffffffffffffffffffffffffffffffffffffff168173ffffffffffffffffffffffffffffffffffffffff1603620001f2576040517f08c379a0000000000000000000000000000000000000000000000000000000008152600401620001e990620003e3565b60405180910390fd5b6200020381620000ac60201b60201c565b50565b62000216620000a460201b60201c565b73ffffffffffffffffffffffffffffffffffffffff166200023c6200029760201b60201c565b73ffffffffffffffffffffffffffffffffffffffff161462000295576040517f08c379a00000000000000000000000000000000000000000000000000000000081526004016200028c9062000455565b60405180910390fd5b565b60008060009054906101000a900473ffffffffffffffffffffffffffffffffffffffff16905090565b600080fd5b600073ffffffffffffffffffffffffffffffffffffffff82169050919050565b6000620002f282620002c5565b9050919050565b6200030481620002e5565b81146200031057600080fd5b50565b6000815190506200032481620002f9565b92915050565b600060208284031215620003435762000342620002c0565b5b6000620003538482850162000313565b91505092915050565b600082825260208201905092915050565b7f4f776e61626c653a206e6577206f776e657220697320746865207a65726f206160008201527f6464726573730000000000000000000000000000000000000000000000000000602082015250565b6000620003cb6026836200035c565b9150620003d8826200036d565b604082019050919050565b60006020820190508181036000830152620003fe81620003bc565b9050919050565b7f4f776e61626c653a2063616c6c6572206973206e6f7420746865206f776e6572600082015250565b60006200043d6020836200035c565b91506200044a8262000405565b602082019050919050565b6000602082019050818103600083015262000470816200042e565b9050919050565b610f6f80620004876000396000f3fe608060405234801561001057600080fd5b50600436106100625760003560e01c8063715018a6146100675780638da5cb5b14610071578063d79a82401461008f578063ddfdfbb0146100c1578063f2fde38b146100dd578063fc411683146100f9575b600080fd5b61006f610115565b005b610079610129565b6040516100869190610891565b60405180910390f35b6100a960048036038101906100a49190610951565b610152565b6040516100b8939291906109e3565b60405180910390f35b6100db60048036038101906100d69190610a1a565b61032e565b005b6100f760048036038101906100f29190610a67565b61066f565b005b610113600480360381019061010e9190610a67565b6106f2565b005b61011d610706565b6101276000610784565b565b60008060009054906101000a900473ffffffffffffffffffffffffffffffffffffffff16905090565b60008060008085858101906101679190610ac0565b90506000600160008973ffffffffffffffffffffffffffffffffffffffff1673ffffffffffffffffffffffffffffffffffffffff1681526020019081526020016000205490508082106101e6576040517f87332c0100000000000000000000000000000000000000000000000000000000815260040160405180910390fd5b6000600260008a73ffffffffffffffffffffffffffffffffffffffff1673ffffffffffffffffffffffffffffffffffffffff1681526020019081526020016000206000848152602001908152602001600020604051806060016040529081600082015481526020016001820160009054906101000a90046fffffffffffffffffffffffffffffffff166fffffffffffffffffffffffffffffffff166fffffffffffffffffffffffffffffffff1681526020016001820160109054906101000a90046fffffffffffffffffffffffffffffffff166fffffffffffffffffffffffffffffffff166fffffffffffffffffffffffffffffffff16815250509050806000015181602001518260400151816fffffffffffffffffffffffffffffffff169150806fffffffffffffffffffffffffffffffff16905095509550955050505093509350939050565b610336610706565b60008083838101906103489190610c94565b9150915080604001516fffffffffffffffffffffffffffffffff1681602001516fffffffffffffffffffffffffffffffff1611156103b2576040517f123974fd00000000000000000000000000000000000000000000000000000000815260040160405180910390fd5b6000600160008473ffffffffffffffffffffffffffffffffffffffff1673ffffffffffffffffffffffffffffffffffffffff1681526020019081526020016000205490506000811461048b576001600260008573ffffffffffffffffffffffffffffffffffffffff1673ffffffffffffffffffffffffffffffffffffffff168152602001908152602001600020600060018461044e9190610d03565b815260200190815260200160002060010160109054906101000a90046fffffffffffffffffffffffffffffffff166104869190610d37565b61048e565b60005b6fffffffffffffffffffffffffffffffff1682602001516fffffffffffffffffffffffffffffffff16146104ee576040517f118b891b00000000000000000000000000000000000000000000000000000000815260040160405180910390fd5b81600260008573ffffffffffffffffffffffffffffffffffffffff1673ffffffffffffffffffffffffffffffffffffffff16815260200190815260200160002060008381526020019081526020016000206000820151816000015560208201518160010160006101000a8154816fffffffffffffffffffffffffffffffff02191690836fffffffffffffffffffffffffffffffff16021790555060408201518160010160106101000a8154816fffffffffffffffffffffffffffffffff02191690836fffffffffffffffffffffffffffffffff1602179055509050506001816105d79190610d7b565b600160008573ffffffffffffffffffffffffffffffffffffffff1673ffffffffffffffffffffffffffffffffffffffff168152602001908152602001600020819055508273ffffffffffffffffffffffffffffffffffffffff167fb71880d7a0c514d48c0296b2721b0a4f9641a45117960f2ca86b5b7873c4ab2f836040516106609190610e0f565b60405180910390a25050505050565b610677610706565b600073ffffffffffffffffffffffffffffffffffffffff168173ffffffffffffffffffffffffffffffffffffffff16036106e6576040517f08c379a00000000000000000000000000000000000000000000000000000000081526004016106dd90610ead565b60405180910390fd5b6106ef81610784565b50565b6106fa610706565b6107038161066f565b50565b61070e610848565b73ffffffffffffffffffffffffffffffffffffffff1661072c610129565b73ffffffffffffffffffffffffffffffffffffffff1614610782576040517f08c379a000000000000000000000000000000000000000000000000000000000815260040161077990610f19565b60405180910390fd5b565b60008060009054906101000a900473ffffffffffffffffffffffffffffffffffffffff169050816000806101000a81548173ffffffffffffffffffffffffffffffffffffffff021916908373ffffffffffffffffffffffffffffffffffffffff1602179055508173ffffffffffffffffffffffffffffffffffffffff168173ffffffffffffffffffffffffffffffffffffffff167f8be0079c531659141344cd1fd0a4f28419497f9722a3daafe3b4186f6b6457e060405160405180910390a35050565b600033905090565b600073ffffffffffffffffffffffffffffffffffffffff82169050919050565b600061087b82610850565b9050919050565b61088b81610870565b82525050565b60006020820190506108a66000830184610882565b92915050565b6000604051905090565b600080fd5b600080fd5b6108c981610870565b81146108d457600080fd5b50565b6000813590506108e6816108c0565b92915050565b600080fd5b600080fd5b600080fd5b60008083601f840112610911576109106108ec565b5b8235905067ffffffffffffffff81111561092e5761092d6108f1565b5b60208301915083600182028301111561094a576109496108f6565b5b9250929050565b60008060006040848603121561096a576109696108b6565b5b6000610978868287016108d7565b935050602084013567ffffffffffffffff811115610999576109986108bb565b5b6109a5868287016108fb565b92509250509250925092565b6000819050919050565b6109c4816109b1565b82525050565b6000819050919050565b6109dd816109ca565b82525050565b60006060820190506109f860008301866109bb565b610a0560208301856109d4565b610a1260408301846109d4565b949350505050565b60008060208385031215610a3157610a306108b6565b5b600083013567ffffffffffffffff811115610a4f57610a4e6108bb565b5b610a5b858286016108fb565b92509250509250929050565b600060208284031215610a7d57610a7c6108b6565b5b6000610a8b848285016108d7565b91505092915050565b610a9d816109ca565b8114610aa857600080fd5b50565b600081359050610aba81610a94565b92915050565b600060208284031215610ad657610ad56108b6565b5b6000610ae484828501610aab565b91505092915050565b6000610af882610850565b9050919050565b610b0881610aed565b8114610b1357600080fd5b50565b600081359050610b2581610aff565b92915050565b600080fd5b6000601f19601f8301169050919050565b7f4e487b7100000000000000000000000000000000000000000000000000000000600052604160045260246000fd5b610b7982610b30565b810181811067ffffffffffffffff82111715610b9857610b97610b41565b5b80604052505050565b6000610bab6108ac565b9050610bb78282610b70565b919050565b610bc5816109b1565b8114610bd057600080fd5b50565b600081359050610be281610bbc565b92915050565b60006fffffffffffffffffffffffffffffffff82169050919050565b610c0d81610be8565b8114610c1857600080fd5b50565b600081359050610c2a81610c04565b92915050565b600060608284031215610c4657610c45610b2b565b5b610c506060610ba1565b90506000610c6084828501610bd3565b6000830152506020610c7484828501610c1b565b6020830152506040610c8884828501610c1b565b60408301525092915050565b60008060808385031215610cab57610caa6108b6565b5b6000610cb985828601610b16565b9250506020610cca85828601610c30565b9150509250929050565b7f4e487b7100000000000000000000000000000000000000000000000000000000600052601160045260246000fd5b6000610d0e826109ca565b9150610d19836109ca565b9250828203905081811115610d3157610d30610cd4565b5b92915050565b6000610d4282610be8565b9150610d4d83610be8565b925082820190506fffffffffffffffffffffffffffffffff811115610d7557610d74610cd4565b5b92915050565b6000610d86826109ca565b9150610d91836109ca565b9250828201905080821115610da957610da8610cd4565b5b92915050565b610db8816109b1565b82525050565b610dc781610be8565b82525050565b606082016000820151610de36000850182610daf565b506020820151610df66020850182610dbe565b506040820151610e096040850182610dbe565b50505050565b6000606082019050610e246000830184610dcd565b92915050565b600082825260208201905092915050565b7f4f776e61626c653a206e6577206f776e657220697320746865207a65726f206160008201527f6464726573730000000000000000000000000000000000000000000000000000602082015250565b6000610e97602683610e2a565b9150610ea282610e3b565b604082019050919050565b60006020820190508181036000830152610ec681610e8a565b9050919050565b7f4f776e61626c653a2063616c6c6572206973206e6f7420746865206f776e6572600082015250565b6000610f03602083610e2a565b9150610f0e82610ecd565b602082019050919050565b60006020820190508181036000830152610f3281610ef6565b905091905056fea2646970667358221220daac46135698179a60376d66ab5483c8649983a4e859bbc1c36f1cb3a0a197d064736f6c63430008140033a2646970667358221220a739f3195eb048da8a65bbdeb4ede0e9fe43a68c418898f1008786949d99d91964736f6c63430008140033",
  "devdoc": {
    "events": {
      "AuthorityCreated(address)": {
        "details": "MUST be triggered on a successful call to `newAuthority`.",
        "params": {
          "authority": "The authority"
        }
      }
    },
    "kind": "dev",
    "methods": {
      "calculateAuthorityAddress(address,bytes32)": {
        "details": "Beware that only the `newAuthority` function with the `_salt` parameter      is able to deterministically deploy an authority.",
        "params": {
          "_authorityOwner": "The initial authority owner",
          "_salt": "The salt used to deterministically generate the authority address"
        },
        "returns": {
          "_0": "The deterministic authority address"
        }
      },
      "newAuthority()": {
        "details": "On success, MUST emit an `AuthorityCreated` event.",
        "returns": {
          "_0": "The authority"
        }
      },
      "newAuthority(address)": {
        "details": "On success, MUST emit an `AuthorityCreated` event.",
        "params": {
          "_authorityOwner": "The initial authority owner"
        },
        "returns": {
          "_0": "The authority"
        }
      },
      "newAuthority(address,bytes32)": {
        "details": "On success, MUST emit an `AuthorityCreated` event.",
        "params": {
          "_authorityOwner": "The initial authority owner",
          "_salt": "The salt used to deterministically generate the authority address"
        },
        "returns": {
          "_0": "The authority"
        }
      },
      "newAuthority(bytes32)": {
        "details": "On success, MUST emit an `AuthorityCreated` event.",
        "params": {
          "_salt": "The salt used to deterministically generate the authority address"
        },
        "returns": {
          "_0": "The authority"
        }
      }
    },
    "title": "Authority-History Pair Factory",
    "version": 1
  },
  "userdoc": {
    "events": {
      "AuthorityCreated(address)": {
        "notice": "A new authority was deployed."
      }
    },
    "kind": "user",
    "methods": {
      "calculateAuthorityAddress(address,bytes32)": {
        "notice": "Calculate the address of an authority to be deployed deterministically."
      },
      "newAuthority()": {
        "notice": "Deploy a new authority."
      },
      "newAuthority(address)": {
        "notice": "Deploy a new authority."
      },
      "newAuthority(address,bytes32)": {
        "notice": "Deploy a new authority deterministically."
      },
      "newAuthority(bytes32)": {
        "notice": "Deploy a new authority deterministically."
      }
    },
    "notice": "Allows anyone to reliably deploy a new Authority-History pair.",
    "version": 1
  },
  "storageLayout": {
    "storage": [],
    "types": null
  }
}