{
  "address": "0x3450e47CcDbcaA57A93BC3E3d6D94E928Fb0B668",
  "abi": [
    {
      "inputs": [
        {
          "internalType": "contract ICartesiDAppFactory",
          "name": "_factory",
          "type": "address"
        }
      ],
      "stateMutability": "nonpayable",
      "type": "constructor"
    },
    {
      "anonymous": false,
      "inputs": [
        {
          "indexed": false,
          "internalType": "uint256",
          "name": "chainid",
          "type": "uint256"
        },
        {
          "indexed": false,
          "internalType": "address",
          "name": "dapp",
          "type": "address"
        },
        {
          "indexed": false,
          "internalType": "string",
          "name": "location",
          "type": "string"
        }
      ],
      "name": "MachineLocation",
      "type": "event"
    },
    {
      "inputs": [
        {
          "internalType": "contract IConsensus",
          "name": "_consensus",
          "type": "address"
        },
        {
          "internalType": "address",
          "name": "_dappOwner",
          "type": "address"
        },
        {
          "internalType": "bytes32",
          "name": "_templateHash",
          "type": "bytes32"
        },
        {
          "internalType": "string",
          "name": "_cid",
          "type": "string"
        }
      ],
      "name": "newApplication",
      "outputs": [
        {
          "internalType": "contract CartesiDApp",
          "name": "",
          "type": "address"
        }
      ],
      "stateMutability": "nonpayable",
      "type": "function"
    }
  ],
  "transactionHash": "0x1ddeca74bf58644d4d4aae012701d06d26983c795254ea360fe7e516a4ab16c1",
  "args": [
    "0x7122cd1221C20892234186facfE8615e6743Ab02"
  ],
  "numDeployments": 1,
  "solcInputHash": "10837a4c101a5daacb5f95564f85b717",
  "bytecode": "0x60a060405234801561001057600080fd5b506040516107ae3803806107ae833981810160405281019061003291906100e1565b8073ffffffffffffffffffffffffffffffffffffffff1660808173ffffffffffffffffffffffffffffffffffffffff16815250505061010e565b600080fd5b600073ffffffffffffffffffffffffffffffffffffffff82169050919050565b600061009c82610071565b9050919050565b60006100ae82610091565b9050919050565b6100be816100a3565b81146100c957600080fd5b50565b6000815190506100db816100b5565b92915050565b6000602082840312156100f7576100f661006c565b5b6000610105848285016100cc565b91505092915050565b6080516106866101286000396000606501526106866000f3fe608060405234801561001057600080fd5b506004361061002b5760003560e01c8063ac05d74e14610030575b600080fd5b61004a60048036038101906100459190610378565b610060565b604051610057919061045a565b60405180910390f35b6000807f000000000000000000000000000000000000000000000000000000000000000073ffffffffffffffffffffffffffffffffffffffff16633648bfb58787876040518463ffffffff1660e01b81526004016100c0939291906104c6565b6020604051808303816000875af11580156100df573d6000803e3d6000fd5b505050506040513d601f19601f82011682018060405250810190610103919061054d565b90507f7e7d1c2db5b65d67543d3346f37185a99c65f772c390e848ec106b061561a10146828560405161013893929190610612565b60405180910390a180915050949350505050565b6000604051905090565b600080fd5b600080fd5b600073ffffffffffffffffffffffffffffffffffffffff82169050919050565b600061018b82610160565b9050919050565b600061019d82610180565b9050919050565b6101ad81610192565b81146101b857600080fd5b50565b6000813590506101ca816101a4565b92915050565b6101d981610180565b81146101e457600080fd5b50565b6000813590506101f6816101d0565b92915050565b6000819050919050565b61020f816101fc565b811461021a57600080fd5b50565b60008135905061022c81610206565b92915050565b600080fd5b600080fd5b6000601f19601f8301169050919050565b7f4e487b7100000000000000000000000000000000000000000000000000000000600052604160045260246000fd5b6102858261023c565b810181811067ffffffffffffffff821117156102a4576102a361024d565b5b80604052505050565b60006102b761014c565b90506102c3828261027c565b919050565b600067ffffffffffffffff8211156102e3576102e261024d565b5b6102ec8261023c565b9050602081019050919050565b82818337600083830152505050565b600061031b610316846102c8565b6102ad565b90508281526020810184848401111561033757610336610237565b5b6103428482856102f9565b509392505050565b600082601f83011261035f5761035e610232565b5b813561036f848260208601610308565b91505092915050565b6000806000806080858703121561039257610391610156565b5b60006103a0878288016101bb565b94505060206103b1878288016101e7565b93505060406103c28782880161021d565b925050606085013567ffffffffffffffff8111156103e3576103e261015b565b5b6103ef8782880161034a565b91505092959194509250565b6000819050919050565b600061042061041b61041684610160565b6103fb565b610160565b9050919050565b600061043282610405565b9050919050565b600061044482610427565b9050919050565b61045481610439565b82525050565b600060208201905061046f600083018461044b565b92915050565b600061048082610405565b9050919050565b600061049282610475565b9050919050565b6104a281610487565b82525050565b6104b181610180565b82525050565b6104c0816101fc565b82525050565b60006060820190506104db6000830186610499565b6104e860208301856104a8565b6104f560408301846104b7565b949350505050565b600061050882610160565b9050919050565b600061051a826104fd565b9050919050565b61052a8161050f565b811461053557600080fd5b50565b60008151905061054781610521565b92915050565b60006020828403121561056357610562610156565b5b600061057184828501610538565b91505092915050565b6000819050919050565b61058d8161057a565b82525050565b600081519050919050565b600082825260208201905092915050565b60005b838110156105cd5780820151818401526020810190506105b2565b60008484015250505050565b60006105e482610593565b6105ee818561059e565b93506105fe8185602086016105af565b6106078161023c565b840191505092915050565b60006060820190506106276000830186610584565b61063460208301856104a8565b818103604083015261064681846105d9565b905094935050505056fea2646970667358221220caa9fde4c5fa3a5194af36ad866e79e2b98572f75578bdb371b3eca62710e68c64736f6c63430008140033",
  "devdoc": {
    "events": {
      "MachineLocation(uint256,address,string)": {
        "details": "This event signals the association of an onchain deployed Cartesi DApp to the offchain location of the snapshot of the Cartesi machine corresponding to the template hash stored onchain. The format or protocol of the location field is not enforced onchain and can follow any format, like a URL or an IPFS CID. The dapp can be deployed on a different network than the one this event is emitted on.",
        "params": {
          "chainid": "The chainid of the network the dapp is deployed",
          "dapp": "The dapp address",
          "location": "The storage location of the cartesi machine snapshot"
        }
      }
    },
    "kind": "dev",
    "methods": {
      "newApplication(address,address,bytes32,string)": {
        "details": "This function delegates the construction of the dapp to a ICartesiDAppFactory, and emits an event with the IPFS CID of the snapshot of the corresponding machine. There is no validation onchain that the machine stored at IPFS matches the specified templateHash. This information will only be verified offchain when the dapp node start executing",
        "params": {
          "_cid": "The IPFS CID of the cartesi machine snapshot",
          "_consensus": "The consensus to which the DApp should be subscribed",
          "_dappOwner": "The address that should own the DApp",
          "_templateHash": "The hash of the initial state of the Cartesi Machine"
        },
        "returns": {
          "_0": "The application"
        }
      }
    },
    "version": 1
  },
  "userdoc": {
    "events": {
      "MachineLocation(uint256,address,string)": {
        "notice": "Signals the association of a dapp to its offchain Cartesi Machine"
      }
    },
    "kind": "user",
    "methods": {
      "newApplication(address,address,bytes32,string)": {
        "notice": "Instantiate a new dapp, including the IPFS CID information for the cartesi machine snapshot"
      }
    },
    "version": 1
  },
  "storageLayout": {
    "storage": [],
    "types": null
  }
}