{
  "address": "0x594a9B4F024D7E5D119C53af3283593dc031b6b4",
  "abi": [
    {
      "inputs": [
        {
          "internalType": "contract ICartesiDAppFactory",
          "name": "_factory",
          "type": "address"
        }
      ],
      "stateMutability": "nonpayable",
      "type": "constructor"
    },
    {
      "anonymous": false,
      "inputs": [
        {
          "indexed": false,
          "internalType": "uint256",
          "name": "chainid",
          "type": "uint256"
        },
        {
          "indexed": false,
          "internalType": "address",
          "name": "dapp",
          "type": "address"
        },
        {
          "indexed": false,
          "internalType": "uint256",
          "name": "until",
          "type": "uint256"
        }
      ],
      "name": "FinancialRunway",
      "type": "event"
    },
    {
      "anonymous": false,
      "inputs": [
        {
          "indexed": false,
          "internalType": "uint256",
          "name": "chainid",
          "type": "uint256"
        },
        {
          "indexed": false,
          "internalType": "address",
          "name": "dapp",
          "type": "address"
        },
        {
          "indexed": false,
          "internalType": "string",
          "name": "location",
          "type": "string"
        }
      ],
      "name": "MachineLocation",
      "type": "event"
    },
    {
      "anonymous": false,
      "inputs": [
        {
          "indexed": true,
          "internalType": "bytes32",
          "name": "role",
          "type": "bytes32"
        },
        {
          "indexed": true,
          "internalType": "bytes32",
          "name": "previousAdminRole",
          "type": "bytes32"
        },
        {
          "indexed": true,
          "internalType": "bytes32",
          "name": "newAdminRole",
          "type": "bytes32"
        }
      ],
      "name": "RoleAdminChanged",
      "type": "event"
    },
    {
      "anonymous": false,
      "inputs": [
        {
          "indexed": true,
          "internalType": "bytes32",
          "name": "role",
          "type": "bytes32"
        },
        {
          "indexed": true,
          "internalType": "address",
          "name": "account",
          "type": "address"
        },
        {
          "indexed": true,
          "internalType": "address",
          "name": "sender",
          "type": "address"
        }
      ],
      "name": "RoleGranted",
      "type": "event"
    },
    {
      "anonymous": false,
      "inputs": [
        {
          "indexed": true,
          "internalType": "bytes32",
          "name": "role",
          "type": "bytes32"
        },
        {
          "indexed": true,
          "internalType": "address",
          "name": "account",
          "type": "address"
        },
        {
          "indexed": true,
          "internalType": "address",
          "name": "sender",
          "type": "address"
        }
      ],
      "name": "RoleRevoked",
      "type": "event"
    },
    {
      "inputs": [],
      "name": "CONTROLLER_ROLE",
      "outputs": [
        {
          "internalType": "bytes32",
          "name": "",
          "type": "bytes32"
        }
      ],
      "stateMutability": "view",
      "type": "function"
    },
    {
      "inputs": [],
      "name": "DEFAULT_ADMIN_ROLE",
      "outputs": [
        {
          "internalType": "bytes32",
          "name": "",
          "type": "bytes32"
        }
      ],
      "stateMutability": "view",
      "type": "function"
    },
    {
      "inputs": [
        {
          "internalType": "bytes32",
          "name": "role",
          "type": "bytes32"
        }
      ],
      "name": "getRoleAdmin",
      "outputs": [
        {
          "internalType": "bytes32",
          "name": "",
          "type": "bytes32"
        }
      ],
      "stateMutability": "view",
      "type": "function"
    },
    {
      "inputs": [
        {
          "internalType": "bytes32",
          "name": "role",
          "type": "bytes32"
        },
        {
          "internalType": "address",
          "name": "account",
          "type": "address"
        }
      ],
      "name": "grantRole",
      "outputs": [],
      "stateMutability": "nonpayable",
      "type": "function"
    },
    {
      "inputs": [
        {
          "internalType": "bytes32",
          "name": "role",
          "type": "bytes32"
        },
        {
          "internalType": "address",
          "name": "account",
          "type": "address"
        }
      ],
      "name": "hasRole",
      "outputs": [
        {
          "internalType": "bool",
          "name": "",
          "type": "bool"
        }
      ],
      "stateMutability": "view",
      "type": "function"
    },
    {
      "inputs": [
        {
          "internalType": "contract IConsensus",
          "name": "_consensus",
          "type": "address"
        },
        {
          "internalType": "address",
          "name": "_dappOwner",
          "type": "address"
        },
        {
          "internalType": "bytes32",
          "name": "_templateHash",
          "type": "bytes32"
        },
        {
          "internalType": "string",
          "name": "_cid",
          "type": "string"
        }
      ],
      "name": "newApplication",
      "outputs": [
        {
          "internalType": "contract CartesiDApp",
          "name": "",
          "type": "address"
        }
      ],
      "stateMutability": "nonpayable",
      "type": "function"
    },
    {
      "inputs": [
        {
          "internalType": "bytes32",
          "name": "role",
          "type": "bytes32"
        },
        {
          "internalType": "address",
          "name": "account",
          "type": "address"
        }
      ],
      "name": "renounceRole",
      "outputs": [],
      "stateMutability": "nonpayable",
      "type": "function"
    },
    {
      "inputs": [
        {
          "internalType": "bytes32",
          "name": "role",
          "type": "bytes32"
        },
        {
          "internalType": "address",
          "name": "account",
          "type": "address"
        }
      ],
      "name": "revokeRole",
      "outputs": [],
      "stateMutability": "nonpayable",
      "type": "function"
    },
    {
      "inputs": [
        {
          "internalType": "address",
          "name": "_dapp",
          "type": "address"
        }
      ],
      "name": "start",
      "outputs": [],
      "stateMutability": "nonpayable",
      "type": "function"
    },
    {
      "inputs": [
        {
          "internalType": "address",
          "name": "_dapp",
          "type": "address"
        }
      ],
      "name": "stop",
      "outputs": [],
      "stateMutability": "nonpayable",
      "type": "function"
    },
    {
      "inputs": [
        {
          "internalType": "bytes4",
          "name": "interfaceId",
          "type": "bytes4"
        }
      ],
      "name": "supportsInterface",
      "outputs": [
        {
          "internalType": "bool",
          "name": "",
          "type": "bool"
        }
      ],
      "stateMutability": "view",
      "type": "function"
    }
  ],
  "transactionHash": "0x8ec3c1041dca57e4cdf963a9871b6d74f117eea5dd1d5d0a82bae52af4ffe673",
  "args": [
    "0x7122cd1221C20892234186facfE8615e6743Ab02"
  ],
  "numDeployments": 1,
  "solcInputHash": "10837a4c101a5daacb5f95564f85b717",
  "bytecode": "0x60a06040523480156200001157600080fd5b506040516200181d3803806200181d833981810160405281019062000037919062000287565b808073ffffffffffffffffffffffffffffffffffffffff1660808173ffffffffffffffffffffffffffffffffffffffff1681525050506200009f7f7b765e0e932d348852a6f810bfa1ab891e259123f02db8cdcde614c57022335733620000a660201b60201c565b50620002b9565b620000b882826200019760201b60201c565b6200019357600160008084815260200190815260200160002060000160008373ffffffffffffffffffffffffffffffffffffffff1673ffffffffffffffffffffffffffffffffffffffff16815260200190815260200160002060006101000a81548160ff021916908315150217905550620001386200020160201b60201c565b73ffffffffffffffffffffffffffffffffffffffff168173ffffffffffffffffffffffffffffffffffffffff16837f2f8788117e7eff1d82e926ec794901d17c78024a50270940304540a733656f0d60405160405180910390a45b5050565b600080600084815260200190815260200160002060000160008373ffffffffffffffffffffffffffffffffffffffff1673ffffffffffffffffffffffffffffffffffffffff16815260200190815260200160002060009054906101000a900460ff16905092915050565b600033905090565b600080fd5b600073ffffffffffffffffffffffffffffffffffffffff82169050919050565b60006200023b826200020e565b9050919050565b60006200024f826200022e565b9050919050565b620002618162000242565b81146200026d57600080fd5b50565b600081519050620002818162000256565b92915050565b600060208284031215620002a0576200029f62000209565b5b6000620002b08482850162000270565b91505092915050565b608051611548620002d5600039600061047601526115486000f3fe608060405234801561001057600080fd5b50600436106100a95760003560e01c8063656cb0bc11610071578063656cb0bc1461016457806391d1485414610180578063a217fddf146101b0578063ac05d74e146101ce578063d547741f146101fe578063dd0b281e1461021a576100a9565b806301ffc9a7146100ae578063092c5b3b146100de578063248a9ca3146100fc5780632f2ff15d1461012c57806336568abe14610148575b600080fd5b6100c860048036038101906100c39190610ba8565b610236565b6040516100d59190610bf0565b60405180910390f35b6100e66102b0565b6040516100f39190610c24565b60405180910390f35b61011660048036038101906101119190610c6b565b6102d4565b6040516101239190610c24565b60405180910390f35b61014660048036038101906101419190610cf6565b6102f3565b005b610162600480360381019061015d9190610cf6565b610314565b005b61017e60048036038101906101799190610d36565b610397565b005b61019a60048036038101906101959190610cf6565b610400565b6040516101a79190610bf0565b60405180910390f35b6101b861046a565b6040516101c59190610c24565b60405180910390f35b6101e860048036038101906101e39190610ee7565b610471565b6040516101f59190610fc9565b60405180910390f35b61021860048036038101906102139190610cf6565b61055d565b005b610234600480360381019061022f9190610d36565b61057e565b005b60007f7965db0b000000000000000000000000000000000000000000000000000000007bffffffffffffffffffffffffffffffffffffffffffffffffffffffff1916827bffffffffffffffffffffffffffffffffffffffffffffffffffffffff191614806102a957506102a882610607565b5b9050919050565b7f7b765e0e932d348852a6f810bfa1ab891e259123f02db8cdcde614c57022335781565b6000806000838152602001908152602001600020600101549050919050565b6102fc826102d4565b61030581610671565b61030f8383610685565b505050565b61031c610765565b73ffffffffffffffffffffffffffffffffffffffff168173ffffffffffffffffffffffffffffffffffffffff1614610389576040517f08c379a000000000000000000000000000000000000000000000000000000000815260040161038090611067565b60405180910390fd5b610393828261076d565b5050565b7f7b765e0e932d348852a6f810bfa1ab891e259123f02db8cdcde614c5702233576103c181610671565b7f2278f65217b2a95d05d7afbb41d6e9185fb14c5d1ec40970c2d181dfa271b19f4683426040516103f4939291906110af565b60405180910390a15050565b600080600084815260200190815260200160002060000160008373ffffffffffffffffffffffffffffffffffffffff1673ffffffffffffffffffffffffffffffffffffffff16815260200190815260200160002060009054906101000a900460ff16905092915050565b6000801b81565b6000807f000000000000000000000000000000000000000000000000000000000000000073ffffffffffffffffffffffffffffffffffffffff16633648bfb58787876040518463ffffffff1660e01b81526004016104d193929190611119565b6020604051808303816000875af11580156104f0573d6000803e3d6000fd5b505050506040513d601f19601f8201168201806040525081019061051491906111a0565b90507f7e7d1c2db5b65d67543d3346f37185a99c65f772c390e848ec106b061561a1014682856040516105499392919061123b565b60405180910390a180915050949350505050565b610566826102d4565b61056f81610671565b610579838361076d565b505050565b7f7b765e0e932d348852a6f810bfa1ab891e259123f02db8cdcde614c5702233576105a881610671565b7f2278f65217b2a95d05d7afbb41d6e9185fb14c5d1ec40970c2d181dfa271b19f46837fffffffffffffffffffffffffffffffffffffffffffffffffffffffffffffffff6040516105fb939291906110af565b60405180910390a15050565b60007f01ffc9a7000000000000000000000000000000000000000000000000000000007bffffffffffffffffffffffffffffffffffffffffffffffffffffffff1916827bffffffffffffffffffffffffffffffffffffffffffffffffffffffff1916149050919050565b6106828161067d610765565b61084e565b50565b61068f8282610400565b61076157600160008084815260200190815260200160002060000160008373ffffffffffffffffffffffffffffffffffffffff1673ffffffffffffffffffffffffffffffffffffffff16815260200190815260200160002060006101000a81548160ff021916908315150217905550610706610765565b73ffffffffffffffffffffffffffffffffffffffff168173ffffffffffffffffffffffffffffffffffffffff16837f2f8788117e7eff1d82e926ec794901d17c78024a50270940304540a733656f0d60405160405180910390a45b5050565b600033905090565b6107778282610400565b1561084a57600080600084815260200190815260200160002060000160008373ffffffffffffffffffffffffffffffffffffffff1673ffffffffffffffffffffffffffffffffffffffff16815260200190815260200160002060006101000a81548160ff0219169083151502179055506107ef610765565b73ffffffffffffffffffffffffffffffffffffffff168173ffffffffffffffffffffffffffffffffffffffff16837ff6391f5c32d9c69d2a47ea670b442974b53935d1edc7fd64eb21e047a839171b60405160405180910390a45b5050565b6108588282610400565b6108cf57610865816108d3565b6108738360001c6020610900565b60405160200161088492919061134d565b6040516020818303038152906040526040517f08c379a00000000000000000000000000000000000000000000000000000000081526004016108c69190611387565b60405180910390fd5b5050565b60606108f98273ffffffffffffffffffffffffffffffffffffffff16601460ff16610900565b9050919050565b60606000600283600261091391906113d8565b61091d919061141a565b67ffffffffffffffff81111561093657610935610dbc565b5b6040519080825280601f01601f1916602001820160405280156109685781602001600182028036833780820191505090505b5090507f3000000000000000000000000000000000000000000000000000000000000000816000815181106109a05761099f61144e565b5b60200101907effffffffffffffffffffffffffffffffffffffffffffffffffffffffffffff1916908160001a9053507f780000000000000000000000000000000000000000000000000000000000000081600181518110610a0457610a0361144e565b5b60200101907effffffffffffffffffffffffffffffffffffffffffffffffffffffffffffff1916908160001a90535060006001846002610a4491906113d8565b610a4e919061141a565b90505b6001811115610aee577f3031323334353637383961626364656600000000000000000000000000000000600f861660108110610a9057610a8f61144e565b5b1a60f81b828281518110610aa757610aa661144e565b5b60200101907effffffffffffffffffffffffffffffffffffffffffffffffffffffffffffff1916908160001a905350600485901c945080610ae79061147d565b9050610a51565b5060008414610b32576040517f08c379a0000000000000000000000000000000000000000000000000000000008152600401610b29906114f2565b60405180910390fd5b8091505092915050565b6000604051905090565b600080fd5b600080fd5b60007fffffffff0000000000000000000000000000000000000000000000000000000082169050919050565b610b8581610b50565b8114610b9057600080fd5b50565b600081359050610ba281610b7c565b92915050565b600060208284031215610bbe57610bbd610b46565b5b6000610bcc84828501610b93565b91505092915050565b60008115159050919050565b610bea81610bd5565b82525050565b6000602082019050610c056000830184610be1565b92915050565b6000819050919050565b610c1e81610c0b565b82525050565b6000602082019050610c396000830184610c15565b92915050565b610c4881610c0b565b8114610c5357600080fd5b50565b600081359050610c6581610c3f565b92915050565b600060208284031215610c8157610c80610b46565b5b6000610c8f84828501610c56565b91505092915050565b600073ffffffffffffffffffffffffffffffffffffffff82169050919050565b6000610cc382610c98565b9050919050565b610cd381610cb8565b8114610cde57600080fd5b50565b600081359050610cf081610cca565b92915050565b60008060408385031215610d0d57610d0c610b46565b5b6000610d1b85828601610c56565b9250506020610d2c85828601610ce1565b9150509250929050565b600060208284031215610d4c57610d4b610b46565b5b6000610d5a84828501610ce1565b91505092915050565b6000610d6e82610cb8565b9050919050565b610d7e81610d63565b8114610d8957600080fd5b50565b600081359050610d9b81610d75565b92915050565b600080fd5b600080fd5b6000601f19601f8301169050919050565b7f4e487b7100000000000000000000000000000000000000000000000000000000600052604160045260246000fd5b610df482610dab565b810181811067ffffffffffffffff82111715610e1357610e12610dbc565b5b80604052505050565b6000610e26610b3c565b9050610e328282610deb565b919050565b600067ffffffffffffffff821115610e5257610e51610dbc565b5b610e5b82610dab565b9050602081019050919050565b82818337600083830152505050565b6000610e8a610e8584610e37565b610e1c565b905082815260208101848484011115610ea657610ea5610da6565b5b610eb1848285610e68565b509392505050565b600082601f830112610ece57610ecd610da1565b5b8135610ede848260208601610e77565b91505092915050565b60008060008060808587031215610f0157610f00610b46565b5b6000610f0f87828801610d8c565b9450506020610f2087828801610ce1565b9350506040610f3187828801610c56565b925050606085013567ffffffffffffffff811115610f5257610f51610b4b565b5b610f5e87828801610eb9565b91505092959194509250565b6000819050919050565b6000610f8f610f8a610f8584610c98565b610f6a565b610c98565b9050919050565b6000610fa182610f74565b9050919050565b6000610fb382610f96565b9050919050565b610fc381610fa8565b82525050565b6000602082019050610fde6000830184610fba565b92915050565b600082825260208201905092915050565b7f416363657373436f6e74726f6c3a2063616e206f6e6c792072656e6f756e636560008201527f20726f6c657320666f722073656c660000000000000000000000000000000000602082015250565b6000611051602f83610fe4565b915061105c82610ff5565b604082019050919050565b6000602082019050818103600083015261108081611044565b9050919050565b6000819050919050565b61109a81611087565b82525050565b6110a981610cb8565b82525050565b60006060820190506110c46000830186611091565b6110d160208301856110a0565b6110de6040830184611091565b949350505050565b60006110f182610f74565b9050919050565b6000611103826110e6565b9050919050565b611113816110f8565b82525050565b600060608201905061112e600083018661110a565b61113b60208301856110a0565b6111486040830184610c15565b949350505050565b600061115b82610c98565b9050919050565b600061116d82611150565b9050919050565b61117d81611162565b811461118857600080fd5b50565b60008151905061119a81611174565b92915050565b6000602082840312156111b6576111b5610b46565b5b60006111c48482850161118b565b91505092915050565b600081519050919050565b60005b838110156111f65780820151818401526020810190506111db565b60008484015250505050565b600061120d826111cd565b6112178185610fe4565b93506112278185602086016111d8565b61123081610dab565b840191505092915050565b60006060820190506112506000830186611091565b61125d60208301856110a0565b818103604083015261126f8184611202565b9050949350505050565b600081905092915050565b7f416363657373436f6e74726f6c3a206163636f756e7420000000000000000000600082015250565b60006112ba601783611279565b91506112c582611284565b601782019050919050565b60006112db826111cd565b6112e58185611279565b93506112f58185602086016111d8565b80840191505092915050565b7f206973206d697373696e6720726f6c6520000000000000000000000000000000600082015250565b6000611337601183611279565b915061134282611301565b601182019050919050565b6000611358826112ad565b915061136482856112d0565b915061136f8261132a565b915061137b82846112d0565b91508190509392505050565b600060208201905081810360008301526113a18184611202565b905092915050565b7f4e487b7100000000000000000000000000000000000000000000000000000000600052601160045260246000fd5b60006113e382611087565b91506113ee83611087565b92508282026113fc81611087565b91508282048414831517611413576114126113a9565b5b5092915050565b600061142582611087565b915061143083611087565b9250828201905080821115611448576114476113a9565b5b92915050565b7f4e487b7100000000000000000000000000000000000000000000000000000000600052603260045260246000fd5b600061148882611087565b91506000820361149b5761149a6113a9565b5b600182039050919050565b7f537472696e67733a20686578206c656e67746820696e73756666696369656e74600082015250565b60006114dc602083610fe4565b91506114e7826114a6565b602082019050919050565b6000602082019050818103600083015261150b816114cf565b905091905056fea2646970667358221220dd27470c936bf89779fddf35bf72084eb8343e3c203057ec73faf2bc20e6745b64736f6c63430008140033",
  "devdoc": {
    "details": "This can be used for test scenarios, where you can manuall start and stop the validator by sending a transaction.",
    "events": {
      "FinancialRunway(uint256,address,uint256)": {
        "details": "This event signals until when the validator node for the dapp should be running. The offchain implementation which controls the execution of validator nodes is free to choose which implementation contracts they will rely on for this information. The dapp can be deployed on a different network than the one this event is emitted on.",
        "params": {
          "chainid": "The chainid of the network the dapp is deployed",
          "dapp": "The dapp address",
          "until": "The point in time when the dapp will run out of funds (seconds since epoch)"
        }
      },
      "MachineLocation(uint256,address,string)": {
        "details": "This event signals the association of an onchain deployed Cartesi DApp to the offchain location of the snapshot of the Cartesi machine corresponding to the template hash stored onchain. The format or protocol of the location field is not enforced onchain and can follow any format, like a URL or an IPFS CID. The dapp can be deployed on a different network than the one this event is emitted on.",
        "params": {
          "chainid": "The chainid of the network the dapp is deployed",
          "dapp": "The dapp address",
          "location": "The storage location of the cartesi machine snapshot"
        }
      },
      "RoleAdminChanged(bytes32,bytes32,bytes32)": {
        "details": "Emitted when `newAdminRole` is set as ``role``'s admin role, replacing `previousAdminRole` `DEFAULT_ADMIN_ROLE` is the starting admin for all roles, despite {RoleAdminChanged} not being emitted signaling this. _Available since v3.1._"
      },
      "RoleGranted(bytes32,address,address)": {
        "details": "Emitted when `account` is granted `role`. `sender` is the account that originated the contract call, an admin role bearer except when using {AccessControl-_setupRole}."
      },
      "RoleRevoked(bytes32,address,address)": {
        "details": "Emitted when `account` is revoked `role`. `sender` is the account that originated the contract call:   - if using `revokeRole`, it is the admin role bearer   - if using `renounceRole`, it is the role bearer (i.e. `account`)"
      }
    },
    "kind": "dev",
    "methods": {
      "getRoleAdmin(bytes32)": {
        "details": "Returns the admin role that controls `role`. See {grantRole} and {revokeRole}. To change a role's admin, use {_setRoleAdmin}."
      },
      "grantRole(bytes32,address)": {
        "details": "Grants `role` to `account`. If `account` had not been already granted `role`, emits a {RoleGranted} event. Requirements: - the caller must have ``role``'s admin role. May emit a {RoleGranted} event."
      },
      "hasRole(bytes32,address)": {
        "details": "Returns `true` if `account` has been granted `role`."
      },
      "newApplication(address,address,bytes32,string)": {
        "details": "This function delegates the construction of the dapp to a ICartesiDAppFactory, and emits an event with the IPFS CID of the snapshot of the corresponding machine. There is no validation onchain that the machine stored at IPFS matches the specified templateHash. This information will only be verified offchain when the dapp node start executing",
        "params": {
          "_cid": "The IPFS CID of the cartesi machine snapshot",
          "_consensus": "The consensus to which the DApp should be subscribed",
          "_dappOwner": "The address that should own the DApp",
          "_templateHash": "The hash of the initial state of the Cartesi Machine"
        },
        "returns": {
          "_0": "The application"
        }
      },
      "renounceRole(bytes32,address)": {
        "details": "Revokes `role` from the calling account. Roles are often managed via {grantRole} and {revokeRole}: this function's purpose is to provide a mechanism for accounts to lose their privileges if they are compromised (such as when a trusted device is misplaced). If the calling account had been revoked `role`, emits a {RoleRevoked} event. Requirements: - the caller must be `account`. May emit a {RoleRevoked} event."
      },
      "revokeRole(bytes32,address)": {
        "details": "Revokes `role` from `account`. If `account` had been granted `role`, emits a {RoleRevoked} event. Requirements: - the caller must have ``role``'s admin role. May emit a {RoleRevoked} event."
      },
      "supportsInterface(bytes4)": {
        "details": "See {IERC165-supportsInterface}."
      }
    },
    "version": 1
  },
  "userdoc": {
    "events": {
      "FinancialRunway(uint256,address,uint256)": {
        "notice": "Signals until when a dapp has enough funds to be validated"
      },
      "MachineLocation(uint256,address,string)": {
        "notice": "Signals the association of a dapp to its offchain Cartesi Machine"
      }
    },
    "kind": "user",
    "methods": {
      "CONTROLLER_ROLE()": {
        "notice": "Create a new role identifier for the controller role, they can start/stop dapps"
      },
      "newApplication(address,address,bytes32,string)": {
        "notice": "Instantiate a new dapp, including the IPFS CID information for the cartesi machine snapshot"
      }
    },
    "notice": "This dapp factory implements the IFinancialProtocol with total control over the execution of the validator.",
    "version": 1
  },
  "storageLayout": {
    "storage": [
      {
        "astId": 2695,
        "contract": "contracts/deploy/ControlledDAppFactory.sol:ControlledDAppFactory",
        "label": "_roles",
        "offset": 0,
        "slot": "0",
        "type": "t_mapping(t_bytes32,t_struct(RoleData)2690_storage)"
      }
    ],
    "types": {
      "t_address": {
        "encoding": "inplace",
        "label": "address",
        "numberOfBytes": "20"
      },
      "t_bool": {
        "encoding": "inplace",
        "label": "bool",
        "numberOfBytes": "1"
      },
      "t_bytes32": {
        "encoding": "inplace",
        "label": "bytes32",
        "numberOfBytes": "32"
      },
      "t_mapping(t_address,t_bool)": {
        "encoding": "mapping",
        "key": "t_address",
        "label": "mapping(address => bool)",
        "numberOfBytes": "32",
        "value": "t_bool"
      },
      "t_mapping(t_bytes32,t_struct(RoleData)2690_storage)": {
        "encoding": "mapping",
        "key": "t_bytes32",
        "label": "mapping(bytes32 => struct AccessControl.RoleData)",
        "numberOfBytes": "32",
        "value": "t_struct(RoleData)2690_storage"
      },
      "t_struct(RoleData)2690_storage": {
        "encoding": "inplace",
        "label": "struct AccessControl.RoleData",
        "members": [
          {
            "astId": 2687,
            "contract": "contracts/deploy/ControlledDAppFactory.sol:ControlledDAppFactory",
            "label": "members",
            "offset": 0,
            "slot": "0",
            "type": "t_mapping(t_address,t_bool)"
          },
          {
            "astId": 2689,
            "contract": "contracts/deploy/ControlledDAppFactory.sol:ControlledDAppFactory",
            "label": "adminRole",
            "offset": 0,
            "slot": "1",
            "type": "t_bytes32"
          }
        ],
        "numberOfBytes": "64"
      }
    }
  }
}