{
  "address": "0x666881026AD77F8c77A3aEc0e22B555B3E9462dB",
  "abi": [
    {
      "inputs": [
        {
          "internalType": "contract ICartesiIPFSDAppFactory",
          "name": "_factory",
          "type": "address"
        }
      ],
      "stateMutability": "nonpayable",
      "type": "constructor"
    },
    {
      "anonymous": false,
      "inputs": [
        {
          "indexed": false,
          "internalType": "contract ERC20DAppFactory",
          "name": "factory",
          "type": "address"
        },
        {
          "indexed": false,
          "internalType": "contract IERC20",
          "name": "token",
          "type": "address"
        }
      ],
      "name": "ERC20DAppFactoryCreated",
      "type": "event"
    },
    {
      "inputs": [],
      "name": "factory",
      "outputs": [
        {
          "internalType": "contract ICartesiIPFSDAppFactory",
          "name": "",
          "type": "address"
        }
      ],
      "stateMutability": "view",
      "type": "function"
    },
    {
      "inputs": [
        {
          "internalType": "contract IERC20",
          "name": "_token",
          "type": "address"
        }
      ],
      "name": "newERC20DAppFactory",
      "outputs": [
        {
          "internalType": "contract ERC20DAppFactory",
          "name": "",
          "type": "address"
        }
      ],
      "stateMutability": "nonpayable",
      "type": "function"
    }
  ],
  "transactionHash": "0xec54e3139851716595734d81880b90d43c582eb73b323927fe54e1f219554fc0",
  "args": [
    "0x3450e47CcDbcaA57A93BC3E3d6D94E928Fb0B668"
  ],
  "numDeployments": 1,
  "solcInputHash": "10837a4c101a5daacb5f95564f85b717",
  "bytecode": "0x60a060405234801561001057600080fd5b5060405161343a38038061343a833981810160405281019061003291906100e1565b8073ffffffffffffffffffffffffffffffffffffffff1660808173ffffffffffffffffffffffffffffffffffffffff16815250505061010e565b600080fd5b600073ffffffffffffffffffffffffffffffffffffffff82169050919050565b600061009c82610071565b9050919050565b60006100ae82610091565b9050919050565b6100be816100a3565b81146100c957600080fd5b50565b6000815190506100db816100b5565b92915050565b6000602082840312156100f7576100f661006c565b5b6000610105848285016100cc565b91505092915050565b60805161330c61012e60003960008181608b015260b2015261330c6000f3fe608060405234801561001057600080fd5b50600436106100365760003560e01c8063c45a01551461003b578063c8c746ce14610059575b600080fd5b610043610089565b60405161005091906101d6565b60405180910390f35b610073600480360381019061006e9190610246565b6100ad565b6040516100809190610294565b60405180910390f35b7f000000000000000000000000000000000000000000000000000000000000000081565b6000807f0000000000000000000000000000000000000000000000000000000000000000836040516100de9061014a565b6100e99291906102d0565b604051809103906000f080158015610105573d6000803e3d6000fd5b5090507f5377c11cc1f04abd38d7e354b69bb3e8b029362b35bc99749087f0d6700e64a681846040516101399291906102f9565b60405180910390a180915050919050565b612fb48061032383390190565b600073ffffffffffffffffffffffffffffffffffffffff82169050919050565b6000819050919050565b600061019c61019761019284610157565b610177565b610157565b9050919050565b60006101ae82610181565b9050919050565b60006101c0826101a3565b9050919050565b6101d0816101b5565b82525050565b60006020820190506101eb60008301846101c7565b92915050565b600080fd5b600061020182610157565b9050919050565b6000610213826101f6565b9050919050565b61022381610208565b811461022e57600080fd5b50565b6000813590506102408161021a565b92915050565b60006020828403121561025c5761025b6101f1565b5b600061026a84828501610231565b91505092915050565b600061027e826101a3565b9050919050565b61028e81610273565b82525050565b60006020820190506102a96000830184610285565b92915050565b60006102ba826101a3565b9050919050565b6102ca816102af565b82525050565b60006040820190506102e560008301856101c7565b6102f260208301846102c1565b9392505050565b600060408201905061030e6000830185610285565b61031b60208301846102c1565b939250505056fe60c06040523480156200001157600080fd5b5060405162002fb438038062002fb48339818101604052810190620000379190620001b0565b8173ffffffffffffffffffffffffffffffffffffffff1660808173ffffffffffffffffffffffffffffffffffffffff1681525050806040516200007a90620000df565b62000086919062000262565b604051809103906000f080158015620000a3573d6000803e3d6000fd5b5073ffffffffffffffffffffffffffffffffffffffff1660a08173ffffffffffffffffffffffffffffffffffffffff168152505050506200027f565b61241a8062000b9a83390190565b600080fd5b600073ffffffffffffffffffffffffffffffffffffffff82169050919050565b60006200011f82620000f2565b9050919050565b6000620001338262000112565b9050919050565b620001458162000126565b81146200015157600080fd5b50565b60008151905062000165816200013a565b92915050565b6000620001788262000112565b9050919050565b6200018a816200016b565b81146200019657600080fd5b50565b600081519050620001aa816200017f565b92915050565b60008060408385031215620001ca57620001c9620000ed565b5b6000620001da8582860162000154565b9250506020620001ed8582860162000199565b9150509250929050565b6000819050919050565b6000620002226200021c6200021684620000f2565b620001f7565b620000f2565b9050919050565b6000620002368262000201565b9050919050565b60006200024a8262000229565b9050919050565b6200025c816200023d565b82525050565b600060208201905062000279600083018462000251565b92915050565b60805160a0516108e8620002b26000396000818161015b015261026301526000818160b7015261028701526108e86000f3fe608060405234801561001057600080fd5b50600436106100415760003560e01c80632f091468146100465780633596f3d614610076578063c45a015514610094575b600080fd5b610060600480360381019061005b919061051d565b6100b2565b60405161006d9190610625565b60405180910390f35b61007e610261565b60405161008b9190610673565b60405180910390f35b61009c610285565b6040516100a991906106af565b60405180910390f35b6000807f000000000000000000000000000000000000000000000000000000000000000073ffffffffffffffffffffffffffffffffffffffff1663ac05d74e893089896040518563ffffffff1660e01b81526004016101149493929190610788565b6020604051808303816000875af1158015610133573d6000803e3d6000fd5b505050506040513d601f19601f820116820180604052508101906101579190610824565b90507f000000000000000000000000000000000000000000000000000000000000000073ffffffffffffffffffffffffffffffffffffffff1663f0e087ed8286866040518463ffffffff1660e01b81526004016101b693929190610860565b600060405180830381600087803b1580156101d057600080fd5b505af11580156101e4573d6000803e3d6000fd5b505050508073ffffffffffffffffffffffffffffffffffffffff1663f2fde38b886040518263ffffffff1660e01b81526004016102219190610897565b600060405180830381600087803b15801561023b57600080fd5b505af115801561024f573d6000803e3d6000fd5b50505050809150509695505050505050565b7f000000000000000000000000000000000000000000000000000000000000000081565b7f000000000000000000000000000000000000000000000000000000000000000081565b6000604051905090565b600080fd5b600080fd5b600073ffffffffffffffffffffffffffffffffffffffff82169050919050565b60006102e8826102bd565b9050919050565b60006102fa826102dd565b9050919050565b61030a816102ef565b811461031557600080fd5b50565b60008135905061032781610301565b92915050565b610336816102dd565b811461034157600080fd5b50565b6000813590506103538161032d565b92915050565b6000819050919050565b61036c81610359565b811461037757600080fd5b50565b60008135905061038981610363565b92915050565b600080fd5b600080fd5b6000601f19601f8301169050919050565b7f4e487b7100000000000000000000000000000000000000000000000000000000600052604160045260246000fd5b6103e282610399565b810181811067ffffffffffffffff82111715610401576104006103aa565b5b80604052505050565b60006104146102a9565b905061042082826103d9565b919050565b600067ffffffffffffffff8211156104405761043f6103aa565b5b61044982610399565b9050602081019050919050565b82818337600083830152505050565b600061047861047384610425565b61040a565b90508281526020810184848401111561049457610493610394565b5b61049f848285610456565b509392505050565b600082601f8301126104bc576104bb61038f565b5b81356104cc848260208601610465565b91505092915050565b60006fffffffffffffffffffffffffffffffff82169050919050565b6104fa816104d5565b811461050557600080fd5b50565b600081359050610517816104f1565b92915050565b60008060008060008060c0878903121561053a576105396102b3565b5b600061054889828a01610318565b965050602061055989828a01610344565b955050604061056a89828a0161037a565b945050606087013567ffffffffffffffff81111561058b5761058a6102b8565b5b61059789828a016104a7565b93505060806105a889828a01610508565b92505060a06105b989828a01610508565b9150509295509295509295565b6000819050919050565b60006105eb6105e66105e1846102bd565b6105c6565b6102bd565b9050919050565b60006105fd826105d0565b9050919050565b600061060f826105f2565b9050919050565b61061f81610604565b82525050565b600060208201905061063a6000830184610616565b92915050565b600061064b826105d0565b9050919050565b600061065d82610640565b9050919050565b61066d81610652565b82525050565b60006020820190506106886000830184610664565b92915050565b600061069982610640565b9050919050565b6106a98161068e565b82525050565b60006020820190506106c460008301846106a0565b92915050565b60006106d582610640565b9050919050565b6106e5816106ca565b82525050565b6106f4816102dd565b82525050565b61070381610359565b82525050565b600081519050919050565b600082825260208201905092915050565b60005b83811015610743578082015181840152602081019050610728565b60008484015250505050565b600061075a82610709565b6107648185610714565b9350610774818560208601610725565b61077d81610399565b840191505092915050565b600060808201905061079d60008301876106dc565b6107aa60208301866106eb565b6107b760408301856106fa565b81810360608301526107c9818461074f565b905095945050505050565b60006107df826102bd565b9050919050565b60006107f1826107d4565b9050919050565b610801816107e6565b811461080c57600080fd5b50565b60008151905061081e816107f8565b92915050565b60006020828403121561083a576108396102b3565b5b60006108488482850161080f565b91505092915050565b61085a816104d5565b82525050565b60006060820190506108756000830186610616565b6108826020830185610851565b61088f6040830184610851565b949350505050565b60006020820190506108ac60008301846106eb565b9291505056fea2646970667358221220648c1d8bc555c4ba746400695aa7ef78d800727f7290bf388929d0408149482c64736f6c6343000814003360a06040523480156200001157600080fd5b506040516200241a3803806200241a8339818101604052810190620000379190620000f0565b8073ffffffffffffffffffffffffffffffffffffffff1660808173ffffffffffffffffffffffffffffffffffffffff16815250505062000122565b600080fd5b600073ffffffffffffffffffffffffffffffffffffffff82169050919050565b6000620000a48262000077565b9050919050565b6000620000b88262000097565b9050919050565b620000ca81620000ab565b8114620000d657600080fd5b50565b600081519050620000ea81620000bf565b92915050565b60006020828403121562000109576200010862000072565b5b60006200011984828501620000d9565b91505092915050565b6080516122c06200015a600039600081816104970152818161075d01528181610b0c01528181610f14015261125c01526122c06000f3fe608060405234801561001057600080fd5b50600436106100cf5760003560e01c80638494cef91161008c578063de3fa3b811610066578063de3fa3b814610234578063e155887614610250578063f0e087ed14610280578063fc0c546a1461029c576100cf565b80638494cef9146101e05780639eb48800146101fc578063c6d13dd614610218576100cf565b80632a31e2bb146100d45780633e2b9e16146101045780634a179fe41461013457806351b256e214610164578063578a4d7a1461019457806366c8ec9b146101b0575b600080fd5b6100ee60048036038101906100e991906117da565b6102ba565b6040516100fb919061182e565b60405180910390f35b61011e600480360381019061011991906117da565b61031d565b60405161012b9190611864565b60405180910390f35b61014e600480360381019061014991906117da565b610398565b60405161015b91906118de565b60405180910390f35b61017e60048036038101906101799190611949565b610403565b60405161018b919061198f565b60405180910390f35b6101ae60048036038101906101a991906119f2565b61044c565b005b6101ca60048036038101906101c591906117da565b61061b565b6040516101d79190611a41565b60405180910390f35b6101fa60048036038101906101f59190611ac1565b610682565b005b610216600480360381019061021191906117da565b61083e565b005b610232600480360381019061022d91906119f2565b610896565b005b61024e600480360381019061024991906119f2565b610bee565b005b61026a600480360381019061026591906117da565b610d79565b6040516102779190611a41565b60405180910390f35b61029a60048036038101906102959190611b21565b610de0565b005b6102a461125a565b6040516102b19190611b95565b60405180910390f35b60008060008373ffffffffffffffffffffffffffffffffffffffff1673ffffffffffffffffffffffffffffffffffffffff16815260200190815260200160002060010160009054906101000a90046bffffffffffffffffffffffff169050919050565b6000806000808473ffffffffffffffffffffffffffffffffffffffff1673ffffffffffffffffffffffffffffffffffffffff16815260200190815260200160002060000160109054906101000a90046fffffffffffffffffffffffffffffffff166fffffffffffffffffffffffffffffffff16119050919050565b60008060008373ffffffffffffffffffffffffffffffffffffffff1673ffffffffffffffffffffffffffffffffffffffff168152602001908152602001600020600101600c9054906101000a900473ffffffffffffffffffffffffffffffffffffffff169050919050565b6000600160008373ffffffffffffffffffffffffffffffffffffffff1673ffffffffffffffffffffffffffffffffffffffff168152602001908152602001600020549050919050565b816104568161031d565b610495576040517f08c379a000000000000000000000000000000000000000000000000000000000815260040161048c90611c0d565b60405180910390fd5b7f000000000000000000000000000000000000000000000000000000000000000073ffffffffffffffffffffffffffffffffffffffff166323b872dd3330856040518463ffffffff1660e01b81526004016104f293929190611c6d565b6020604051808303816000875af1158015610511573d6000803e3d6000fd5b505050506040513d601f19601f820116820180604052508101906105359190611cd0565b610574576040517f08c379a000000000000000000000000000000000000000000000000000000000815260040161056b90611d49565b60405180910390fd5b816000808573ffffffffffffffffffffffffffffffffffffffff1673ffffffffffffffffffffffffffffffffffffffff16815260200190815260200160002060000160008282829054906101000a90046fffffffffffffffffffffffffffffffff166105e09190611d98565b92506101000a8154816fffffffffffffffffffffffffffffffff02191690836fffffffffffffffffffffffffffffffff160217905550505050565b60008060008373ffffffffffffffffffffffffffffffffffffffff1673ffffffffffffffffffffffffffffffffffffffff16815260200190815260200160002060000160009054906101000a90046fffffffffffffffffffffffffffffffff169050919050565b60005b838390508110156106d1576106c08484838181106106a6576106a5611ddc565b5b90506020020160208101906106bb91906117da565b61083e565b806106ca90611e0b565b9050610685565b506000600160008373ffffffffffffffffffffffffffffffffffffffff1673ffffffffffffffffffffffffffffffffffffffff1681526020019081526020016000205490506000600160008473ffffffffffffffffffffffffffffffffffffffff1673ffffffffffffffffffffffffffffffffffffffff168152602001908152602001600020819055507f000000000000000000000000000000000000000000000000000000000000000073ffffffffffffffffffffffffffffffffffffffff1663a9059cbb83836040518363ffffffff1660e01b81526004016107b6929190611e53565b6020604051808303816000875af11580156107d5573d6000803e3d6000fd5b505050506040513d601f19601f820116820180604052508101906107f99190611cd0565b610838576040517f08c379a000000000000000000000000000000000000000000000000000000000815260040161082f90611d49565b60405180910390fd5b50505050565b806108488161031d565b610887576040517f08c379a000000000000000000000000000000000000000000000000000000000815260040161087e90611c0d565b60405180910390fd5b61089282600061127e565b5050565b816108a08161031d565b6108df576040517f08c379a00000000000000000000000000000000000000000000000000000000081526004016108d690611c0d565b60405180910390fd5b828073ffffffffffffffffffffffffffffffffffffffff16638da5cb5b6040518163ffffffff1660e01b8152600401602060405180830381865afa15801561092b573d6000803e3d6000fd5b505050506040513d601f19601f8201168201806040525081019061094f9190611ea8565b73ffffffffffffffffffffffffffffffffffffffff163373ffffffffffffffffffffffffffffffffffffffff16146109bc576040517f08c379a00000000000000000000000000000000000000000000000000000000081526004016109b390611f21565b60405180910390fd5b6109c784600061127e565b60008060008673ffffffffffffffffffffffffffffffffffffffff1673ffffffffffffffffffffffffffffffffffffffff16815260200190815260200160002060000160009054906101000a90046fffffffffffffffffffffffffffffffff169050836fffffffffffffffffffffffffffffffff16816fffffffffffffffffffffffffffffffff161015610a90576040517f08c379a0000000000000000000000000000000000000000000000000000000008152600401610a8790611f8d565b60405180910390fd5b8381036000808773ffffffffffffffffffffffffffffffffffffffff1673ffffffffffffffffffffffffffffffffffffffff16815260200190815260200160002060000160006101000a8154816fffffffffffffffffffffffffffffffff02191690836fffffffffffffffffffffffffffffffff1602179055507f000000000000000000000000000000000000000000000000000000000000000073ffffffffffffffffffffffffffffffffffffffff1663a9059cbb33866040518363ffffffff1660e01b8152600401610b65929190611fad565b6020604051808303816000875af1158015610b84573d6000803e3d6000fd5b505050506040513d601f19601f82011682018060405250810190610ba89190611cd0565b610be7576040517f08c379a0000000000000000000000000000000000000000000000000000000008152600401610bde90611d49565b60405180910390fd5b5050505050565b81610bf88161031d565b610c37576040517f08c379a0000000000000000000000000000000000000000000000000000000008152600401610c2e90611c0d565b60405180910390fd5b828073ffffffffffffffffffffffffffffffffffffffff16638da5cb5b6040518163ffffffff1660e01b8152600401602060405180830381865afa158015610c83573d6000803e3d6000fd5b505050506040513d601f19601f82011682018060405250810190610ca79190611ea8565b73ffffffffffffffffffffffffffffffffffffffff163373ffffffffffffffffffffffffffffffffffffffff1614610d14576040517f08c379a0000000000000000000000000000000000000000000000000000000008152600401610d0b90611f21565b60405180910390fd5b6000836fffffffffffffffffffffffffffffffff1611610d69576040517f08c379a0000000000000000000000000000000000000000000000000000000008152600401610d6090612022565b60405180910390fd5b610d73848461127e565b50505050565b60008060008373ffffffffffffffffffffffffffffffffffffffff1673ffffffffffffffffffffffffffffffffffffffff16815260200190815260200160002060000160109054906101000a90046fffffffffffffffffffffffffffffffff169050919050565b828073ffffffffffffffffffffffffffffffffffffffff16638da5cb5b6040518163ffffffff1660e01b8152600401602060405180830381865afa158015610e2c573d6000803e3d6000fd5b505050506040513d601f19601f82011682018060405250810190610e509190611ea8565b73ffffffffffffffffffffffffffffffffffffffff163373ffffffffffffffffffffffffffffffffffffffff1614610ebd576040517f08c379a0000000000000000000000000000000000000000000000000000000008152600401610eb490611f21565b60405180910390fd5b6000836fffffffffffffffffffffffffffffffff1611610f12576040517f08c379a0000000000000000000000000000000000000000000000000000000008152600401610f0990612022565b60405180910390fd5b7f000000000000000000000000000000000000000000000000000000000000000073ffffffffffffffffffffffffffffffffffffffff166323b872dd3330856040518463ffffffff1660e01b8152600401610f6f93929190611c6d565b6020604051808303816000875af1158015610f8e573d6000803e3d6000fd5b505050506040513d601f19601f82011682018060405250810190610fb29190611cd0565b610ff1576040517f08c379a0000000000000000000000000000000000000000000000000000000008152600401610fe890611d49565b60405180910390fd5b60008473ffffffffffffffffffffffffffffffffffffffff1663179e740b6040518163ffffffff1660e01b8152600401602060405180830381865afa15801561103e573d6000803e3d6000fd5b505050506040513d601f19601f820116820180604052508101906110629190612057565b905061106d8561031d565b156110ad576040517f08c379a00000000000000000000000000000000000000000000000000000000081526004016110a4906120d0565b60405180910390fd5b6040518060800160405280846fffffffffffffffffffffffffffffffff168152602001856fffffffffffffffffffffffffffffffff168152602001426bffffffffffffffffffffffff1681526020018273ffffffffffffffffffffffffffffffffffffffff168152506000808773ffffffffffffffffffffffffffffffffffffffff1673ffffffffffffffffffffffffffffffffffffffff16815260200190815260200160002060008201518160000160006101000a8154816fffffffffffffffffffffffffffffffff02191690836fffffffffffffffffffffffffffffffff16021790555060208201518160000160106101000a8154816fffffffffffffffffffffffffffffffff02191690836fffffffffffffffffffffffffffffffff16021790555060408201518160010160006101000a8154816bffffffffffffffffffffffff02191690836bffffffffffffffffffffffff160217905550606082015181600101600c6101000a81548173ffffffffffffffffffffffffffffffffffffffff021916908373ffffffffffffffffffffffffffffffffffffffff1602179055509050505050505050565b7f000000000000000000000000000000000000000000000000000000000000000081565b60008273ffffffffffffffffffffffffffffffffffffffff1663179e740b6040518163ffffffff1660e01b8152600401602060405180830381865afa1580156112cb573d6000803e3d6000fd5b505050506040513d601f19601f820116820180604052508101906112ef9190612057565b905060008060008573ffffffffffffffffffffffffffffffffffffffff1673ffffffffffffffffffffffffffffffffffffffff1681526020019081526020016000206040518060800160405290816000820160009054906101000a90046fffffffffffffffffffffffffffffffff166fffffffffffffffffffffffffffffffff166fffffffffffffffffffffffffffffffff1681526020016000820160109054906101000a90046fffffffffffffffffffffffffffffffff166fffffffffffffffffffffffffffffffff166fffffffffffffffffffffffffffffffff1681526020016001820160009054906101000a90046bffffffffffffffffffffffff166bffffffffffffffffffffffff166bffffffffffffffffffffffff16815260200160018201600c9054906101000a900473ffffffffffffffffffffffffffffffffffffffff1673ffffffffffffffffffffffffffffffffffffffff1673ffffffffffffffffffffffffffffffffffffffff16815250509050600081604001514261147891906120f0565b9050600082602001516fffffffffffffffffffffffffffffffff16826bffffffffffffffffffffffff166114ac9190612130565b905082600001516fffffffffffffffffffffffffffffffff1681111561151557826020015183600001516114e091906121a1565b915082602001516fffffffffffffffffffffffffffffffff16826bffffffffffffffffffffffff166115129190612130565b90505b8060016000856060015173ffffffffffffffffffffffffffffffffffffffff1673ffffffffffffffffffffffffffffffffffffffff168152602001908152602001600020600082825461156891906121d2565b92505081905550604051806080016040528082856000015161158a9190612206565b6fffffffffffffffffffffffffffffffff1681526020016000876fffffffffffffffffffffffffffffffff16116115c55784602001516115c7565b865b6fffffffffffffffffffffffffffffffff1681526020018385604001516115ee919061224a565b6bffffffffffffffffffffffff1681526020018573ffffffffffffffffffffffffffffffffffffffff168152506000808873ffffffffffffffffffffffffffffffffffffffff1673ffffffffffffffffffffffffffffffffffffffff16815260200190815260200160002060008201518160000160006101000a8154816fffffffffffffffffffffffffffffffff02191690836fffffffffffffffffffffffffffffffff16021790555060208201518160000160106101000a8154816fffffffffffffffffffffffffffffffff02191690836fffffffffffffffffffffffffffffffff16021790555060408201518160010160006101000a8154816bffffffffffffffffffffffff02191690836bffffffffffffffffffffffff160217905550606082015181600101600c6101000a81548173ffffffffffffffffffffffffffffffffffffffff021916908373ffffffffffffffffffffffffffffffffffffffff160217905550905050505050505050565b600080fd5b600080fd5b600073ffffffffffffffffffffffffffffffffffffffff82169050919050565b60006117958261176a565b9050919050565b60006117a78261178a565b9050919050565b6117b78161179c565b81146117c257600080fd5b50565b6000813590506117d4816117ae565b92915050565b6000602082840312156117f0576117ef611760565b5b60006117fe848285016117c5565b91505092915050565b60006bffffffffffffffffffffffff82169050919050565b61182881611807565b82525050565b6000602082019050611843600083018461181f565b92915050565b60008115159050919050565b61185e81611849565b82525050565b60006020820190506118796000830184611855565b92915050565b6000819050919050565b60006118a461189f61189a8461176a565b61187f565b61176a565b9050919050565b60006118b682611889565b9050919050565b60006118c8826118ab565b9050919050565b6118d8816118bd565b82525050565b60006020820190506118f360008301846118cf565b92915050565b60006119048261176a565b9050919050565b6000611916826118f9565b9050919050565b6119268161190b565b811461193157600080fd5b50565b6000813590506119438161191d565b92915050565b60006020828403121561195f5761195e611760565b5b600061196d84828501611934565b91505092915050565b6000819050919050565b61198981611976565b82525050565b60006020820190506119a46000830184611980565b92915050565b60006fffffffffffffffffffffffffffffffff82169050919050565b6119cf816119aa565b81146119da57600080fd5b50565b6000813590506119ec816119c6565b92915050565b60008060408385031215611a0957611a08611760565b5b6000611a17858286016117c5565b9250506020611a28858286016119dd565b9150509250929050565b611a3b816119aa565b82525050565b6000602082019050611a566000830184611a32565b92915050565b600080fd5b600080fd5b600080fd5b60008083601f840112611a8157611a80611a5c565b5b8235905067ffffffffffffffff811115611a9e57611a9d611a61565b5b602083019150836020820283011115611aba57611ab9611a66565b5b9250929050565b600080600060408486031215611ada57611ad9611760565b5b600084013567ffffffffffffffff811115611af857611af7611765565b5b611b0486828701611a6b565b93509350506020611b1786828701611934565b9150509250925092565b600080600060608486031215611b3a57611b39611760565b5b6000611b48868287016117c5565b9350506020611b59868287016119dd565b9250506040611b6a868287016119dd565b9150509250925092565b6000611b7f826118ab565b9050919050565b611b8f81611b74565b82525050565b6000602082019050611baa6000830184611b86565b92915050565b600082825260208201905092915050565b7f4350533a20556e72656769737465726564204441707000000000000000000000600082015250565b6000611bf7601683611bb0565b9150611c0282611bc1565b602082019050919050565b60006020820190508181036000830152611c2681611bea565b9050919050565b611c36816118f9565b82525050565b6000611c57611c52611c4d846119aa565b61187f565b611976565b9050919050565b611c6781611c3c565b82525050565b6000606082019050611c826000830186611c2d565b611c8f6020830185611c2d565b611c9c6040830184611c5e565b949350505050565b611cad81611849565b8114611cb857600080fd5b50565b600081519050611cca81611ca4565b92915050565b600060208284031215611ce657611ce5611760565b5b6000611cf484828501611cbb565b91505092915050565b7f4350533a204661696c656420746f6b656e207472616e73666572000000000000600082015250565b6000611d33601a83611bb0565b9150611d3e82611cfd565b602082019050919050565b60006020820190508181036000830152611d6281611d26565b9050919050565b7f4e487b7100000000000000000000000000000000000000000000000000000000600052601160045260246000fd5b6000611da3826119aa565b9150611dae836119aa565b925082820190506fffffffffffffffffffffffffffffffff811115611dd657611dd5611d69565b5b92915050565b7f4e487b7100000000000000000000000000000000000000000000000000000000600052603260045260246000fd5b6000611e1682611976565b91507fffffffffffffffffffffffffffffffffffffffffffffffffffffffffffffffff8203611e4857611e47611d69565b5b600182019050919050565b6000604082019050611e686000830185611c2d565b611e756020830184611980565b9392505050565b611e85816118f9565b8114611e9057600080fd5b50565b600081519050611ea281611e7c565b92915050565b600060208284031215611ebe57611ebd611760565b5b6000611ecc84828501611e93565b91505092915050565b7f4350533a204e6f742044417070206f776e657200000000000000000000000000600082015250565b6000611f0b601383611bb0565b9150611f1682611ed5565b602082019050919050565b60006020820190508181036000830152611f3a81611efe565b9050919050565b7f4350533a204e6f7420656e6f7567682066756e64730000000000000000000000600082015250565b6000611f77601583611bb0565b9150611f8282611f41565b602082019050919050565b60006020820190508181036000830152611fa681611f6a565b9050919050565b6000604082019050611fc26000830185611c2d565b611fcf6020830184611c5e565b9392505050565b7f4350533a2053616c6172792063616e6e6f742062652030000000000000000000600082015250565b600061200c601783611bb0565b915061201782611fd6565b602082019050919050565b6000602082019050818103600083015261203b81611fff565b9050919050565b6000815190506120518161191d565b92915050565b60006020828403121561206d5761206c611760565b5b600061207b84828501612042565b91505092915050565b7f4350533a204441707020697320616c7265616479207265676973746572656400600082015250565b60006120ba601f83611bb0565b91506120c582612084565b602082019050919050565b600060208201905081810360008301526120e9816120ad565b9050919050565b60006120fb82611807565b915061210683611807565b925082820390506bffffffffffffffffffffffff81111561212a57612129611d69565b5b92915050565b600061213b82611976565b915061214683611976565b925082820261215481611976565b9150828204841483151761216b5761216a611d69565b5b5092915050565b7f4e487b7100000000000000000000000000000000000000000000000000000000600052601260045260246000fd5b60006121ac826119aa565b91506121b7836119aa565b9250826121c7576121c6612172565b5b828204905092915050565b60006121dd82611976565b91506121e883611976565b9250828201905080821115612200576121ff611d69565b5b92915050565b6000612211826119aa565b915061221c836119aa565b925082820390506fffffffffffffffffffffffffffffffff81111561224457612243611d69565b5b92915050565b600061225582611807565b915061226083611807565b925082820190506bffffffffffffffffffffffff81111561228457612283611d69565b5b9291505056fea2646970667358221220ceb0a879af1d88dd20eb49ce3321d9066f9ce1ba4d9d05ba842f3dcfe1768ce764736f6c63430008140033a2646970667358221220c72403802a8c80d03915963827887c5394598820e97b0e829f1471ad557c631464736f6c63430008140033",
  "devdoc": {
    "events": {
      "ERC20DAppFactoryCreated(address,address)": {
        "params": {
          "factory": "The address of the factory",
          "token": "The token used for billing"
        }
      }
    },
    "kind": "dev",
    "methods": {},
    "version": 1
  },
  "userdoc": {
    "events": {
      "ERC20DAppFactoryCreated(address,address)": {
        "notice": "A new factory was created"
      }
    },
    "kind": "user",
    "methods": {
      "newERC20DAppFactory(address)": {
        "notice": "Create a new ERC20 based DApp factory using the specified token"
      }
    },
    "notice": "Factory for creating new ERC20 based DApp factories",
    "version": 1
  },
  "storageLayout": {
    "storage": [],
    "types": null
  }
}