{
  "address": "0xEBc7b046e7781cCBF75A4Aa32A40eB3932c1813E",
  "abi": [
    {
      "inputs": [
        {
          "internalType": "contract ICartesiDAppFactory",
          "name": "_factory",
          "type": "address"
        }
      ],
      "stateMutability": "nonpayable",
      "type": "constructor"
    },
    {
      "anonymous": false,
      "inputs": [
        {
          "indexed": false,
          "internalType": "contract IPayableDAppFactory",
          "name": "factory",
          "type": "address"
        },
        {
          "indexed": false,
          "internalType": "contract IERC20",
          "name": "token",
          "type": "address"
        },
        {
          "indexed": false,
          "internalType": "contract IConsensus",
          "name": "consensus",
          "type": "address"
        },
        {
          "indexed": false,
          "internalType": "uint256",
          "name": "price",
          "type": "uint256"
        }
      ],
      "name": "PayableDAppFactoryCreated",
      "type": "event"
    },
    {
      "inputs": [],
      "name": "factory",
      "outputs": [
        {
          "internalType": "contract ICartesiDAppFactory",
          "name": "",
          "type": "address"
        }
      ],
      "stateMutability": "view",
      "type": "function"
    },
    {
      "inputs": [
        {
          "internalType": "contract IERC20",
          "name": "_token",
          "type": "address"
        },
        {
          "internalType": "contract IConsensus",
          "name": "_consensus",
          "type": "address"
        },
        {
          "internalType": "uint256",
          "name": "_price",
          "type": "uint256"
        }
      ],
      "name": "newPayableDAppFactory",
      "outputs": [
        {
          "internalType": "contract IPayableDAppFactory",
          "name": "",
          "type": "address"
        }
      ],
      "stateMutability": "nonpayable",
      "type": "function"
    }
  ],
  "transactionHash": "0x4614e59e57d985d50e080a4eda62a3a8d23d0283171abd227823cd0b6b350b37",
  "args": [
    "0x7122cd1221C20892234186facfE8615e6743Ab02"
  ],
  "numDeployments": 1,
  "solcInputHash": "b68a6f79a8f4ed7d5df26559072f7ead",
  "bytecode": "0x60a060405234801561001057600080fd5b506040516129cc3803806129cc833981810160405281019061003291906100e1565b8073ffffffffffffffffffffffffffffffffffffffff1660808173ffffffffffffffffffffffffffffffffffffffff16815250505061010e565b600080fd5b600073ffffffffffffffffffffffffffffffffffffffff82169050919050565b600061009c82610071565b9050919050565b60006100ae82610091565b9050919050565b6100be816100a3565b81146100c957600080fd5b50565b6000815190506100db816100b5565b92915050565b6000602082840312156100f7576100f661006c565b5b6000610105848285016100cc565b91505092915050565b60805161289d61012f60003960008181609d0152610149015261289d6000f3fe60806040523480156200001157600080fd5b50600436106200003a5760003560e01c80637838e044146200003f578063c45a01551462000075575b600080fd5b6200005d600480360381019062000057919062000277565b62000097565b6040516200006c91906200033e565b60405180910390f35b6200007f62000147565b6040516200008e919062000380565b60405180910390f35b600080337f0000000000000000000000000000000000000000000000000000000000000000868686604051620000cd906200016b565b620000dd95949392919062000409565b604051809103906000f080158015620000fa573d6000803e3d6000fd5b5090507fd0365dd7c6f281856990026d168712342a8ec934578778de189012b411b2413c818686866040516200013494939291906200048b565b60405180910390a1809150509392505050565b7f000000000000000000000000000000000000000000000000000000000000000081565b61238f80620004d983390190565b600080fd5b600073ffffffffffffffffffffffffffffffffffffffff82169050919050565b6000620001ab826200017e565b9050919050565b6000620001bf826200019e565b9050919050565b620001d181620001b2565b8114620001dd57600080fd5b50565b600081359050620001f181620001c6565b92915050565b600062000204826200019e565b9050919050565b6200021681620001f7565b81146200022257600080fd5b50565b60008135905062000236816200020b565b92915050565b6000819050919050565b62000251816200023c565b81146200025d57600080fd5b50565b600081359050620002718162000246565b92915050565b60008060006060848603121562000293576200029262000179565b5b6000620002a386828701620001e0565b9350506020620002b68682870162000225565b9250506040620002c98682870162000260565b9150509250925092565b6000819050919050565b6000620002fe620002f8620002f2846200017e565b620002d3565b6200017e565b9050919050565b60006200031282620002dd565b9050919050565b6000620003268262000305565b9050919050565b620003388162000319565b82525050565b60006020820190506200035560008301846200032d565b92915050565b6000620003688262000305565b9050919050565b6200037a816200035b565b82525050565b60006020820190506200039760008301846200036f565b92915050565b620003a8816200019e565b82525050565b6000620003bb8262000305565b9050919050565b620003cd81620003ae565b82525050565b6000620003e08262000305565b9050919050565b620003f281620003d3565b82525050565b62000403816200023c565b82525050565b600060a0820190506200042060008301886200039d565b6200042f60208301876200036f565b6200043e6040830186620003c2565b6200044d6060830185620003e7565b6200045c6080830184620003f8565b9695505050505050565b6000620004738262000305565b9050919050565b620004858162000466565b82525050565b6000608082019050620004a260008301876200047a565b620004b16020830186620003c2565b620004c06040830185620003e7565b620004cf6060830184620003f8565b9594505050505056fe6101006040523480156200001257600080fd5b506040516200238f3803806200238f8339818101604052810190620000389190620004c2565b620000586200004c6200013260201b60201c565b6200013a60201b60201c565b60008060146101000a81548160ff0219169083151502179055508373ffffffffffffffffffffffffffffffffffffffff1660808173ffffffffffffffffffffffffffffffffffffffff16815250508273ffffffffffffffffffffffffffffffffffffffff1660a08173ffffffffffffffffffffffffffffffffffffffff16815250508173ffffffffffffffffffffffffffffffffffffffff1660c08173ffffffffffffffffffffffffffffffffffffffff16815250508060e081815250506200012785620001fe60201b60201c565b505050505062000665565b600033905090565b60008060009054906101000a900473ffffffffffffffffffffffffffffffffffffffff169050816000806101000a81548173ffffffffffffffffffffffffffffffffffffffff021916908373ffffffffffffffffffffffffffffffffffffffff1602179055508173ffffffffffffffffffffffffffffffffffffffff168173ffffffffffffffffffffffffffffffffffffffff167f8be0079c531659141344cd1fd0a4f28419497f9722a3daafe3b4186f6b6457e060405160405180910390a35050565b6200020e6200029460201b60201c565b600073ffffffffffffffffffffffffffffffffffffffff168173ffffffffffffffffffffffffffffffffffffffff160362000280576040517f08c379a00000000000000000000000000000000000000000000000000000000081526004016200027790620005d1565b60405180910390fd5b62000291816200013a60201b60201c565b50565b620002a46200013260201b60201c565b73ffffffffffffffffffffffffffffffffffffffff16620002ca6200032560201b60201c565b73ffffffffffffffffffffffffffffffffffffffff161462000323576040517f08c379a00000000000000000000000000000000000000000000000000000000081526004016200031a9062000643565b60405180910390fd5b565b60008060009054906101000a900473ffffffffffffffffffffffffffffffffffffffff16905090565b600080fd5b600073ffffffffffffffffffffffffffffffffffffffff82169050919050565b6000620003808262000353565b9050919050565b620003928162000373565b81146200039e57600080fd5b50565b600081519050620003b28162000387565b92915050565b6000620003c58262000373565b9050919050565b620003d781620003b8565b8114620003e357600080fd5b50565b600081519050620003f781620003cc565b92915050565b60006200040a8262000373565b9050919050565b6200041c81620003fd565b81146200042857600080fd5b50565b6000815190506200043c8162000411565b92915050565b60006200044f8262000373565b9050919050565b620004618162000442565b81146200046d57600080fd5b50565b600081519050620004818162000456565b92915050565b6000819050919050565b6200049c8162000487565b8114620004a857600080fd5b50565b600081519050620004bc8162000491565b92915050565b600080600080600060a08688031215620004e157620004e06200034e565b5b6000620004f188828901620003a1565b95505060206200050488828901620003e6565b945050604062000517888289016200042b565b93505060606200052a8882890162000470565b92505060806200053d88828901620004ab565b9150509295509295909350565b600082825260208201905092915050565b7f4f776e61626c653a206e6577206f776e657220697320746865207a65726f206160008201527f6464726573730000000000000000000000000000000000000000000000000000602082015250565b6000620005b96026836200054a565b9150620005c6826200055b565b604082019050919050565b60006020820190508181036000830152620005ec81620005aa565b9050919050565b7f4f776e61626c653a2063616c6c6572206973206e6f7420746865206f776e6572600082015250565b60006200062b6020836200054a565b91506200063882620005f3565b602082019050919050565b600060208201905081810360008301526200065e816200061c565b9050919050565b60805160a05160c05160e051611cc6620006c9600039600081816108d601526109210152600081816105b001526108b00152600081816106a4015281816106e1015281816109ec0152610a6801526000818161057401526109450152611cc66000f3fe608060405234801561001057600080fd5b50600436106101005760003560e01c80638da5cb5b11610097578063a035b1fe11610066578063a035b1fe14610263578063c45a015514610281578063f2fde38b1461029f578063fc0c546a146102bb57610100565b80638da5cb5b146101c75780638ef3f761146101e55780639097548d1461020357806394a336251461023357610100565b80635c975abb116100d35780635c975abb14610165578063715018a614610183578063783d53ca1461018d5780638456cb59146101bd57610100565b80630d1177011461010557806319dbfa0e146101215780633ccfd60b146101515780633f4ba83a1461015b575b600080fd5b61011f600480360381019061011a91906110a1565b6102d9565b005b61013b60048036038101906101369190611184565b610566565b6040516101489190611266565b60405180910390f35b61015961069a565b005b61016361081a565b005b61016d61082c565b60405161017a919061129c565b60405180910390f35b61018b610842565b005b6101a760048036038101906101a291906112f5565b610856565b6040516101b49190611344565b60405180910390f35b6101c5610873565b005b6101cf610885565b6040516101dc919061136e565b60405180910390f35b6101ed6108ae565b6040516101fa91906113bc565b60405180910390f35b61021d600480360381019061021891906113d7565b6108d2565b60405161022a9190611344565b60405180910390f35b61024d60048036038101906102489190611404565b610907565b60405161025a9190611344565b60405180910390f35b61026b61091f565b6040516102789190611344565b60405180910390f35b610289610943565b6040516102969190611452565b60405180910390f35b6102b960048036038101906102b4919061146d565b610967565b005b6102c36109ea565b6040516102d091906114bb565b60405180910390f35b6102e1610a0e565b3073ffffffffffffffffffffffffffffffffffffffff16638ef3f7616040518163ffffffff1660e01b8152600401602060405180830381865afa15801561032c573d6000803e3d6000fd5b505050506040513d601f19601f820116820180604052508101906103509190611514565b73ffffffffffffffffffffffffffffffffffffffff168373ffffffffffffffffffffffffffffffffffffffff1663179e740b6040518163ffffffff1660e01b8152600401602060405180830381865afa1580156103b1573d6000803e3d6000fd5b505050506040513d601f19601f820116820180604052508101906103d59190611514565b73ffffffffffffffffffffffffffffffffffffffff161461042b576040517f08c379a0000000000000000000000000000000000000000000000000000000008152600401610422906115ea565b60405180910390fd5b3373ffffffffffffffffffffffffffffffffffffffff168373ffffffffffffffffffffffffffffffffffffffff16638da5cb5b6040518163ffffffff1660e01b8152600401602060405180830381865afa15801561048d573d6000803e3d6000fd5b505050506040513d601f19601f820116820180604052508101906104b1919061161f565b73ffffffffffffffffffffffffffffffffffffffff1614610507576040517f08c379a00000000000000000000000000000000000000000000000000000000081526004016104fe906116be565b60405180910390fd5b8273ffffffffffffffffffffffffffffffffffffffff167f22f244e839c97faca31341c9c2bb7a09f94a81fb309a36a85c8465bafeb69ffc8360405161054d919061174c565b60405180910390a2610560338483610a58565b50505050565b6000610570610a0e565b60007f000000000000000000000000000000000000000000000000000000000000000073ffffffffffffffffffffffffffffffffffffffff16633648bfb57f000000000000000000000000000000000000000000000000000000000000000088886040518463ffffffff1660e01b81526004016105ef9392919061177d565b6020604051808303816000875af115801561060e573d6000803e3d6000fd5b505050506040513d601f19601f8201168201806040525081019061063291906117c9565b90508073ffffffffffffffffffffffffffffffffffffffff167f22f244e839c97faca31341c9c2bb7a09f94a81fb309a36a85c8465bafeb69ffc8560405161067a919061174c565b60405180910390a261068d338285610a58565b5080915050949350505050565b6106a2610c49565b7f000000000000000000000000000000000000000000000000000000000000000073ffffffffffffffffffffffffffffffffffffffff1663a9059cbb337f000000000000000000000000000000000000000000000000000000000000000073ffffffffffffffffffffffffffffffffffffffff166370a08231306040518263ffffffff1660e01b8152600401610738919061136e565b602060405180830381865afa158015610755573d6000803e3d6000fd5b505050506040513d601f19601f82011682018060405250810190610779919061180b565b6040518363ffffffff1660e01b8152600401610796929190611838565b6020604051808303816000875af11580156107b5573d6000803e3d6000fd5b505050506040513d601f19601f820116820180604052508101906107d9919061188d565b610818576040517f08c379a000000000000000000000000000000000000000000000000000000000815260040161080f9061192c565b60405180910390fd5b565b610822610c49565b61082a610cc7565b565b60008060149054906101000a900460ff16905090565b61084a610c49565b6108546000610d29565b565b6000610860610a0e565b61086b338484610a58565b905092915050565b61087b610c49565b610883610ded565b565b60008060009054906101000a900473ffffffffffffffffffffffffffffffffffffffff16905090565b7f000000000000000000000000000000000000000000000000000000000000000081565b60007f000000000000000000000000000000000000000000000000000000000000000082610900919061197b565b9050919050565b60016020528060005260406000206000915090505481565b7f000000000000000000000000000000000000000000000000000000000000000081565b7f000000000000000000000000000000000000000000000000000000000000000081565b61096f610c49565b600073ffffffffffffffffffffffffffffffffffffffff168173ffffffffffffffffffffffffffffffffffffffff16036109de576040517f08c379a00000000000000000000000000000000000000000000000000000000081526004016109d590611a2f565b60405180910390fd5b6109e781610d29565b50565b7f000000000000000000000000000000000000000000000000000000000000000081565b610a1661082c565b15610a56576040517f08c379a0000000000000000000000000000000000000000000000000000000008152600401610a4d90611a9b565b60405180910390fd5b565b600080610a64836108d2565b90507f000000000000000000000000000000000000000000000000000000000000000073ffffffffffffffffffffffffffffffffffffffff166323b872dd8630846040518463ffffffff1660e01b8152600401610ac393929190611abb565b6020604051808303816000875af1158015610ae2573d6000803e3d6000fd5b505050506040513d601f19601f82011682018060405250810190610b06919061188d565b610b45576040517f08c379a0000000000000000000000000000000000000000000000000000000008152600401610b3c90611b64565b60405180910390fd5b6000600160008673ffffffffffffffffffffffffffffffffffffffff1673ffffffffffffffffffffffffffffffffffffffff168152602001908152602001600020549050428110610b965780610b98565b425b905060008482610ba89190611b84565b905080600160008873ffffffffffffffffffffffffffffffffffffffff1673ffffffffffffffffffffffffffffffffffffffff168152602001908152602001600020819055508573ffffffffffffffffffffffffffffffffffffffff167f206c488a3e590d91a82467a0072d112dfe901a99ae561b30c89ff2509fadde3582604051610c349190611344565b60405180910390a28093505050509392505050565b610c51610e50565b73ffffffffffffffffffffffffffffffffffffffff16610c6f610885565b73ffffffffffffffffffffffffffffffffffffffff1614610cc5576040517f08c379a0000000000000000000000000000000000000000000000000000000008152600401610cbc90611c04565b60405180910390fd5b565b610ccf610e58565b60008060146101000a81548160ff0219169083151502179055507f5db9ee0a495bf2e6ff9c91a7834c1ba4fdd244a5e8aa4e537bd38aeae4b073aa610d12610e50565b604051610d1f919061136e565b60405180910390a1565b60008060009054906101000a900473ffffffffffffffffffffffffffffffffffffffff169050816000806101000a81548173ffffffffffffffffffffffffffffffffffffffff021916908373ffffffffffffffffffffffffffffffffffffffff1602179055508173ffffffffffffffffffffffffffffffffffffffff168173ffffffffffffffffffffffffffffffffffffffff167f8be0079c531659141344cd1fd0a4f28419497f9722a3daafe3b4186f6b6457e060405160405180910390a35050565b610df5610a0e565b6001600060146101000a81548160ff0219169083151502179055507f62e78cea01bee320cd4e420270b5ea74000d11b0c9f74754ebdbfc544b05a258610e39610e50565b604051610e46919061136e565b60405180910390a1565b600033905090565b610e6061082c565b610e9f576040517f08c379a0000000000000000000000000000000000000000000000000000000008152600401610e9690611c70565b60405180910390fd5b565b6000604051905090565b600080fd5b600080fd5b600073ffffffffffffffffffffffffffffffffffffffff82169050919050565b6000610ee082610eb5565b9050919050565b6000610ef282610ed5565b9050919050565b610f0281610ee7565b8114610f0d57600080fd5b50565b600081359050610f1f81610ef9565b92915050565b600080fd5b600080fd5b6000601f19601f8301169050919050565b7f4e487b7100000000000000000000000000000000000000000000000000000000600052604160045260246000fd5b610f7882610f2f565b810181811067ffffffffffffffff82111715610f9757610f96610f40565b5b80604052505050565b6000610faa610ea1565b9050610fb68282610f6f565b919050565b600067ffffffffffffffff821115610fd657610fd5610f40565b5b610fdf82610f2f565b9050602081019050919050565b82818337600083830152505050565b600061100e61100984610fbb565b610fa0565b90508281526020810184848401111561102a57611029610f2a565b5b611035848285610fec565b509392505050565b600082601f83011261105257611051610f25565b5b8135611062848260208601610ffb565b91505092915050565b6000819050919050565b61107e8161106b565b811461108957600080fd5b50565b60008135905061109b81611075565b92915050565b6000806000606084860312156110ba576110b9610eab565b5b60006110c886828701610f10565b935050602084013567ffffffffffffffff8111156110e9576110e8610eb0565b5b6110f58682870161103d565b92505060406111068682870161108c565b9150509250925092565b600061111b82610eb5565b9050919050565b61112b81611110565b811461113657600080fd5b50565b60008135905061114881611122565b92915050565b6000819050919050565b6111618161114e565b811461116c57600080fd5b50565b60008135905061117e81611158565b92915050565b6000806000806080858703121561119e5761119d610eab565b5b60006111ac87828801611139565b94505060206111bd8782880161116f565b935050604085013567ffffffffffffffff8111156111de576111dd610eb0565b5b6111ea8782880161103d565b92505060606111fb8782880161108c565b91505092959194509250565b6000819050919050565b600061122c61122761122284610eb5565b611207565b610eb5565b9050919050565b600061123e82611211565b9050919050565b600061125082611233565b9050919050565b61126081611245565b82525050565b600060208201905061127b6000830184611257565b92915050565b60008115159050919050565b61129681611281565b82525050565b60006020820190506112b1600083018461128d565b92915050565b60006112c282611110565b9050919050565b6112d2816112b7565b81146112dd57600080fd5b50565b6000813590506112ef816112c9565b92915050565b6000806040838503121561130c5761130b610eab565b5b600061131a858286016112e0565b925050602061132b8582860161108c565b9150509250929050565b61133e8161106b565b82525050565b60006020820190506113596000830184611335565b92915050565b61136881611110565b82525050565b6000602082019050611383600083018461135f565b92915050565b600061139482611211565b9050919050565b60006113a682611389565b9050919050565b6113b68161139b565b82525050565b60006020820190506113d160008301846113ad565b92915050565b6000602082840312156113ed576113ec610eab565b5b60006113fb8482850161108c565b91505092915050565b60006020828403121561141a57611419610eab565b5b6000611428848285016112e0565b91505092915050565b600061143c82611389565b9050919050565b61144c81611431565b82525050565b60006020820190506114676000830184611443565b92915050565b60006020828403121561148357611482610eab565b5b600061149184828501611139565b91505092915050565b60006114a582611389565b9050919050565b6114b58161149a565b82525050565b60006020820190506114d060008301846114ac565b92915050565b60006114e182611110565b9050919050565b6114f1816114d6565b81146114fc57600080fd5b50565b60008151905061150e816114e8565b92915050565b60006020828403121561152a57611529610eab565b5b6000611538848285016114ff565b91505092915050565b600082825260208201905092915050565b7f5061796d656e7444417070466163746f72793a2063616e6e6f7420696d706f7260008201527f7420646170702077697468206120646966666572656e7420636f6e73656e737560208201527f7300000000000000000000000000000000000000000000000000000000000000604082015250565b60006115d4604183611541565b91506115df82611552565b606082019050919050565b60006020820190508181036000830152611603816115c7565b9050919050565b60008151905061161981611122565b92915050565b60006020828403121561163557611634610eab565b5b60006116438482850161160a565b91505092915050565b7f5061796d656e7444417070466163746f72793a206f6e6c79206f776e6572206360008201527f616e20696d706f7274206170706c69636174696f6e0000000000000000000000602082015250565b60006116a8603583611541565b91506116b38261164c565b604082019050919050565b600060208201905081810360008301526116d78161169b565b9050919050565b600081519050919050565b60005b838110156117075780820151818401526020810190506116ec565b60008484015250505050565b600061171e826116de565b6117288185611541565b93506117388185602086016116e9565b61174181610f2f565b840191505092915050565b600060208201905081810360008301526117668184611713565b905092915050565b6117778161114e565b82525050565b600060608201905061179260008301866113ad565b61179f602083018561135f565b6117ac604083018461176e565b949350505050565b6000815190506117c381610ef9565b92915050565b6000602082840312156117df576117de610eab565b5b60006117ed848285016117b4565b91505092915050565b60008151905061180581611075565b92915050565b60006020828403121561182157611820610eab565b5b600061182f848285016117f6565b91505092915050565b600060408201905061184d600083018561135f565b61185a6020830184611335565b9392505050565b61186a81611281565b811461187557600080fd5b50565b60008151905061188781611861565b92915050565b6000602082840312156118a3576118a2610eab565b5b60006118b184828501611878565b91505092915050565b7f5061796d656e7444417070466163746f72793a206661696c656420746f20776960008201527f74686472617720746f6b656e7300000000000000000000000000000000000000602082015250565b6000611916602d83611541565b9150611921826118ba565b604082019050919050565b6000602082019050818103600083015261194581611909565b9050919050565b7f4e487b7100000000000000000000000000000000000000000000000000000000600052601160045260246000fd5b60006119868261106b565b91506119918361106b565b925082820261199f8161106b565b915082820484148315176119b6576119b561194c565b5b5092915050565b7f4f776e61626c653a206e6577206f776e657220697320746865207a65726f206160008201527f6464726573730000000000000000000000000000000000000000000000000000602082015250565b6000611a19602683611541565b9150611a24826119bd565b604082019050919050565b60006020820190508181036000830152611a4881611a0c565b9050919050565b7f5061757361626c653a2070617573656400000000000000000000000000000000600082015250565b6000611a85601083611541565b9150611a9082611a4f565b602082019050919050565b60006020820190508181036000830152611ab481611a78565b9050919050565b6000606082019050611ad0600083018661135f565b611add602083018561135f565b611aea6040830184611335565b949350505050565b7f5061796d656e7444417070466163746f72793a206661696c656420746f20747260008201527f616e7366657220746f6b656e7300000000000000000000000000000000000000602082015250565b6000611b4e602d83611541565b9150611b5982611af2565b604082019050919050565b60006020820190508181036000830152611b7d81611b41565b9050919050565b6000611b8f8261106b565b9150611b9a8361106b565b9250828201905080821115611bb257611bb161194c565b5b92915050565b7f4f776e61626c653a2063616c6c6572206973206e6f7420746865206f776e6572600082015250565b6000611bee602083611541565b9150611bf982611bb8565b602082019050919050565b60006020820190508181036000830152611c1d81611be1565b9050919050565b7f5061757361626c653a206e6f7420706175736564000000000000000000000000600082015250565b6000611c5a601483611541565b9150611c6582611c24565b602082019050919050565b60006020820190508181036000830152611c8981611c4d565b905091905056fea2646970667358221220d9ff549ac39c1e454f40c0ec6cbffb7da1764d94cefb1c23789751e4306ee4eb64736f6c63430008140033a2646970667358221220b62184d738d48b00c7b86e9503e7fb0abfd2d10bae3f261d47666f78871dea3464736f6c63430008140033",
  "devdoc": {
    "events": {
      "PayableDAppFactoryCreated(address,address,address,uint256)": {
        "params": {
          "consensus": "The consensus associated with the factory",
          "factory": "The address of the factory",
          "price": "The price per minute of dapp node execution",
          "token": "The token used for billing"
        }
      }
    },
    "kind": "dev",
    "methods": {},
    "version": 1
  },
  "userdoc": {
    "events": {
      "PayableDAppFactoryCreated(address,address,address,uint256)": {
        "notice": "A new factory was created"
      }
    },
    "kind": "user",
    "methods": {
      "newPayableDAppFactory(address,address,uint256)": {
        "notice": "Create a new ERC20 based DApp factory using the specified token"
      }
    },
    "notice": "Factory for creating new ERC20 based DApp factories",
    "version": 1
  },
  "storageLayout": {
    "storage": [],
    "types": null
  }
}