{
  "address": "0x85c77207642c51F6Cf8Ad76b5E777805cA5148B6",
  "abi": [
    {
      "inputs": [
        {
          "internalType": "contract ENS",
          "name": "_ens",
          "type": "address"
        },
        {
          "internalType": "contract ICartesiDAppFactory",
          "name": "_factory",
          "type": "address"
        }
      ],
      "stateMutability": "nonpayable",
      "type": "constructor"
    },
    {
      "anonymous": false,
      "inputs": [
        {
          "indexed": false,
          "internalType": "contract IReaderNodeProvider",
          "name": "provider",
          "type": "address"
        },
        {
          "indexed": false,
          "internalType": "contract IERC20",
          "name": "token",
          "type": "address"
        },
        {
          "indexed": false,
          "internalType": "address",
          "name": "payee",
          "type": "address"
        },
        {
          "indexed": false,
          "internalType": "uint256",
          "name": "price",
          "type": "uint256"
        }
      ],
      "name": "ReaderNodeProviderCreated",
      "type": "event"
    },
    {
      "anonymous": false,
      "inputs": [
        {
          "indexed": false,
          "internalType": "contract IValidatorNodeProvider",
          "name": "provider",
          "type": "address"
        },
        {
          "indexed": false,
          "internalType": "contract IConsensus",
          "name": "consensus",
          "type": "address"
        },
        {
          "indexed": false,
          "internalType": "contract IERC20",
          "name": "token",
          "type": "address"
        },
        {
          "indexed": false,
          "internalType": "address",
          "name": "payee",
          "type": "address"
        },
        {
          "indexed": false,
          "internalType": "uint256",
          "name": "price",
          "type": "uint256"
        }
      ],
      "name": "ValidatorNodeProviderCreated",
      "type": "event"
    },
    {
      "inputs": [],
      "name": "ens",
      "outputs": [
        {
          "internalType": "contract ENS",
          "name": "",
          "type": "address"
        }
      ],
      "stateMutability": "view",
      "type": "function"
    },
    {
      "inputs": [],
      "name": "factory",
      "outputs": [
        {
          "internalType": "contract ICartesiDAppFactory",
          "name": "",
          "type": "address"
        }
      ],
      "stateMutability": "view",
      "type": "function"
    },
    {
      "inputs": [
        {
          "internalType": "contract IERC20",
          "name": "_token",
          "type": "address"
        },
        {
          "internalType": "address",
          "name": "_payee",
          "type": "address"
        },
        {
          "internalType": "uint256",
          "name": "_price",
          "type": "uint256"
        }
      ],
      "name": "newReaderNodeProvider",
      "outputs": [
        {
          "internalType": "contract IReaderNodeProvider",
          "name": "",
          "type": "address"
        }
      ],
      "stateMutability": "nonpayable",
      "type": "function"
    },
    {
      "inputs": [
        {
          "internalType": "contract IConsensus",
          "name": "_consensus",
          "type": "address"
        },
        {
          "internalType": "contract IERC20",
          "name": "_token",
          "type": "address"
        },
        {
          "internalType": "address",
          "name": "_payee",
          "type": "address"
        },
        {
          "internalType": "uint256",
          "name": "_price",
          "type": "uint256"
        }
      ],
      "name": "newValidatorNodeProvider",
      "outputs": [
        {
          "internalType": "contract IValidatorNodeProvider",
          "name": "",
          "type": "address"
        }
      ],
      "stateMutability": "nonpayable",
      "type": "function"
    }
  ],
  "transactionHash": "0x9c4f36d8fe1a87d7f50858508176f7831a17351d6046ed1fb374659b97492e39",
  "args": [
    "0x0000000000000000000000000000000000000000",
    "0x7122cd1221C20892234186facfE8615e6743Ab02"
  ],
  "numDeployments": 3,
  "solcInputHash": "4ba25856d29734d15a8ed08e725891de",
  "bytecode": "0x60c060405234801561001057600080fd5b5060405162004c9b38038062004c9b83398181016040528101906100349190610156565b8173ffffffffffffffffffffffffffffffffffffffff1660808173ffffffffffffffffffffffffffffffffffffffff16815250508073ffffffffffffffffffffffffffffffffffffffff1660a08173ffffffffffffffffffffffffffffffffffffffff16815250505050610196565b600080fd5b600073ffffffffffffffffffffffffffffffffffffffff82169050919050565b60006100d3826100a8565b9050919050565b60006100e5826100c8565b9050919050565b6100f5816100da565b811461010057600080fd5b50565b600081519050610112816100ec565b92915050565b6000610123826100c8565b9050919050565b61013381610118565b811461013e57600080fd5b50565b6000815190506101508161012a565b92915050565b6000806040838503121561016d5761016c6100a3565b5b600061017b85828601610103565b925050602061018c85828601610141565b9150509250929050565b60805160a051614aca620001d16000396000818161015a01526102c00152600081816101090152818161013601526102130152614aca6000f3fe60806040523480156200001157600080fd5b5060043610620000525760003560e01c80633f15457f146200005757806355ad014c14620000795780636fd0271c14620000af578063c45a015514620000e5575b600080fd5b6200006162000107565b60405162000070919062000389565b60405180910390f35b620000976004803603810190620000919190620004b5565b6200012b565b604051620000a691906200054c565b60405180910390f35b620000cd6004803603810190620000c7919062000569565b62000208565b604051620000dc9190620005ea565b60405180910390f35b620000ef620002be565b604051620000fe91906200062c565b60405180910390f35b7f000000000000000000000000000000000000000000000000000000000000000081565b6000803390506000817f00000000000000000000000000000000000000000000000000000000000000008787877f00000000000000000000000000000000000000000000000000000000000000008c6040516200018890620002e2565b6200019a9796959493929190620006b5565b604051809103906000f080158015620001b7573d6000803e3d6000fd5b5090507f0e2b88107197b560f03a59714a3b7fcced2035fc2f645c44f71491f96c0035418188888888604051620001f395949392919062000757565b60405180910390a18092505050949350505050565b6000803390506000817f00000000000000000000000000000000000000000000000000000000000000008787876040516200024390620002f0565b62000253959493929190620007b4565b604051809103906000f08015801562000270573d6000803e3d6000fd5b5090507fd62c70f9eea181e29756725d47a538b551cfa71ad040a8163a2bf629b17e146281878787604051620002aa949392919062000811565b60405180910390a180925050509392505050565b7f000000000000000000000000000000000000000000000000000000000000000081565b612594806200085f83390190565b611ca28062002df383390190565b600073ffffffffffffffffffffffffffffffffffffffff82169050919050565b6000819050919050565b600062000349620003436200033d84620002fe565b6200031e565b620002fe565b9050919050565b60006200035d8262000328565b9050919050565b6000620003718262000350565b9050919050565b620003838162000364565b82525050565b6000602082019050620003a0600083018462000378565b92915050565b600080fd5b6000620003b882620002fe565b9050919050565b6000620003cc82620003ab565b9050919050565b620003de81620003bf565b8114620003ea57600080fd5b50565b600081359050620003fe81620003d3565b92915050565b60006200041182620003ab565b9050919050565b620004238162000404565b81146200042f57600080fd5b50565b600081359050620004438162000418565b92915050565b6200045481620003ab565b81146200046057600080fd5b50565b600081359050620004748162000449565b92915050565b6000819050919050565b6200048f816200047a565b81146200049b57600080fd5b50565b600081359050620004af8162000484565b92915050565b60008060008060808587031215620004d257620004d1620003a6565b5b6000620004e287828801620003ed565b9450506020620004f58782880162000432565b9350506040620005088782880162000463565b92505060606200051b878288016200049e565b91505092959194509250565b6000620005348262000350565b9050919050565b620005468162000527565b82525050565b60006020820190506200056360008301846200053b565b92915050565b600080600060608486031215620005855762000584620003a6565b5b6000620005958682870162000432565b9350506020620005a88682870162000463565b9250506040620005bb868287016200049e565b9150509250925092565b6000620005d28262000350565b9050919050565b620005e481620005c5565b82525050565b6000602082019050620006016000830184620005d9565b92915050565b6000620006148262000350565b9050919050565b620006268162000607565b82525050565b60006020820190506200064360008301846200061b565b92915050565b6200065481620003ab565b82525050565b6000620006678262000350565b9050919050565b62000679816200065a565b82525050565b6200068a816200047a565b82525050565b60006200069d8262000350565b9050919050565b620006af8162000690565b82525050565b600060e082019050620006cc600083018a62000649565b620006db602083018962000378565b620006ea60408301886200066e565b620006f9606083018762000649565b6200070860808301866200067f565b6200071760a08301856200061b565b6200072660c0830184620006a4565b98975050505050505050565b60006200073f8262000350565b9050919050565b620007518162000732565b82525050565b600060a0820190506200076e600083018862000746565b6200077d6020830187620006a4565b6200078c60408301866200066e565b6200079b606083018562000649565b620007aa60808301846200067f565b9695505050505050565b600060a082019050620007cb600083018862000649565b620007da602083018762000378565b620007e960408301866200066e565b620007f8606083018562000649565b6200080760808301846200067f565b9695505050505050565b6000608082019050620008286000830187620005d9565b6200083760208301866200066e565b62000846604083018562000649565b6200085560608301846200067f565b9594505050505056fe6101406040523480156200001257600080fd5b506040516200259438038062002594833981810160405281019062000038919062000435565b8686868686848383836200006162000055620001b060201b60201c565b620001b860201b60201c565b60008060146101000a81548160ff0219169083151502179055508273ffffffffffffffffffffffffffffffffffffffff1660a08173ffffffffffffffffffffffffffffffffffffffff16815250508173ffffffffffffffffffffffffffffffffffffffff1660c08173ffffffffffffffffffffffffffffffffffffffff16815250508060808181525050620000fc84620001b860201b60201c565b505050508373ffffffffffffffffffffffffffffffffffffffff1660e08173ffffffffffffffffffffffffffffffffffffffff168152505050505050508173ffffffffffffffffffffffffffffffffffffffff166101008173ffffffffffffffffffffffffffffffffffffffff16815250508073ffffffffffffffffffffffffffffffffffffffff166101208173ffffffffffffffffffffffffffffffffffffffff168152505050505050505050620004e8565b600033905090565b60008060009054906101000a900473ffffffffffffffffffffffffffffffffffffffff169050816000806101000a81548173ffffffffffffffffffffffffffffffffffffffff021916908373ffffffffffffffffffffffffffffffffffffffff1602179055508173ffffffffffffffffffffffffffffffffffffffff168173ffffffffffffffffffffffffffffffffffffffff167f8be0079c531659141344cd1fd0a4f28419497f9722a3daafe3b4186f6b6457e060405160405180910390a35050565b600080fd5b600073ffffffffffffffffffffffffffffffffffffffff82169050919050565b6000620002ae8262000281565b9050919050565b620002c081620002a1565b8114620002cc57600080fd5b50565b600081519050620002e081620002b5565b92915050565b6000620002f382620002a1565b9050919050565b6200030581620002e6565b81146200031157600080fd5b50565b6000815190506200032581620002fa565b92915050565b60006200033882620002a1565b9050919050565b6200034a816200032b565b81146200035657600080fd5b50565b6000815190506200036a816200033f565b92915050565b6000819050919050565b620003858162000370565b81146200039157600080fd5b50565b600081519050620003a5816200037a565b92915050565b6000620003b882620002a1565b9050919050565b620003ca81620003ab565b8114620003d657600080fd5b50565b600081519050620003ea81620003bf565b92915050565b6000620003fd82620002a1565b9050919050565b6200040f81620003f0565b81146200041b57600080fd5b50565b6000815190506200042f8162000404565b92915050565b600080600080600080600060e0888a0312156200045757620004566200027c565b5b6000620004678a828b01620002cf565b97505060206200047a8a828b0162000314565b96505060406200048d8a828b0162000359565b9550506060620004a08a828b01620002cf565b9450506080620004b38a828b0162000394565b93505060a0620004c68a828b01620003d9565b92505060c0620004d98a828b016200041e565b91505092959891949750929550565b60805160a05160c05160e051610100516101205161201d620005776000396000818161037a015281816105860152818161064e01526106ba01526000818161054a0152818161067e01526108410152600081816104cb015261086f01526000818161081d0152610c59015260008181610a350152610c7b0152600081816107ae01526107f9015261201d6000f3fe608060405234801561001057600080fd5b50600436106101215760003560e01c80638ef3f761116100ad578063ae90b21311610071578063ae90b213146102e6578063c45a015514610304578063c47f002714610322578063f2fde38b1461033e578063fc0c546a1461035a57610121565b80638ef3f7611461021a5780638ff7fc68146102385780639097548d1461026857806394a3362514610298578063a035b1fe146102c857610121565b8063715018a6116100f4578063715018a614610188578063783d53ca14610192578063803f7e6d146101c25780638456cb59146101f25780638da5cb5b146101fc57610121565b806332434a2e146101265780633f15457f146101425780633f4ba83a146101605780635c975abb1461016a575b600080fd5b610140600480360381019061013b9190611270565b610378565b005b61014a6104c9565b604051610157919061132f565b60405180910390f35b6101686104ed565b005b6101726104ff565b60405161017f9190611365565b60405180910390f35b610190610515565b005b6101ac60048036038101906101a791906113b6565b610529565b6040516101b99190611405565b60405180910390f35b6101dc60048036038101906101d79190611482565b610546565b6040516101e991906114e4565b60405180910390f35b6101fa610611565b005b610204610623565b60405161021191906114e4565b60405180910390f35b61022261064c565b60405161022f9190611520565b60405180910390f35b610252600480360381019061024d919061153b565b610670565b60405161025f9190611608565b60405180910390f35b610282600480360381019061027d9190611623565b6107aa565b60405161028f9190611405565b60405180910390f35b6102b260048036038101906102ad9190611650565b6107df565b6040516102bf9190611405565b60405180910390f35b6102d06107f7565b6040516102dd9190611405565b60405180910390f35b6102ee61081b565b6040516102fb91906114e4565b60405180910390f35b61030c61083f565b604051610319919061169e565b60405180910390f35b61033c600480360381019061033791906116b9565b610863565b005b61035860048036038101906103539190611706565b6109b0565b005b610362610a33565b60405161036f9190611754565b60405180910390f35b7f000000000000000000000000000000000000000000000000000000000000000073ffffffffffffffffffffffffffffffffffffffff168373ffffffffffffffffffffffffffffffffffffffff1663179e740b6040518163ffffffff1660e01b8152600401602060405180830381865afa1580156103fa573d6000803e3d6000fd5b505050506040513d601f19601f8201168201806040525081019061041e91906117ad565b73ffffffffffffffffffffffffffffffffffffffff1614610474576040517f08c379a000000000000000000000000000000000000000000000000000000000815260040161046b9061185d565b60405180910390fd5b8273ffffffffffffffffffffffffffffffffffffffff167f22f244e839c97faca31341c9c2bb7a09f94a81fb309a36a85c8465bafeb69ffc83836040516104bc9291906118ca565b60405180910390a2505050565b7f000000000000000000000000000000000000000000000000000000000000000081565b6104f5610a57565b6104fd610ad5565b565b60008060149054906101000a900460ff16905090565b61051d610a57565b6105276000610b37565b565b6000610533610bfb565b61053e338484610c45565b905092915050565b60007f000000000000000000000000000000000000000000000000000000000000000073ffffffffffffffffffffffffffffffffffffffff1663bd4f12197f00000000000000000000000000000000000000000000000000000000000000008686866040518563ffffffff1660e01b81526004016105c794939291906118fd565b602060405180830381865afa1580156105e4573d6000803e3d6000fd5b505050506040513d601f19601f820116820180604052508101906106089190611957565b90509392505050565b610619610a57565b610621610dbf565b565b60008060009054906101000a900473ffffffffffffffffffffffffffffffffffffffff16905090565b7f000000000000000000000000000000000000000000000000000000000000000081565b600061067a610bfb565b60007f000000000000000000000000000000000000000000000000000000000000000073ffffffffffffffffffffffffffffffffffffffff16630e1a07f57f00000000000000000000000000000000000000000000000000000000000000008a8a876040518563ffffffff1660e01b81526004016106fb94939291906118fd565b6020604051808303816000875af115801561071a573d6000803e3d6000fd5b505050506040513d601f19601f8201168201806040525081019061073e91906119d4565b90508073ffffffffffffffffffffffffffffffffffffffff167f22f244e839c97faca31341c9c2bb7a09f94a81fb309a36a85c8465bafeb69ffc87876040516107889291906118ca565b60405180910390a261079b338286610c45565b50809150509695505050505050565b60007f0000000000000000000000000000000000000000000000000000000000000000826107d89190611a30565b9050919050565b60016020528060005260406000206000915090505481565b7f000000000000000000000000000000000000000000000000000000000000000081565b7f000000000000000000000000000000000000000000000000000000000000000081565b7f000000000000000000000000000000000000000000000000000000000000000081565b61086b610a57565b60007f000000000000000000000000000000000000000000000000000000000000000073ffffffffffffffffffffffffffffffffffffffff166302571be37f91d1777781884d03a6757a803996e38de2a42967fb37eeaca72729271025a9e260001b6040518263ffffffff1660e01b81526004016108e99190611a72565b602060405180830381865afa158015610906573d6000803e3d6000fd5b505050506040513d601f19601f8201168201806040525081019061092a9190611957565b90508073ffffffffffffffffffffffffffffffffffffffff1663c47f002784846040518363ffffffff1660e01b81526004016109679291906118ca565b6020604051808303816000875af1158015610986573d6000803e3d6000fd5b505050506040513d601f19601f820116820180604052508101906109aa9190611aa2565b50505050565b6109b8610a57565b600073ffffffffffffffffffffffffffffffffffffffff168173ffffffffffffffffffffffffffffffffffffffff1603610a27576040517f08c379a0000000000000000000000000000000000000000000000000000000008152600401610a1e90611b41565b60405180910390fd5b610a3081610b37565b50565b7f000000000000000000000000000000000000000000000000000000000000000081565b610a5f610e22565b73ffffffffffffffffffffffffffffffffffffffff16610a7d610623565b73ffffffffffffffffffffffffffffffffffffffff1614610ad3576040517f08c379a0000000000000000000000000000000000000000000000000000000008152600401610aca90611bad565b60405180910390fd5b565b610add610e2a565b60008060146101000a81548160ff0219169083151502179055507f5db9ee0a495bf2e6ff9c91a7834c1ba4fdd244a5e8aa4e537bd38aeae4b073aa610b20610e22565b604051610b2d91906114e4565b60405180910390a1565b60008060009054906101000a900473ffffffffffffffffffffffffffffffffffffffff169050816000806101000a81548173ffffffffffffffffffffffffffffffffffffffff021916908373ffffffffffffffffffffffffffffffffffffffff1602179055508173ffffffffffffffffffffffffffffffffffffffff168173ffffffffffffffffffffffffffffffffffffffff167f8be0079c531659141344cd1fd0a4f28419497f9722a3daafe3b4186f6b6457e060405160405180910390a35050565b610c036104ff565b15610c43576040517f08c379a0000000000000000000000000000000000000000000000000000000008152600401610c3a90611c19565b60405180910390fd5b565b600080610c51836107aa565b9050610cc0857f0000000000000000000000000000000000000000000000000000000000000000837f000000000000000000000000000000000000000000000000000000000000000073ffffffffffffffffffffffffffffffffffffffff16610e73909392919063ffffffff16565b6000600160008673ffffffffffffffffffffffffffffffffffffffff1673ffffffffffffffffffffffffffffffffffffffff16815260200190815260200160002054905042811015610d10574290505b60008482610d1e9190611c39565b905080600160008873ffffffffffffffffffffffffffffffffffffffff1673ffffffffffffffffffffffffffffffffffffffff168152602001908152602001600020819055508573ffffffffffffffffffffffffffffffffffffffff167f206c488a3e590d91a82467a0072d112dfe901a99ae561b30c89ff2509fadde3582604051610daa9190611405565b60405180910390a28093505050509392505050565b610dc7610bfb565b6001600060146101000a81548160ff0219169083151502179055507f62e78cea01bee320cd4e420270b5ea74000d11b0c9f74754ebdbfc544b05a258610e0b610e22565b604051610e1891906114e4565b60405180910390a1565b600033905090565b610e326104ff565b610e71576040517f08c379a0000000000000000000000000000000000000000000000000000000008152600401610e6890611cb9565b60405180910390fd5b565b610ef6846323b872dd60e01b858585604051602401610e9493929190611cd9565b604051602081830303815290604052907bffffffffffffffffffffffffffffffffffffffffffffffffffffffff19166020820180517bffffffffffffffffffffffffffffffffffffffffffffffffffffffff8381831617835250505050610efc565b50505050565b6000610f5e826040518060400160405280602081526020017f5361666545524332303a206c6f772d6c6576656c2063616c6c206661696c65648152508573ffffffffffffffffffffffffffffffffffffffff16610fc49092919063ffffffff16565b9050600081511480610f80575080806020019051810190610f7f9190611d3c565b5b610fbf576040517f08c379a0000000000000000000000000000000000000000000000000000000008152600401610fb690611ddb565b60405180910390fd5b505050565b6060610fd38484600085610fdc565b90509392505050565b606082471015611021576040517f08c379a000000000000000000000000000000000000000000000000000000000815260040161101890611e6d565b60405180910390fd5b6000808673ffffffffffffffffffffffffffffffffffffffff16858760405161104a9190611efe565b60006040518083038185875af1925050503d8060008114611087576040519150601f19603f3d011682016040523d82523d6000602084013e61108c565b606091505b509150915061109d878383876110a9565b92505050949350505050565b6060831561110b576000835103611103576110c38561111e565b611102576040517f08c379a00000000000000000000000000000000000000000000000000000000081526004016110f990611f61565b60405180910390fd5b5b829050611116565b6111158383611141565b5b949350505050565b6000808273ffffffffffffffffffffffffffffffffffffffff163b119050919050565b6000825111156111545781518083602001fd5b806040517f08c379a00000000000000000000000000000000000000000000000000000000081526004016111889190611fc5565b60405180910390fd5b600080fd5b600080fd5b600073ffffffffffffffffffffffffffffffffffffffff82169050919050565b60006111c68261119b565b9050919050565b60006111d8826111bb565b9050919050565b6111e8816111cd565b81146111f357600080fd5b50565b600081359050611205816111df565b92915050565b600080fd5b600080fd5b600080fd5b60008083601f8401126112305761122f61120b565b5b8235905067ffffffffffffffff81111561124d5761124c611210565b5b60208301915083600182028301111561126957611268611215565b5b9250929050565b60008060006040848603121561128957611288611191565b5b6000611297868287016111f6565b935050602084013567ffffffffffffffff8111156112b8576112b7611196565b5b6112c48682870161121a565b92509250509250925092565b6000819050919050565b60006112f56112f06112eb8461119b565b6112d0565b61119b565b9050919050565b6000611307826112da565b9050919050565b6000611319826112fc565b9050919050565b6113298161130e565b82525050565b60006020820190506113446000830184611320565b92915050565b60008115159050919050565b61135f8161134a565b82525050565b600060208201905061137a6000830184611356565b92915050565b6000819050919050565b61139381611380565b811461139e57600080fd5b50565b6000813590506113b08161138a565b92915050565b600080604083850312156113cd576113cc611191565b5b60006113db858286016111f6565b92505060206113ec858286016113a1565b9150509250929050565b6113ff81611380565b82525050565b600060208201905061141a60008301846113f6565b92915050565b611429816111bb565b811461143457600080fd5b50565b60008135905061144681611420565b92915050565b6000819050919050565b61145f8161144c565b811461146a57600080fd5b50565b60008135905061147c81611456565b92915050565b60008060006060848603121561149b5761149a611191565b5b60006114a986828701611437565b93505060206114ba8682870161146d565b92505060406114cb8682870161146d565b9150509250925092565b6114de816111bb565b82525050565b60006020820190506114f960008301846114d5565b92915050565b600061150a826112fc565b9050919050565b61151a816114ff565b82525050565b60006020820190506115356000830184611511565b92915050565b60008060008060008060a0878903121561155857611557611191565b5b600061156689828a01611437565b965050602061157789828a0161146d565b955050604087013567ffffffffffffffff81111561159857611597611196565b5b6115a489828a0161121a565b945094505060606115b789828a016113a1565b92505060806115c889828a0161146d565b9150509295509295509295565b60006115e0826112da565b9050919050565b60006115f2826115d5565b9050919050565b611602816115e7565b82525050565b600060208201905061161d60008301846115f9565b92915050565b60006020828403121561163957611638611191565b5b6000611647848285016113a1565b91505092915050565b60006020828403121561166657611665611191565b5b6000611674848285016111f6565b91505092915050565b6000611688826112fc565b9050919050565b6116988161167d565b82525050565b60006020820190506116b3600083018461168f565b92915050565b600080602083850312156116d0576116cf611191565b5b600083013567ffffffffffffffff8111156116ee576116ed611196565b5b6116fa8582860161121a565b92509250509250929050565b60006020828403121561171c5761171b611191565b5b600061172a84828501611437565b91505092915050565b600061173e826112fc565b9050919050565b61174e81611733565b82525050565b60006020820190506117696000830184611745565b92915050565b600061177a826111bb565b9050919050565b61178a8161176f565b811461179557600080fd5b50565b6000815190506117a781611781565b92915050565b6000602082840312156117c3576117c2611191565b5b60006117d184828501611798565b91505092915050565b600082825260208201905092915050565b7f56616c696461746f724e6f646550726f76696465723a2077726f6e6720636f6e60008201527f73656e7375730000000000000000000000000000000000000000000000000000602082015250565b60006118476026836117da565b9150611852826117eb565b604082019050919050565b600060208201905081810360008301526118768161183a565b9050919050565b82818337600083830152505050565b6000601f19601f8301169050919050565b60006118a983856117da565b93506118b683858461187d565b6118bf8361188c565b840190509392505050565b600060208201905081810360008301526118e581848661189d565b90509392505050565b6118f78161144c565b82525050565b60006080820190506119126000830187611511565b61191f60208301866114d5565b61192c60408301856118ee565b61193960608301846118ee565b95945050505050565b60008151905061195181611420565b92915050565b60006020828403121561196d5761196c611191565b5b600061197b84828501611942565b91505092915050565b600061198f8261119b565b9050919050565b60006119a182611984565b9050919050565b6119b181611996565b81146119bc57600080fd5b50565b6000815190506119ce816119a8565b92915050565b6000602082840312156119ea576119e9611191565b5b60006119f8848285016119bf565b91505092915050565b7f4e487b7100000000000000000000000000000000000000000000000000000000600052601160045260246000fd5b6000611a3b82611380565b9150611a4683611380565b9250828202611a5481611380565b91508282048414831517611a6b57611a6a611a01565b5b5092915050565b6000602082019050611a8760008301846118ee565b92915050565b600081519050611a9c81611456565b92915050565b600060208284031215611ab857611ab7611191565b5b6000611ac684828501611a8d565b91505092915050565b7f4f776e61626c653a206e6577206f776e657220697320746865207a65726f206160008201527f6464726573730000000000000000000000000000000000000000000000000000602082015250565b6000611b2b6026836117da565b9150611b3682611acf565b604082019050919050565b60006020820190508181036000830152611b5a81611b1e565b9050919050565b7f4f776e61626c653a2063616c6c6572206973206e6f7420746865206f776e6572600082015250565b6000611b976020836117da565b9150611ba282611b61565b602082019050919050565b60006020820190508181036000830152611bc681611b8a565b9050919050565b7f5061757361626c653a2070617573656400000000000000000000000000000000600082015250565b6000611c036010836117da565b9150611c0e82611bcd565b602082019050919050565b60006020820190508181036000830152611c3281611bf6565b9050919050565b6000611c4482611380565b9150611c4f83611380565b9250828201905080821115611c6757611c66611a01565b5b92915050565b7f5061757361626c653a206e6f7420706175736564000000000000000000000000600082015250565b6000611ca36014836117da565b9150611cae82611c6d565b602082019050919050565b60006020820190508181036000830152611cd281611c96565b9050919050565b6000606082019050611cee60008301866114d5565b611cfb60208301856114d5565b611d0860408301846113f6565b949350505050565b611d198161134a565b8114611d2457600080fd5b50565b600081519050611d3681611d10565b92915050565b600060208284031215611d5257611d51611191565b5b6000611d6084828501611d27565b91505092915050565b7f5361666545524332303a204552433230206f7065726174696f6e20646964206e60008201527f6f74207375636365656400000000000000000000000000000000000000000000602082015250565b6000611dc5602a836117da565b9150611dd082611d69565b604082019050919050565b60006020820190508181036000830152611df481611db8565b9050919050565b7f416464726573733a20696e73756666696369656e742062616c616e636520666f60008201527f722063616c6c0000000000000000000000000000000000000000000000000000602082015250565b6000611e576026836117da565b9150611e6282611dfb565b604082019050919050565b60006020820190508181036000830152611e8681611e4a565b9050919050565b600081519050919050565b600081905092915050565b60005b83811015611ec1578082015181840152602081019050611ea6565b60008484015250505050565b6000611ed882611e8d565b611ee28185611e98565b9350611ef2818560208601611ea3565b80840191505092915050565b6000611f0a8284611ecd565b915081905092915050565b7f416464726573733a2063616c6c20746f206e6f6e2d636f6e7472616374000000600082015250565b6000611f4b601d836117da565b9150611f5682611f15565b602082019050919050565b60006020820190508181036000830152611f7a81611f3e565b9050919050565b600081519050919050565b6000611f9782611f81565b611fa181856117da565b9350611fb1818560208601611ea3565b611fba8161188c565b840191505092915050565b60006020820190508181036000830152611fdf8184611f8c565b90509291505056fea26469706673582212200971a65d40ba95cf7f9f3a082835f5b365093e2096a0b74920074123829168e564736f6c634300081400336101006040523480156200001257600080fd5b5060405162001ca238038062001ca283398181016040528101906200003891906200033f565b84848484848483838362000061620000556200014460201b60201c565b6200014c60201b60201c565b60008060146101000a81548160ff0219169083151502179055508273ffffffffffffffffffffffffffffffffffffffff1660a08173ffffffffffffffffffffffffffffffffffffffff16815250508173ffffffffffffffffffffffffffffffffffffffff1660c08173ffffffffffffffffffffffffffffffffffffffff16815250508060808181525050620000fc846200014c60201b60201c565b505050508373ffffffffffffffffffffffffffffffffffffffff1660e08173ffffffffffffffffffffffffffffffffffffffff168152505050505050505050505050620003c7565b600033905090565b60008060009054906101000a900473ffffffffffffffffffffffffffffffffffffffff169050816000806101000a81548173ffffffffffffffffffffffffffffffffffffffff021916908373ffffffffffffffffffffffffffffffffffffffff1602179055508173ffffffffffffffffffffffffffffffffffffffff168173ffffffffffffffffffffffffffffffffffffffff167f8be0079c531659141344cd1fd0a4f28419497f9722a3daafe3b4186f6b6457e060405160405180910390a35050565b600080fd5b600073ffffffffffffffffffffffffffffffffffffffff82169050919050565b6000620002428262000215565b9050919050565b620002548162000235565b81146200026057600080fd5b50565b600081519050620002748162000249565b92915050565b6000620002878262000235565b9050919050565b62000299816200027a565b8114620002a557600080fd5b50565b600081519050620002b9816200028e565b92915050565b6000620002cc8262000235565b9050919050565b620002de81620002bf565b8114620002ea57600080fd5b50565b600081519050620002fe81620002d3565b92915050565b6000819050919050565b620003198162000304565b81146200032557600080fd5b50565b60008151905062000339816200030e565b92915050565b600080600080600060a086880312156200035e576200035d62000210565b5b60006200036e8882890162000263565b95505060206200038188828901620002a8565b94505060406200039488828901620002ed565b9350506060620003a78882890162000263565b9250506080620003ba8882890162000328565b9150509295509295909350565b60805160a05160c05160e0516118856200041d60003960008181610307015261045e0152600081816104300152610848015260008181610624015261086a0152600081816103c1015261040c01526118856000f3fe608060405234801561001057600080fd5b50600436106100f55760003560e01c80638da5cb5b11610097578063ae90b21311610066578063ae90b2131461023c578063c47f00271461025a578063f2fde38b14610276578063fc0c546a14610292576100f5565b80638da5cb5b146101a05780639097548d146101be57806394a33625146101ee578063a035b1fe1461021e576100f5565b80635c975abb116100d35780635c975abb1461013e578063715018a61461015c578063783d53ca146101665780638456cb5914610196576100f5565b806332434a2e146100fa5780633f15457f146101165780633f4ba83a14610134575b600080fd5b610114600480360381019061010f9190610e5f565b6102b0565b005b61011e610305565b60405161012b9190610f1e565b60405180910390f35b61013c610329565b005b61014661033b565b6040516101539190610f54565b60405180910390f35b610164610351565b005b610180600480360381019061017b9190610fa5565b610365565b60405161018d9190610ff4565b60405180910390f35b61019e610382565b005b6101a8610394565b6040516101b5919061101e565b60405180910390f35b6101d860048036038101906101d39190611039565b6103bd565b6040516101e59190610ff4565b60405180910390f35b61020860048036038101906102039190611066565b6103f2565b6040516102159190610ff4565b60405180910390f35b61022661040a565b6040516102339190610ff4565b60405180910390f35b61024461042e565b604051610251919061101e565b60405180910390f35b610274600480360381019061026f9190611093565b610452565b005b610290600480360381019061028b919061110c565b61059f565b005b61029a610622565b6040516102a7919061115a565b60405180910390f35b8273ffffffffffffffffffffffffffffffffffffffff167f22f244e839c97faca31341c9c2bb7a09f94a81fb309a36a85c8465bafeb69ffc83836040516102f89291906111d3565b60405180910390a2505050565b7f000000000000000000000000000000000000000000000000000000000000000081565b610331610646565b6103396106c4565b565b60008060149054906101000a900460ff16905090565b610359610646565b6103636000610726565b565b600061036f6107ea565b61037a338484610834565b905092915050565b61038a610646565b6103926109ae565b565b60008060009054906101000a900473ffffffffffffffffffffffffffffffffffffffff16905090565b60007f0000000000000000000000000000000000000000000000000000000000000000826103eb9190611226565b9050919050565b60016020528060005260406000206000915090505481565b7f000000000000000000000000000000000000000000000000000000000000000081565b7f000000000000000000000000000000000000000000000000000000000000000081565b61045a610646565b60007f000000000000000000000000000000000000000000000000000000000000000073ffffffffffffffffffffffffffffffffffffffff166302571be37f91d1777781884d03a6757a803996e38de2a42967fb37eeaca72729271025a9e260001b6040518263ffffffff1660e01b81526004016104d89190611281565b602060405180830381865afa1580156104f5573d6000803e3d6000fd5b505050506040513d601f19601f8201168201806040525081019061051991906112b1565b90508073ffffffffffffffffffffffffffffffffffffffff1663c47f002784846040518363ffffffff1660e01b81526004016105569291906111d3565b6020604051808303816000875af1158015610575573d6000803e3d6000fd5b505050506040513d601f19601f82011682018060405250810190610599919061130a565b50505050565b6105a7610646565b600073ffffffffffffffffffffffffffffffffffffffff168173ffffffffffffffffffffffffffffffffffffffff1603610616576040517f08c379a000000000000000000000000000000000000000000000000000000000815260040161060d906113a9565b60405180910390fd5b61061f81610726565b50565b7f000000000000000000000000000000000000000000000000000000000000000081565b61064e610a11565b73ffffffffffffffffffffffffffffffffffffffff1661066c610394565b73ffffffffffffffffffffffffffffffffffffffff16146106c2576040517f08c379a00000000000000000000000000000000000000000000000000000000081526004016106b990611415565b60405180910390fd5b565b6106cc610a19565b60008060146101000a81548160ff0219169083151502179055507f5db9ee0a495bf2e6ff9c91a7834c1ba4fdd244a5e8aa4e537bd38aeae4b073aa61070f610a11565b60405161071c919061101e565b60405180910390a1565b60008060009054906101000a900473ffffffffffffffffffffffffffffffffffffffff169050816000806101000a81548173ffffffffffffffffffffffffffffffffffffffff021916908373ffffffffffffffffffffffffffffffffffffffff1602179055508173ffffffffffffffffffffffffffffffffffffffff168173ffffffffffffffffffffffffffffffffffffffff167f8be0079c531659141344cd1fd0a4f28419497f9722a3daafe3b4186f6b6457e060405160405180910390a35050565b6107f261033b565b15610832576040517f08c379a000000000000000000000000000000000000000000000000000000000815260040161082990611481565b60405180910390fd5b565b600080610840836103bd565b90506108af857f0000000000000000000000000000000000000000000000000000000000000000837f000000000000000000000000000000000000000000000000000000000000000073ffffffffffffffffffffffffffffffffffffffff16610a62909392919063ffffffff16565b6000600160008673ffffffffffffffffffffffffffffffffffffffff1673ffffffffffffffffffffffffffffffffffffffff168152602001908152602001600020549050428110156108ff574290505b6000848261090d91906114a1565b905080600160008873ffffffffffffffffffffffffffffffffffffffff1673ffffffffffffffffffffffffffffffffffffffff168152602001908152602001600020819055508573ffffffffffffffffffffffffffffffffffffffff167f206c488a3e590d91a82467a0072d112dfe901a99ae561b30c89ff2509fadde35826040516109999190610ff4565b60405180910390a28093505050509392505050565b6109b66107ea565b6001600060146101000a81548160ff0219169083151502179055507f62e78cea01bee320cd4e420270b5ea74000d11b0c9f74754ebdbfc544b05a2586109fa610a11565b604051610a07919061101e565b60405180910390a1565b600033905090565b610a2161033b565b610a60576040517f08c379a0000000000000000000000000000000000000000000000000000000008152600401610a5790611521565b60405180910390fd5b565b610ae5846323b872dd60e01b858585604051602401610a8393929190611541565b604051602081830303815290604052907bffffffffffffffffffffffffffffffffffffffffffffffffffffffff19166020820180517bffffffffffffffffffffffffffffffffffffffffffffffffffffffff8381831617835250505050610aeb565b50505050565b6000610b4d826040518060400160405280602081526020017f5361666545524332303a206c6f772d6c6576656c2063616c6c206661696c65648152508573ffffffffffffffffffffffffffffffffffffffff16610bb39092919063ffffffff16565b9050600081511480610b6f575080806020019051810190610b6e91906115a4565b5b610bae576040517f08c379a0000000000000000000000000000000000000000000000000000000008152600401610ba590611643565b60405180910390fd5b505050565b6060610bc28484600085610bcb565b90509392505050565b606082471015610c10576040517f08c379a0000000000000000000000000000000000000000000000000000000008152600401610c07906116d5565b60405180910390fd5b6000808673ffffffffffffffffffffffffffffffffffffffff168587604051610c399190611766565b60006040518083038185875af1925050503d8060008114610c76576040519150601f19603f3d011682016040523d82523d6000602084013e610c7b565b606091505b5091509150610c8c87838387610c98565b92505050949350505050565b60608315610cfa576000835103610cf257610cb285610d0d565b610cf1576040517f08c379a0000000000000000000000000000000000000000000000000000000008152600401610ce8906117c9565b60405180910390fd5b5b829050610d05565b610d048383610d30565b5b949350505050565b6000808273ffffffffffffffffffffffffffffffffffffffff163b119050919050565b600082511115610d435781518083602001fd5b806040517f08c379a0000000000000000000000000000000000000000000000000000000008152600401610d77919061182d565b60405180910390fd5b600080fd5b600080fd5b600073ffffffffffffffffffffffffffffffffffffffff82169050919050565b6000610db582610d8a565b9050919050565b6000610dc782610daa565b9050919050565b610dd781610dbc565b8114610de257600080fd5b50565b600081359050610df481610dce565b92915050565b600080fd5b600080fd5b600080fd5b60008083601f840112610e1f57610e1e610dfa565b5b8235905067ffffffffffffffff811115610e3c57610e3b610dff565b5b602083019150836001820283011115610e5857610e57610e04565b5b9250929050565b600080600060408486031215610e7857610e77610d80565b5b6000610e8686828701610de5565b935050602084013567ffffffffffffffff811115610ea757610ea6610d85565b5b610eb386828701610e09565b92509250509250925092565b6000819050919050565b6000610ee4610edf610eda84610d8a565b610ebf565b610d8a565b9050919050565b6000610ef682610ec9565b9050919050565b6000610f0882610eeb565b9050919050565b610f1881610efd565b82525050565b6000602082019050610f336000830184610f0f565b92915050565b60008115159050919050565b610f4e81610f39565b82525050565b6000602082019050610f696000830184610f45565b92915050565b6000819050919050565b610f8281610f6f565b8114610f8d57600080fd5b50565b600081359050610f9f81610f79565b92915050565b60008060408385031215610fbc57610fbb610d80565b5b6000610fca85828601610de5565b9250506020610fdb85828601610f90565b9150509250929050565b610fee81610f6f565b82525050565b60006020820190506110096000830184610fe5565b92915050565b61101881610daa565b82525050565b6000602082019050611033600083018461100f565b92915050565b60006020828403121561104f5761104e610d80565b5b600061105d84828501610f90565b91505092915050565b60006020828403121561107c5761107b610d80565b5b600061108a84828501610de5565b91505092915050565b600080602083850312156110aa576110a9610d80565b5b600083013567ffffffffffffffff8111156110c8576110c7610d85565b5b6110d485828601610e09565b92509250509250929050565b6110e981610daa565b81146110f457600080fd5b50565b600081359050611106816110e0565b92915050565b60006020828403121561112257611121610d80565b5b6000611130848285016110f7565b91505092915050565b600061114482610eeb565b9050919050565b61115481611139565b82525050565b600060208201905061116f600083018461114b565b92915050565b600082825260208201905092915050565b82818337600083830152505050565b6000601f19601f8301169050919050565b60006111b28385611175565b93506111bf838584611186565b6111c883611195565b840190509392505050565b600060208201905081810360008301526111ee8184866111a6565b90509392505050565b7f4e487b7100000000000000000000000000000000000000000000000000000000600052601160045260246000fd5b600061123182610f6f565b915061123c83610f6f565b925082820261124a81610f6f565b91508282048414831517611261576112606111f7565b5b5092915050565b6000819050919050565b61127b81611268565b82525050565b60006020820190506112966000830184611272565b92915050565b6000815190506112ab816110e0565b92915050565b6000602082840312156112c7576112c6610d80565b5b60006112d58482850161129c565b91505092915050565b6112e781611268565b81146112f257600080fd5b50565b600081519050611304816112de565b92915050565b6000602082840312156113205761131f610d80565b5b600061132e848285016112f5565b91505092915050565b7f4f776e61626c653a206e6577206f776e657220697320746865207a65726f206160008201527f6464726573730000000000000000000000000000000000000000000000000000602082015250565b6000611393602683611175565b915061139e82611337565b604082019050919050565b600060208201905081810360008301526113c281611386565b9050919050565b7f4f776e61626c653a2063616c6c6572206973206e6f7420746865206f776e6572600082015250565b60006113ff602083611175565b915061140a826113c9565b602082019050919050565b6000602082019050818103600083015261142e816113f2565b9050919050565b7f5061757361626c653a2070617573656400000000000000000000000000000000600082015250565b600061146b601083611175565b915061147682611435565b602082019050919050565b6000602082019050818103600083015261149a8161145e565b9050919050565b60006114ac82610f6f565b91506114b783610f6f565b92508282019050808211156114cf576114ce6111f7565b5b92915050565b7f5061757361626c653a206e6f7420706175736564000000000000000000000000600082015250565b600061150b601483611175565b9150611516826114d5565b602082019050919050565b6000602082019050818103600083015261153a816114fe565b9050919050565b6000606082019050611556600083018661100f565b611563602083018561100f565b6115706040830184610fe5565b949350505050565b61158181610f39565b811461158c57600080fd5b50565b60008151905061159e81611578565b92915050565b6000602082840312156115ba576115b9610d80565b5b60006115c88482850161158f565b91505092915050565b7f5361666545524332303a204552433230206f7065726174696f6e20646964206e60008201527f6f74207375636365656400000000000000000000000000000000000000000000602082015250565b600061162d602a83611175565b9150611638826115d1565b604082019050919050565b6000602082019050818103600083015261165c81611620565b9050919050565b7f416464726573733a20696e73756666696369656e742062616c616e636520666f60008201527f722063616c6c0000000000000000000000000000000000000000000000000000602082015250565b60006116bf602683611175565b91506116ca82611663565b604082019050919050565b600060208201905081810360008301526116ee816116b2565b9050919050565b600081519050919050565b600081905092915050565b60005b8381101561172957808201518184015260208101905061170e565b60008484015250505050565b6000611740826116f5565b61174a8185611700565b935061175a81856020860161170b565b80840191505092915050565b60006117728284611735565b915081905092915050565b7f416464726573733a2063616c6c20746f206e6f6e2d636f6e7472616374000000600082015250565b60006117b3601d83611175565b91506117be8261177d565b602082019050919050565b600060208201905081810360008301526117e2816117a6565b9050919050565b600081519050919050565b60006117ff826117e9565b6118098185611175565b935061181981856020860161170b565b61182281611195565b840191505092915050565b6000602082019050818103600083015261184781846117f4565b90509291505056fea2646970667358221220732d4aa8821eb314fa6dbd8dab2c23199c0c71a9b100e03f61ad9e871cd2467c64736f6c63430008140033a2646970667358221220f7b10aa4ce3ae4b66cc0277476e80476c88fc8715d14071d1d813ca0db474b7e64736f6c63430008140033",
  "devdoc": {
    "events": {
      "ReaderNodeProviderCreated(address,address,address,uint256)": {
        "params": {
          "payee": "The address that will receive the payments",
          "price": "The price per second of application node execution",
          "provider": "The address of the provider",
          "token": "The token used for billing"
        }
      },
      "ValidatorNodeProviderCreated(address,address,address,address,uint256)": {
        "params": {
          "consensus": "The consensus associated with the provider",
          "payee": "The address that will receive the payments",
          "price": "The price per second of application node execution",
          "provider": "The address of the provider",
          "token": "The token used for billing"
        }
      }
    },
    "kind": "dev",
    "methods": {},
    "version": 1
  },
  "userdoc": {
    "events": {
      "ReaderNodeProviderCreated(address,address,address,uint256)": {
        "notice": "A new provider was created"
      },
      "ValidatorNodeProviderCreated(address,address,address,address,uint256)": {
        "notice": "A new provider was created"
      }
    },
    "kind": "user",
    "methods": {
      "newReaderNodeProvider(address,address,uint256)": {
        "notice": "Create a new ERC20 based ReaderNodeProvider using the specified token"
      },
      "newValidatorNodeProvider(address,address,address,uint256)": {
        "notice": "Create a new ERC20 based ValidatorNodeProvider using the specified token"
      }
    },
    "notice": "Factory for creating new ERC20 based providers",
    "version": 1
  },
  "storageLayout": {
    "storage": [],
    "types": null
  }
}