{
  "address": "0x6979dAEbfbC7421e023bff7Cbd429580C2503A15",
  "abi": [
    {
      "inputs": [
        {
          "internalType": "address",
          "name": "initialOwner",
          "type": "address"
        }
      ],
      "stateMutability": "nonpayable",
      "type": "constructor"
    },
    {
      "inputs": [
        {
          "internalType": "address",
          "name": "sender",
          "type": "address"
        },
        {
          "internalType": "uint256",
          "name": "balance",
          "type": "uint256"
        },
        {
          "internalType": "uint256",
          "name": "needed",
          "type": "uint256"
        },
        {
          "internalType": "uint256",
          "name": "tokenId",
          "type": "uint256"
        }
      ],
      "name": "ERC1155InsufficientBalance",
      "type": "error"
    },
    {
      "inputs": [
        {
          "internalType": "address",
          "name": "approver",
          "type": "address"
        }
      ],
      "name": "ERC1155InvalidApprover",
      "type": "error"
    },
    {
      "inputs": [
        {
          "internalType": "uint256",
          "name": "idsLength",
          "type": "uint256"
        },
        {
          "internalType": "uint256",
          "name": "valuesLength",
          "type": "uint256"
        }
      ],
      "name": "ERC1155InvalidArrayLength",
      "type": "error"
    },
    {
      "inputs": [
        {
          "internalType": "address",
          "name": "operator",
          "type": "address"
        }
      ],
      "name": "ERC1155InvalidOperator",
      "type": "error"
    },
    {
      "inputs": [
        {
          "internalType": "address",
          "name": "receiver",
          "type": "address"
        }
      ],
      "name": "ERC1155InvalidReceiver",
      "type": "error"
    },
    {
      "inputs": [
        {
          "internalType": "address",
          "name": "sender",
          "type": "address"
        }
      ],
      "name": "ERC1155InvalidSender",
      "type": "error"
    },
    {
      "inputs": [
        {
          "internalType": "address",
          "name": "operator",
          "type": "address"
        },
        {
          "internalType": "address",
          "name": "owner",
          "type": "address"
        }
      ],
      "name": "ERC1155MissingApprovalForAll",
      "type": "error"
    },
    {
      "inputs": [
        {
          "internalType": "address",
          "name": "owner",
          "type": "address"
        }
      ],
      "name": "OwnableInvalidOwner",
      "type": "error"
    },
    {
      "inputs": [
        {
          "internalType": "address",
          "name": "account",
          "type": "address"
        }
      ],
      "name": "OwnableUnauthorizedAccount",
      "type": "error"
    },
    {
      "anonymous": false,
      "inputs": [
        {
          "indexed": true,
          "internalType": "address",
          "name": "account",
          "type": "address"
        },
        {
          "indexed": true,
          "internalType": "address",
          "name": "operator",
          "type": "address"
        },
        {
          "indexed": false,
          "internalType": "bool",
          "name": "approved",
          "type": "bool"
        }
      ],
      "name": "ApprovalForAll",
      "type": "event"
    },
    {
      "anonymous": false,
      "inputs": [
        {
          "indexed": true,
          "internalType": "address",
          "name": "previousOwner",
          "type": "address"
        },
        {
          "indexed": true,
          "internalType": "address",
          "name": "newOwner",
          "type": "address"
        }
      ],
      "name": "OwnershipTransferred",
      "type": "event"
    },
    {
      "anonymous": false,
      "inputs": [
        {
          "indexed": true,
          "internalType": "address",
          "name": "operator",
          "type": "address"
        },
        {
          "indexed": true,
          "internalType": "address",
          "name": "from",
          "type": "address"
        },
        {
          "indexed": true,
          "internalType": "address",
          "name": "to",
          "type": "address"
        },
        {
          "indexed": false,
          "internalType": "uint256[]",
          "name": "ids",
          "type": "uint256[]"
        },
        {
          "indexed": false,
          "internalType": "uint256[]",
          "name": "values",
          "type": "uint256[]"
        }
      ],
      "name": "TransferBatch",
      "type": "event"
    },
    {
      "anonymous": false,
      "inputs": [
        {
          "indexed": true,
          "internalType": "address",
          "name": "operator",
          "type": "address"
        },
        {
          "indexed": true,
          "internalType": "address",
          "name": "from",
          "type": "address"
        },
        {
          "indexed": true,
          "internalType": "address",
          "name": "to",
          "type": "address"
        },
        {
          "indexed": false,
          "internalType": "uint256",
          "name": "id",
          "type": "uint256"
        },
        {
          "indexed": false,
          "internalType": "uint256",
          "name": "value",
          "type": "uint256"
        }
      ],
      "name": "TransferSingle",
      "type": "event"
    },
    {
      "anonymous": false,
      "inputs": [
        {
          "indexed": false,
          "internalType": "string",
          "name": "value",
          "type": "string"
        },
        {
          "indexed": true,
          "internalType": "uint256",
          "name": "id",
          "type": "uint256"
        }
      ],
      "name": "URI",
      "type": "event"
    },
    {
      "inputs": [
        {
          "internalType": "address",
          "name": "account",
          "type": "address"
        },
        {
          "internalType": "uint256",
          "name": "id",
          "type": "uint256"
        }
      ],
      "name": "balanceOf",
      "outputs": [
        {
          "internalType": "uint256",
          "name": "",
          "type": "uint256"
        }
      ],
      "stateMutability": "view",
      "type": "function"
    },
    {
      "inputs": [
        {
          "internalType": "address[]",
          "name": "accounts",
          "type": "address[]"
        },
        {
          "internalType": "uint256[]",
          "name": "ids",
          "type": "uint256[]"
        }
      ],
      "name": "balanceOfBatch",
      "outputs": [
        {
          "internalType": "uint256[]",
          "name": "",
          "type": "uint256[]"
        }
      ],
      "stateMutability": "view",
      "type": "function"
    },
    {
      "inputs": [
        {
          "internalType": "address",
          "name": "account",
          "type": "address"
        },
        {
          "internalType": "address",
          "name": "operator",
          "type": "address"
        }
      ],
      "name": "isApprovedForAll",
      "outputs": [
        {
          "internalType": "bool",
          "name": "",
          "type": "bool"
        }
      ],
      "stateMutability": "view",
      "type": "function"
    },
    {
      "inputs": [
        {
          "internalType": "address",
          "name": "account",
          "type": "address"
        },
        {
          "internalType": "uint256",
          "name": "id",
          "type": "uint256"
        },
        {
          "internalType": "uint256",
          "name": "amount",
          "type": "uint256"
        },
        {
          "internalType": "bytes",
          "name": "data",
          "type": "bytes"
        }
      ],
      "name": "mint",
      "outputs": [],
      "stateMutability": "nonpayable",
      "type": "function"
    },
    {
      "inputs": [
        {
          "internalType": "address",
          "name": "to",
          "type": "address"
        },
        {
          "internalType": "uint256[]",
          "name": "ids",
          "type": "uint256[]"
        },
        {
          "internalType": "uint256[]",
          "name": "amounts",
          "type": "uint256[]"
        },
        {
          "internalType": "bytes",
          "name": "data",
          "type": "bytes"
        }
      ],
      "name": "mintBatch",
      "outputs": [],
      "stateMutability": "nonpayable",
      "type": "function"
    },
    {
      "inputs": [],
      "name": "owner",
      "outputs": [
        {
          "internalType": "address",
          "name": "",
          "type": "address"
        }
      ],
      "stateMutability": "view",
      "type": "function"
    },
    {
      "inputs": [],
      "name": "renounceOwnership",
      "outputs": [],
      "stateMutability": "nonpayable",
      "type": "function"
    },
    {
      "inputs": [
        {
          "internalType": "address",
          "name": "from",
          "type": "address"
        },
        {
          "internalType": "address",
          "name": "to",
          "type": "address"
        },
        {
          "internalType": "uint256[]",
          "name": "ids",
          "type": "uint256[]"
        },
        {
          "internalType": "uint256[]",
          "name": "values",
          "type": "uint256[]"
        },
        {
          "internalType": "bytes",
          "name": "data",
          "type": "bytes"
        }
      ],
      "name": "safeBatchTransferFrom",
      "outputs": [],
      "stateMutability": "nonpayable",
      "type": "function"
    },
    {
      "inputs": [
        {
          "internalType": "address",
          "name": "from",
          "type": "address"
        },
        {
          "internalType": "address",
          "name": "to",
          "type": "address"
        },
        {
          "internalType": "uint256",
          "name": "id",
          "type": "uint256"
        },
        {
          "internalType": "uint256",
          "name": "value",
          "type": "uint256"
        },
        {
          "internalType": "bytes",
          "name": "data",
          "type": "bytes"
        }
      ],
      "name": "safeTransferFrom",
      "outputs": [],
      "stateMutability": "nonpayable",
      "type": "function"
    },
    {
      "inputs": [
        {
          "internalType": "address",
          "name": "operator",
          "type": "address"
        },
        {
          "internalType": "bool",
          "name": "approved",
          "type": "bool"
        }
      ],
      "name": "setApprovalForAll",
      "outputs": [],
      "stateMutability": "nonpayable",
      "type": "function"
    },
    {
      "inputs": [
        {
          "internalType": "string",
          "name": "newuri",
          "type": "string"
        }
      ],
      "name": "setURI",
      "outputs": [],
      "stateMutability": "nonpayable",
      "type": "function"
    },
    {
      "inputs": [
        {
          "internalType": "bytes4",
          "name": "interfaceId",
          "type": "bytes4"
        }
      ],
      "name": "supportsInterface",
      "outputs": [
        {
          "internalType": "bool",
          "name": "",
          "type": "bool"
        }
      ],
      "stateMutability": "view",
      "type": "function"
    },
    {
      "inputs": [
        {
          "internalType": "address",
          "name": "newOwner",
          "type": "address"
        }
      ],
      "name": "transferOwnership",
      "outputs": [],
      "stateMutability": "nonpayable",
      "type": "function"
    },
    {
      "inputs": [
        {
          "internalType": "uint256",
          "name": "",
          "type": "uint256"
        }
      ],
      "name": "uri",
      "outputs": [
        {
          "internalType": "string",
          "name": "",
          "type": "string"
        }
      ],
      "stateMutability": "view",
      "type": "function"
    }
  ],
  "transactionHash": "0x34da1cceb5dc34c9f17074a748a811c9dcc5ee5410d6fda5097749e3a9b03797",
  "args": [
    "0xd8464d1B3592b6c3786B32931E2a2AdAC501Aaad"
  ],
  "numDeployments": 1,
  "solcInputHash": "fe5a4ff44e43f24e24718bd1f7cbe8f0",
  "bytecode": "0x60806040523480156200001157600080fd5b5060405162002e9b38038062002e9b83398181016040528101906200003791906200022d565b80604051806020016040528060008152506200005981620000e860201b60201c565b50600073ffffffffffffffffffffffffffffffffffffffff168173ffffffffffffffffffffffffffffffffffffffff1603620000cf5760006040517f1e4fbdf7000000000000000000000000000000000000000000000000000000008152600401620000c6919062000270565b60405180910390fd5b620000e081620000fd60201b60201c565b5050620005ee565b8060029081620000f9919062000507565b5050565b6000600360009054906101000a900473ffffffffffffffffffffffffffffffffffffffff16905081600360006101000a81548173ffffffffffffffffffffffffffffffffffffffff021916908373ffffffffffffffffffffffffffffffffffffffff1602179055508173ffffffffffffffffffffffffffffffffffffffff168173ffffffffffffffffffffffffffffffffffffffff167f8be0079c531659141344cd1fd0a4f28419497f9722a3daafe3b4186f6b6457e060405160405180910390a35050565b600080fd5b600073ffffffffffffffffffffffffffffffffffffffff82169050919050565b6000620001f582620001c8565b9050919050565b6200020781620001e8565b81146200021357600080fd5b50565b6000815190506200022781620001fc565b92915050565b600060208284031215620002465762000245620001c3565b5b6000620002568482850162000216565b91505092915050565b6200026a81620001e8565b82525050565b60006020820190506200028760008301846200025f565b92915050565b600081519050919050565b7f4e487b7100000000000000000000000000000000000000000000000000000000600052604160045260246000fd5b7f4e487b7100000000000000000000000000000000000000000000000000000000600052602260045260246000fd5b600060028204905060018216806200030f57607f821691505b602082108103620003255762000324620002c7565b5b50919050565b60008190508160005260206000209050919050565b60006020601f8301049050919050565b600082821b905092915050565b6000600883026200038f7fffffffffffffffffffffffffffffffffffffffffffffffffffffffffffffffff8262000350565b6200039b868362000350565b95508019841693508086168417925050509392505050565b6000819050919050565b6000819050919050565b6000620003e8620003e2620003dc84620003b3565b620003bd565b620003b3565b9050919050565b6000819050919050565b6200040483620003c7565b6200041c6200041382620003ef565b8484546200035d565b825550505050565b600090565b6200043362000424565b62000440818484620003f9565b505050565b5b8181101562000468576200045c60008262000429565b60018101905062000446565b5050565b601f821115620004b75762000481816200032b565b6200048c8462000340565b810160208510156200049c578190505b620004b4620004ab8562000340565b83018262000445565b50505b505050565b600082821c905092915050565b6000620004dc60001984600802620004bc565b1980831691505092915050565b6000620004f78383620004c9565b9150826002028217905092915050565b62000512826200028d565b67ffffffffffffffff8111156200052e576200052d62000298565b5b6200053a8254620002f6565b620005478282856200046c565b600060209050601f8311600181146200057f57600084156200056a578287015190505b620005768582620004e9565b865550620005e6565b601f1984166200058f866200032b565b60005b82811015620005b95784890151825560018201915060208501945060208101905062000592565b86831015620005d95784890151620005d5601f891682620004c9565b8355505b6001600288020188555050505b505050505050565b61289d80620005fe6000396000f3fe608060405234801561001057600080fd5b50600436106100e95760003560e01c8063715018a61161008c578063a22cb46511610066578063a22cb46514610246578063e985e9c514610262578063f242432a14610292578063f2fde38b146102ae576100e9565b8063715018a614610202578063731133e91461020c5780638da5cb5b14610228576100e9565b80630e89341c116100c85780630e89341c1461016a5780631f7fdffa1461019a5780632eb2c2d6146101b65780634e1273f4146101d2576100e9565b8062fdd58e146100ee57806301ffc9a71461011e57806302fe53051461014e575b600080fd5b610108600480360381019061010391906117db565b6102ca565b604051610115919061182a565b60405180910390f35b6101386004803603810190610133919061189d565b610324565b60405161014591906118e5565b60405180910390f35b61016860048036038101906101639190611a46565b610406565b005b610184600480360381019061017f9190611a8f565b61041a565b6040516101919190611b3b565b60405180910390f35b6101b460048036038101906101af9190611cc6565b6104ae565b005b6101d060048036038101906101cb9190611d81565b6104c8565b005b6101ec60048036038101906101e79190611f13565b610570565b6040516101f99190612049565b60405180910390f35b61020a61067f565b005b6102266004803603810190610221919061206b565b610693565b005b6102306106ad565b60405161023d91906120fd565b60405180910390f35b610260600480360381019061025b9190612144565b6106d7565b005b61027c60048036038101906102779190612184565b6106ed565b60405161028991906118e5565b60405180910390f35b6102ac60048036038101906102a791906121c4565b610781565b005b6102c860048036038101906102c3919061225b565b610829565b005b600080600083815260200190815260200160002060008473ffffffffffffffffffffffffffffffffffffffff1673ffffffffffffffffffffffffffffffffffffffff16815260200190815260200160002054905092915050565b60007fd9b67a26000000000000000000000000000000000000000000000000000000007bffffffffffffffffffffffffffffffffffffffffffffffffffffffff1916827bffffffffffffffffffffffffffffffffffffffffffffffffffffffff191614806103ef57507f0e89341c000000000000000000000000000000000000000000000000000000007bffffffffffffffffffffffffffffffffffffffffffffffffffffffff1916827bffffffffffffffffffffffffffffffffffffffffffffffffffffffff1916145b806103ff57506103fe826108af565b5b9050919050565b61040e610919565b610417816109a0565b50565b606060028054610429906122b7565b80601f0160208091040260200160405190810160405280929190818152602001828054610455906122b7565b80156104a25780601f10610477576101008083540402835291602001916104a2565b820191906000526020600020905b81548152906001019060200180831161048557829003601f168201915b50505050509050919050565b6104b6610919565b6104c2848484846109b3565b50505050565b60006104d2610a39565b90508073ffffffffffffffffffffffffffffffffffffffff168673ffffffffffffffffffffffffffffffffffffffff1614158015610517575061051586826106ed565b155b1561055b5780866040517fe237d9220000000000000000000000000000000000000000000000000000000081526004016105529291906122e8565b60405180910390fd5b6105688686868686610a41565b505050505050565b606081518351146105bc57815183516040517f5b0599910000000000000000000000000000000000000000000000000000000081526004016105b3929190612311565b60405180910390fd5b6000835167ffffffffffffffff8111156105d9576105d861191b565b5b6040519080825280602002602001820160405280156106075781602001602082028036833780820191505090505b50905060005b84518110156106745761064461062c8287610b3990919063ffffffff16565b61063f8387610b4d90919063ffffffff16565b6102ca565b8282815181106106575761065661233a565b5b6020026020010181815250508061066d90612398565b905061060d565b508091505092915050565b610687610919565b6106916000610b61565b565b61069b610919565b6106a784848484610c27565b50505050565b6000600360009054906101000a900473ffffffffffffffffffffffffffffffffffffffff16905090565b6106e96106e2610a39565b8383610cc0565b5050565b6000600160008473ffffffffffffffffffffffffffffffffffffffff1673ffffffffffffffffffffffffffffffffffffffff16815260200190815260200160002060008373ffffffffffffffffffffffffffffffffffffffff1673ffffffffffffffffffffffffffffffffffffffff16815260200190815260200160002060009054906101000a900460ff16905092915050565b600061078b610a39565b90508073ffffffffffffffffffffffffffffffffffffffff168673ffffffffffffffffffffffffffffffffffffffff16141580156107d057506107ce86826106ed565b155b156108145780866040517fe237d92200000000000000000000000000000000000000000000000000000000815260040161080b9291906122e8565b60405180910390fd5b6108218686868686610e30565b505050505050565b610831610919565b600073ffffffffffffffffffffffffffffffffffffffff168173ffffffffffffffffffffffffffffffffffffffff16036108a35760006040517f1e4fbdf700000000000000000000000000000000000000000000000000000000815260040161089a91906120fd565b60405180910390fd5b6108ac81610b61565b50565b60007f01ffc9a7000000000000000000000000000000000000000000000000000000007bffffffffffffffffffffffffffffffffffffffffffffffffffffffff1916827bffffffffffffffffffffffffffffffffffffffffffffffffffffffff1916149050919050565b610921610a39565b73ffffffffffffffffffffffffffffffffffffffff1661093f6106ad565b73ffffffffffffffffffffffffffffffffffffffff161461099e57610962610a39565b6040517f118cdaa700000000000000000000000000000000000000000000000000000000815260040161099591906120fd565b60405180910390fd5b565b80600290816109af919061258c565b5050565b600073ffffffffffffffffffffffffffffffffffffffff168473ffffffffffffffffffffffffffffffffffffffff1603610a255760006040517f57f447ce000000000000000000000000000000000000000000000000000000008152600401610a1c91906120fd565b60405180910390fd5b610a33600085858585610f3b565b50505050565b600033905090565b600073ffffffffffffffffffffffffffffffffffffffff168473ffffffffffffffffffffffffffffffffffffffff1603610ab35760006040517f57f447ce000000000000000000000000000000000000000000000000000000008152600401610aaa91906120fd565b60405180910390fd5b600073ffffffffffffffffffffffffffffffffffffffff168573ffffffffffffffffffffffffffffffffffffffff1603610b255760006040517f01a83514000000000000000000000000000000000000000000000000000000008152600401610b1c91906120fd565b60405180910390fd5b610b328585858585610f3b565b5050505050565b600060208202602084010151905092915050565b600060208202602084010151905092915050565b6000600360009054906101000a900473ffffffffffffffffffffffffffffffffffffffff16905081600360006101000a81548173ffffffffffffffffffffffffffffffffffffffff021916908373ffffffffffffffffffffffffffffffffffffffff1602179055508173ffffffffffffffffffffffffffffffffffffffff168173ffffffffffffffffffffffffffffffffffffffff167f8be0079c531659141344cd1fd0a4f28419497f9722a3daafe3b4186f6b6457e060405160405180910390a35050565b600073ffffffffffffffffffffffffffffffffffffffff168473ffffffffffffffffffffffffffffffffffffffff1603610c995760006040517f57f447ce000000000000000000000000000000000000000000000000000000008152600401610c9091906120fd565b60405180910390fd5b600080610ca68585610fed565b91509150610cb8600087848487610f3b565b505050505050565b600073ffffffffffffffffffffffffffffffffffffffff168273ffffffffffffffffffffffffffffffffffffffff1603610d325760006040517fced3e100000000000000000000000000000000000000000000000000000000008152600401610d2991906120fd565b60405180910390fd5b80600160008573ffffffffffffffffffffffffffffffffffffffff1673ffffffffffffffffffffffffffffffffffffffff16815260200190815260200160002060008473ffffffffffffffffffffffffffffffffffffffff1673ffffffffffffffffffffffffffffffffffffffff16815260200190815260200160002060006101000a81548160ff0219169083151502179055508173ffffffffffffffffffffffffffffffffffffffff168373ffffffffffffffffffffffffffffffffffffffff167f17307eab39ab6107e8899845ad3d59bd9653f200f220920489ca2b5937696c3183604051610e2391906118e5565b60405180910390a3505050565b600073ffffffffffffffffffffffffffffffffffffffff168473ffffffffffffffffffffffffffffffffffffffff1603610ea25760006040517f57f447ce000000000000000000000000000000000000000000000000000000008152600401610e9991906120fd565b60405180910390fd5b600073ffffffffffffffffffffffffffffffffffffffff168573ffffffffffffffffffffffffffffffffffffffff1603610f145760006040517f01a83514000000000000000000000000000000000000000000000000000000008152600401610f0b91906120fd565b60405180910390fd5b600080610f218585610fed565b91509150610f328787848487610f3b565b50505050505050565b610f478585858561101d565b600073ffffffffffffffffffffffffffffffffffffffff168473ffffffffffffffffffffffffffffffffffffffff1614610fe6576000610f85610a39565b90506001845103610fd5576000610fa6600086610b4d90919063ffffffff16565b90506000610fbe600086610b4d90919063ffffffff16565b9050610fce8389898585896113cb565b5050610fe4565b610fe381878787878761157f565b5b505b5050505050565b60608060405191506001825283602083015260408201905060018152826020820152604081016040529250929050565b805182511461106757815181516040517f5b05999100000000000000000000000000000000000000000000000000000000815260040161105e929190612311565b60405180910390fd5b6000611071610a39565b905060005b83518110156112865760006110948286610b4d90919063ffffffff16565b905060006110ab8386610b4d90919063ffffffff16565b9050600073ffffffffffffffffffffffffffffffffffffffff168873ffffffffffffffffffffffffffffffffffffffff16146111d857600080600084815260200190815260200160002060008a73ffffffffffffffffffffffffffffffffffffffff1673ffffffffffffffffffffffffffffffffffffffff1681526020019081526020016000205490508181101561118057888183856040517f03dee4c5000000000000000000000000000000000000000000000000000000008152600401611177949392919061265e565b60405180910390fd5b81810360008085815260200190815260200160002060008b73ffffffffffffffffffffffffffffffffffffffff1673ffffffffffffffffffffffffffffffffffffffff16815260200190815260200160002081905550505b600073ffffffffffffffffffffffffffffffffffffffff168773ffffffffffffffffffffffffffffffffffffffff1614611273578060008084815260200190815260200160002060008973ffffffffffffffffffffffffffffffffffffffff1673ffffffffffffffffffffffffffffffffffffffff168152602001908152602001600020600082825461126b91906126a3565b925050819055505b50508061127f90612398565b9050611076565b5060018351036113455760006112a6600085610b4d90919063ffffffff16565b905060006112be600085610b4d90919063ffffffff16565b90508573ffffffffffffffffffffffffffffffffffffffff168773ffffffffffffffffffffffffffffffffffffffff168473ffffffffffffffffffffffffffffffffffffffff167fc3d58168c5ae7397731d063d5bbf3d657854427343f4c083240f7aacaa2d0f628585604051611336929190612311565b60405180910390a450506113c4565b8373ffffffffffffffffffffffffffffffffffffffff168573ffffffffffffffffffffffffffffffffffffffff168273ffffffffffffffffffffffffffffffffffffffff167f4a39dc06d4c0dbc64b70af90fd698a233a518aa5d07e595d983b8c0526c8f7fb86866040516113bb9291906126d7565b60405180910390a45b5050505050565b60008473ffffffffffffffffffffffffffffffffffffffff163b1115611577578373ffffffffffffffffffffffffffffffffffffffff1663f23a6e6187878686866040518663ffffffff1660e01b815260040161142c959493929190612763565b6020604051808303816000875af192505050801561146857506040513d601f19601f8201168201806040525081019061146591906127d2565b60015b6114ec573d8060008114611498576040519150601f19603f3d011682016040523d82523d6000602084013e61149d565b606091505b5060008151036114e457846040517f57f447ce0000000000000000000000000000000000000000000000000000000081526004016114db91906120fd565b60405180910390fd5b805181602001fd5b63f23a6e6160e01b7bffffffffffffffffffffffffffffffffffffffffffffffffffffffff1916817bffffffffffffffffffffffffffffffffffffffffffffffffffffffff19161461157557846040517f57f447ce00000000000000000000000000000000000000000000000000000000815260040161156c91906120fd565b60405180910390fd5b505b505050505050565b60008473ffffffffffffffffffffffffffffffffffffffff163b111561172b578373ffffffffffffffffffffffffffffffffffffffff1663bc197c8187878686866040518663ffffffff1660e01b81526004016115e09594939291906127ff565b6020604051808303816000875af192505050801561161c57506040513d601f19601f8201168201806040525081019061161991906127d2565b60015b6116a0573d806000811461164c576040519150601f19603f3d011682016040523d82523d6000602084013e611651565b606091505b50600081510361169857846040517f57f447ce00000000000000000000000000000000000000000000000000000000815260040161168f91906120fd565b60405180910390fd5b805181602001fd5b63bc197c8160e01b7bffffffffffffffffffffffffffffffffffffffffffffffffffffffff1916817bffffffffffffffffffffffffffffffffffffffffffffffffffffffff19161461172957846040517f57f447ce00000000000000000000000000000000000000000000000000000000815260040161172091906120fd565b60405180910390fd5b505b505050505050565b6000604051905090565b600080fd5b600080fd5b600073ffffffffffffffffffffffffffffffffffffffff82169050919050565b600061177282611747565b9050919050565b61178281611767565b811461178d57600080fd5b50565b60008135905061179f81611779565b92915050565b6000819050919050565b6117b8816117a5565b81146117c357600080fd5b50565b6000813590506117d5816117af565b92915050565b600080604083850312156117f2576117f161173d565b5b600061180085828601611790565b9250506020611811858286016117c6565b9150509250929050565b611824816117a5565b82525050565b600060208201905061183f600083018461181b565b92915050565b60007fffffffff0000000000000000000000000000000000000000000000000000000082169050919050565b61187a81611845565b811461188557600080fd5b50565b60008135905061189781611871565b92915050565b6000602082840312156118b3576118b261173d565b5b60006118c184828501611888565b91505092915050565b60008115159050919050565b6118df816118ca565b82525050565b60006020820190506118fa60008301846118d6565b92915050565b600080fd5b600080fd5b6000601f19601f8301169050919050565b7f4e487b7100000000000000000000000000000000000000000000000000000000600052604160045260246000fd5b6119538261190a565b810181811067ffffffffffffffff821117156119725761197161191b565b5b80604052505050565b6000611985611733565b9050611991828261194a565b919050565b600067ffffffffffffffff8211156119b1576119b061191b565b5b6119ba8261190a565b9050602081019050919050565b82818337600083830152505050565b60006119e96119e484611996565b61197b565b905082815260208101848484011115611a0557611a04611905565b5b611a108482856119c7565b509392505050565b600082601f830112611a2d57611a2c611900565b5b8135611a3d8482602086016119d6565b91505092915050565b600060208284031215611a5c57611a5b61173d565b5b600082013567ffffffffffffffff811115611a7a57611a79611742565b5b611a8684828501611a18565b91505092915050565b600060208284031215611aa557611aa461173d565b5b6000611ab3848285016117c6565b91505092915050565b600081519050919050565b600082825260208201905092915050565b60005b83811015611af6578082015181840152602081019050611adb565b60008484015250505050565b6000611b0d82611abc565b611b178185611ac7565b9350611b27818560208601611ad8565b611b308161190a565b840191505092915050565b60006020820190508181036000830152611b558184611b02565b905092915050565b600067ffffffffffffffff821115611b7857611b7761191b565b5b602082029050602081019050919050565b600080fd5b6000611ba1611b9c84611b5d565b61197b565b90508083825260208201905060208402830185811115611bc457611bc3611b89565b5b835b81811015611bed5780611bd988826117c6565b845260208401935050602081019050611bc6565b5050509392505050565b600082601f830112611c0c57611c0b611900565b5b8135611c1c848260208601611b8e565b91505092915050565b600067ffffffffffffffff821115611c4057611c3f61191b565b5b611c498261190a565b9050602081019050919050565b6000611c69611c6484611c25565b61197b565b905082815260208101848484011115611c8557611c84611905565b5b611c908482856119c7565b509392505050565b600082601f830112611cad57611cac611900565b5b8135611cbd848260208601611c56565b91505092915050565b60008060008060808587031215611ce057611cdf61173d565b5b6000611cee87828801611790565b945050602085013567ffffffffffffffff811115611d0f57611d0e611742565b5b611d1b87828801611bf7565b935050604085013567ffffffffffffffff811115611d3c57611d3b611742565b5b611d4887828801611bf7565b925050606085013567ffffffffffffffff811115611d6957611d68611742565b5b611d7587828801611c98565b91505092959194509250565b600080600080600060a08688031215611d9d57611d9c61173d565b5b6000611dab88828901611790565b9550506020611dbc88828901611790565b945050604086013567ffffffffffffffff811115611ddd57611ddc611742565b5b611de988828901611bf7565b935050606086013567ffffffffffffffff811115611e0a57611e09611742565b5b611e1688828901611bf7565b925050608086013567ffffffffffffffff811115611e3757611e36611742565b5b611e4388828901611c98565b9150509295509295909350565b600067ffffffffffffffff821115611e6b57611e6a61191b565b5b602082029050602081019050919050565b6000611e8f611e8a84611e50565b61197b565b90508083825260208201905060208402830185811115611eb257611eb1611b89565b5b835b81811015611edb5780611ec78882611790565b845260208401935050602081019050611eb4565b5050509392505050565b600082601f830112611efa57611ef9611900565b5b8135611f0a848260208601611e7c565b91505092915050565b60008060408385031215611f2a57611f2961173d565b5b600083013567ffffffffffffffff811115611f4857611f47611742565b5b611f5485828601611ee5565b925050602083013567ffffffffffffffff811115611f7557611f74611742565b5b611f8185828601611bf7565b9150509250929050565b600081519050919050565b600082825260208201905092915050565b6000819050602082019050919050565b611fc0816117a5565b82525050565b6000611fd28383611fb7565b60208301905092915050565b6000602082019050919050565b6000611ff682611f8b565b6120008185611f96565b935061200b83611fa7565b8060005b8381101561203c5781516120238882611fc6565b975061202e83611fde565b92505060018101905061200f565b5085935050505092915050565b600060208201905081810360008301526120638184611feb565b905092915050565b600080600080608085870312156120855761208461173d565b5b600061209387828801611790565b94505060206120a4878288016117c6565b93505060406120b5878288016117c6565b925050606085013567ffffffffffffffff8111156120d6576120d5611742565b5b6120e287828801611c98565b91505092959194509250565b6120f781611767565b82525050565b600060208201905061211260008301846120ee565b92915050565b612121816118ca565b811461212c57600080fd5b50565b60008135905061213e81612118565b92915050565b6000806040838503121561215b5761215a61173d565b5b600061216985828601611790565b925050602061217a8582860161212f565b9150509250929050565b6000806040838503121561219b5761219a61173d565b5b60006121a985828601611790565b92505060206121ba85828601611790565b9150509250929050565b600080600080600060a086880312156121e0576121df61173d565b5b60006121ee88828901611790565b95505060206121ff88828901611790565b9450506040612210888289016117c6565b9350506060612221888289016117c6565b925050608086013567ffffffffffffffff81111561224257612241611742565b5b61224e88828901611c98565b9150509295509295909350565b6000602082840312156122715761227061173d565b5b600061227f84828501611790565b91505092915050565b7f4e487b7100000000000000000000000000000000000000000000000000000000600052602260045260246000fd5b600060028204905060018216806122cf57607f821691505b6020821081036122e2576122e1612288565b5b50919050565b60006040820190506122fd60008301856120ee565b61230a60208301846120ee565b9392505050565b6000604082019050612326600083018561181b565b612333602083018461181b565b9392505050565b7f4e487b7100000000000000000000000000000000000000000000000000000000600052603260045260246000fd5b7f4e487b7100000000000000000000000000000000000000000000000000000000600052601160045260246000fd5b60006123a3826117a5565b91507fffffffffffffffffffffffffffffffffffffffffffffffffffffffffffffffff82036123d5576123d4612369565b5b600182019050919050565b60008190508160005260206000209050919050565b60006020601f8301049050919050565b600082821b905092915050565b6000600883026124427fffffffffffffffffffffffffffffffffffffffffffffffffffffffffffffffff82612405565b61244c8683612405565b95508019841693508086168417925050509392505050565b6000819050919050565b600061248961248461247f846117a5565b612464565b6117a5565b9050919050565b6000819050919050565b6124a38361246e565b6124b76124af82612490565b848454612412565b825550505050565b600090565b6124cc6124bf565b6124d781848461249a565b505050565b5b818110156124fb576124f06000826124c4565b6001810190506124dd565b5050565b601f82111561254057612511816123e0565b61251a846123f5565b81016020851015612529578190505b61253d612535856123f5565b8301826124dc565b50505b505050565b600082821c905092915050565b600061256360001984600802612545565b1980831691505092915050565b600061257c8383612552565b9150826002028217905092915050565b61259582611abc565b67ffffffffffffffff8111156125ae576125ad61191b565b5b6125b882546122b7565b6125c38282856124ff565b600060209050601f8311600181146125f657600084156125e4578287015190505b6125ee8582612570565b865550612656565b601f198416612604866123e0565b60005b8281101561262c57848901518255600182019150602085019450602081019050612607565b868310156126495784890151612645601f891682612552565b8355505b6001600288020188555050505b505050505050565b600060808201905061267360008301876120ee565b612680602083018661181b565b61268d604083018561181b565b61269a606083018461181b565b95945050505050565b60006126ae826117a5565b91506126b9836117a5565b92508282019050808211156126d1576126d0612369565b5b92915050565b600060408201905081810360008301526126f18185611feb565b905081810360208301526127058184611feb565b90509392505050565b600081519050919050565b600082825260208201905092915050565b60006127358261270e565b61273f8185612719565b935061274f818560208601611ad8565b6127588161190a565b840191505092915050565b600060a08201905061277860008301886120ee565b61278560208301876120ee565b612792604083018661181b565b61279f606083018561181b565b81810360808301526127b1818461272a565b90509695505050505050565b6000815190506127cc81611871565b92915050565b6000602082840312156127e8576127e761173d565b5b60006127f6848285016127bd565b91505092915050565b600060a08201905061281460008301886120ee565b61282160208301876120ee565b81810360408301526128338186611feb565b905081810360608301526128478185611feb565b9050818103608083015261285b818461272a565b9050969550505050505056fea264697066735822122001cf61ebdca6d3800029fc76abe342984f04be7f0fb0da6a9b8a2abbe4d3df8264736f6c63430008140033",
  "devdoc": {
    "custom:security-contact": "admin@sunodo.io",
    "errors": {
      "ERC1155InsufficientBalance(address,uint256,uint256,uint256)": [
        {
          "details": "Indicates an error related to the current `balance` of a `sender`. Used in transfers.",
          "params": {
            "balance": "Current balance for the interacting account.",
            "needed": "Minimum amount required to perform a transfer.",
            "sender": "Address whose tokens are being transferred.",
            "tokenId": "Identifier number of a token."
          }
        }
      ],
      "ERC1155InvalidApprover(address)": [
        {
          "details": "Indicates a failure with the `approver` of a token to be approved. Used in approvals.",
          "params": {
            "approver": "Address initiating an approval operation."
          }
        }
      ],
      "ERC1155InvalidArrayLength(uint256,uint256)": [
        {
          "details": "Indicates an array length mismatch between ids and values in a safeBatchTransferFrom operation. Used in batch transfers.",
          "params": {
            "idsLength": "Length of the array of token identifiers",
            "valuesLength": "Length of the array of token amounts"
          }
        }
      ],
      "ERC1155InvalidOperator(address)": [
        {
          "details": "Indicates a failure with the `operator` to be approved. Used in approvals.",
          "params": {
            "operator": "Address that may be allowed to operate on tokens without being their owner."
          }
        }
      ],
      "ERC1155InvalidReceiver(address)": [
        {
          "details": "Indicates a failure with the token `receiver`. Used in transfers.",
          "params": {
            "receiver": "Address to which tokens are being transferred."
          }
        }
      ],
      "ERC1155InvalidSender(address)": [
        {
          "details": "Indicates a failure with the token `sender`. Used in transfers.",
          "params": {
            "sender": "Address whose tokens are being transferred."
          }
        }
      ],
      "ERC1155MissingApprovalForAll(address,address)": [
        {
          "details": "Indicates a failure with the `operator`s approval. Used in transfers.",
          "params": {
            "operator": "Address that may be allowed to operate on tokens without being their owner.",
            "owner": "Address of the current owner of a token."
          }
        }
      ],
      "OwnableInvalidOwner(address)": [
        {
          "details": "The owner is not a valid owner account. (eg. `address(0)`)"
        }
      ],
      "OwnableUnauthorizedAccount(address)": [
        {
          "details": "The caller account is not authorized to perform an operation."
        }
      ]
    },
    "events": {
      "ApprovalForAll(address,address,bool)": {
        "details": "Emitted when `account` grants or revokes permission to `operator` to transfer their tokens, according to `approved`."
      },
      "TransferBatch(address,address,address,uint256[],uint256[])": {
        "details": "Equivalent to multiple {TransferSingle} events, where `operator`, `from` and `to` are the same for all transfers."
      },
      "TransferSingle(address,address,address,uint256,uint256)": {
        "details": "Emitted when `value` amount of tokens of type `id` are transferred from `from` to `to` by `operator`."
      },
      "URI(string,uint256)": {
        "details": "Emitted when the URI for token type `id` changes to `value`, if it is a non-programmatic URI. If an {URI} event was emitted for `id`, the standard https://eips.ethereum.org/EIPS/eip-1155#metadata-extensions[guarantees] that `value` will equal the value returned by {IERC1155MetadataURI-uri}."
      }
    },
    "kind": "dev",
    "methods": {
      "balanceOf(address,uint256)": {
        "details": "See {IERC1155-balanceOf}."
      },
      "balanceOfBatch(address[],uint256[])": {
        "details": "See {IERC1155-balanceOfBatch}. Requirements: - `accounts` and `ids` must have the same length."
      },
      "isApprovedForAll(address,address)": {
        "details": "See {IERC1155-isApprovedForAll}."
      },
      "owner()": {
        "details": "Returns the address of the current owner."
      },
      "renounceOwnership()": {
        "details": "Leaves the contract without owner. It will not be possible to call `onlyOwner` functions. Can only be called by the current owner. NOTE: Renouncing ownership will leave the contract without an owner, thereby disabling any functionality that is only available to the owner."
      },
      "safeBatchTransferFrom(address,address,uint256[],uint256[],bytes)": {
        "details": "See {IERC1155-safeBatchTransferFrom}."
      },
      "safeTransferFrom(address,address,uint256,uint256,bytes)": {
        "details": "See {IERC1155-safeTransferFrom}."
      },
      "setApprovalForAll(address,bool)": {
        "details": "See {IERC1155-setApprovalForAll}."
      },
      "supportsInterface(bytes4)": {
        "details": "See {IERC165-supportsInterface}."
      },
      "transferOwnership(address)": {
        "details": "Transfers ownership of the contract to a new account (`newOwner`). Can only be called by the current owner."
      },
      "uri(uint256)": {
        "details": "See {IERC1155MetadataURI-uri}. This implementation returns the same URI for *all* token types. It relies on the token type ID substitution mechanism https://eips.ethereum.org/EIPS/eip-1155#metadata[defined in the EIP]. Clients calling this function must replace the `\\{id\\}` substring with the actual token type ID."
      }
    },
    "version": 1
  },
  "userdoc": {
    "kind": "user",
    "methods": {},
    "version": 1
  },
  "storageLayout": {
    "storage": [
      {
        "astId": 358,
        "contract": "contracts/SunodoMultiToken.sol:SunodoMultiToken",
        "label": "_balances",
        "offset": 0,
        "slot": "0",
        "type": "t_mapping(t_uint256,t_mapping(t_address,t_uint256))"
      },
      {
        "astId": 364,
        "contract": "contracts/SunodoMultiToken.sol:SunodoMultiToken",
        "label": "_operatorApprovals",
        "offset": 0,
        "slot": "1",
        "type": "t_mapping(t_address,t_mapping(t_address,t_bool))"
      },
      {
        "astId": 366,
        "contract": "contracts/SunodoMultiToken.sol:SunodoMultiToken",
        "label": "_uri",
        "offset": 0,
        "slot": "2",
        "type": "t_string_storage"
      },
      {
        "astId": 8,
        "contract": "contracts/SunodoMultiToken.sol:SunodoMultiToken",
        "label": "_owner",
        "offset": 0,
        "slot": "3",
        "type": "t_address"
      }
    ],
    "types": {
      "t_address": {
        "encoding": "inplace",
        "label": "address",
        "numberOfBytes": "20"
      },
      "t_bool": {
        "encoding": "inplace",
        "label": "bool",
        "numberOfBytes": "1"
      },
      "t_mapping(t_address,t_bool)": {
        "encoding": "mapping",
        "key": "t_address",
        "label": "mapping(address => bool)",
        "numberOfBytes": "32",
        "value": "t_bool"
      },
      "t_mapping(t_address,t_mapping(t_address,t_bool))": {
        "encoding": "mapping",
        "key": "t_address",
        "label": "mapping(address => mapping(address => bool))",
        "numberOfBytes": "32",
        "value": "t_mapping(t_address,t_bool)"
      },
      "t_mapping(t_address,t_uint256)": {
        "encoding": "mapping",
        "key": "t_address",
        "label": "mapping(address => uint256)",
        "numberOfBytes": "32",
        "value": "t_uint256"
      },
      "t_mapping(t_uint256,t_mapping(t_address,t_uint256))": {
        "encoding": "mapping",
        "key": "t_uint256",
        "label": "mapping(uint256 => mapping(address => uint256))",
        "numberOfBytes": "32",
        "value": "t_mapping(t_address,t_uint256)"
      },
      "t_string_storage": {
        "encoding": "bytes",
        "label": "string",
        "numberOfBytes": "32"
      },
      "t_uint256": {
        "encoding": "inplace",
        "label": "uint256",
        "numberOfBytes": "32"
      }
    }
  }
}